:10000000180A0020FD2D0000BF1600002F18000068
:1000100000000000000000000000000000000000E0
:10002000000000000000000000000000331D000080
:1000300000000000000000004B2A0000C32C00005C
:10004000FB2D0000BB2E000081230000CB2E000002
:10005000EF2E0000000000000D2F00000F2F000009
:10006000112F0000132F0000152F0000172F000084
:10007000192F00001B2F00001D2F00001F2F000054
:10008000212F0000232F0000252F0000272F000024
:10009000292F00002B2F00002D2F00002F2F0000F4
:1000A000312F0000332F000000000000000000008E
:1000B0000000000000000000000000000000000040
:1000C000F1B5A4B00E0014001D004A487844FF307A
:1000D000253003C822AA03C2049600200D9001E037
:1000E0000098241800206946C88022AB0022D24321
:1000F000210001A8801C01F04EF90090012805DACA
:100100002078411E8941C943C90F00916846C088C3
:100110002528009E00D1761E012E0EDB270039789F
:100120000498249A90470490002800D109E10D9882
:10013000401C0D907F1C761EF1D16846C088252892
:1001400007D100200790089009900A900B900C901E
:1001500008E06846C0880028C2D10D98F3E001008D
:1001600001200843641C21782029F8D023290ED0CF
:100170002B2904D02D2907D030290BD00DE0010008
:100180000220084380B2EDE701000420F9E70100F6
:100190000820F6E701001020F3E72A290FD129688B
:1001A00029600A68091D29600F92002A05D551426D
:1001B0000F9101000420084380B2641C12E000216A
:1001C0000F910AE00F9A804B9A4205D093009A183B
:1001D0005200511830390F91641C21780A00303ACE
:1001E0000A2AEFD321782E2906D00021C9430E9187
:1001F00021E000BF342C0000641C21782A2907D19B
:10020000296829600A68091D29600E92641C12E0A1
:1002100000210E910AE00E9A6B4B9A4205D0930092
:100220009A185200511830390E91641C21780A0036
:10023000303A0A2AEFD302A9088726783100044809
:1002400078440C3001F0B5F8002803D0641C02E0BB
:10025000E02B0000002602A83A30067002A83A30CF
:100260000078682804D12178682901D1622005E04E
:100270006C2807D120786C2804D1712002A93A316A
:100280000870641C12A806902678641C300025387B
:100290002AD01C3800D1E0E0001F022800D8DCE0A2
:1002A000133800D1FFE0093800D1D6E0801E00D11C
:1002B00068E1401E00D140E1401E022800D8CCE099
:1002C000001F00D139E1401F00D197E0401E00D14E
:1002D000E9E0401E39D0C01E0BD0801E00D1E2E004
:1002E000C01E00D1DFE070E1252012A908700120B6
:1002F00075E102A83A3000786C282868286016D08A
:100300000668001D286005960E9F002F03D530005B
:1003100001F059F809E03A000021300001F05BF8E3
:10032000002801D0801B00E03800089058E10268E6
:10033000001D286002A9249800F032FA002800D499
:100340004EE10020C04325B0F0BD28682860026857
:10035000001D28600020C0430021104002AA03C2F3
:1003600012A80590069B3C2602A803C8002904D1C8
:10037000002802D10E9A002A14D0761E0096020799
:10038000120F3032D2B23A2A00DB27329A550009D6
:100390000A071043090901D1002803D0059A9F19C3
:1003A000BA42EAD33C20801B0890991905910E9916
:1003B00088420DDA081A0A9002A8008F034901400A
:1003C00002A801870CE100BFFFFFFF7FEFFF0000E5
:1003D000002900D404E102A93831097814220A4026
:1003E000102A00D0FCE00F99079A891A0A9A891AF4
:1003F0000E1A012E00DAF3E00A96F1E002A83A3074
:100400000078622819D0682806D06A280CD06C2899
:100410001BD0712808D018E0286828600168001DEA
:1004200028600D980880DBE0286828600268001DBD
:1004300028600D98C11703C2D2E0286828600168BF
:10044000001D28600D980870CAE0286828600168BF
:10045000001D28600D980860C2E02A68D21D0720A0
:1004600082432A6003CA2A6002AA03C2002902D575
:1004700007982D210AE002A8008F810702D507986E
:100480002B2103E0C00705D50798202112AA11549B
:10049000401C079012A8079940180590310002A847
:1004A00000F0AAFB9CE002A83A3000786C280BD040
:1004B000712801D06A2807D12A68D21D07208243FB
:1004C0002A6003CA2A6005E0296829600868091DB6
:1004D0002960002102AA03C202A83A3000786828E5
:1004E00003D102A803C880B20BE0622803D102A89E
:1004F00003C8C0B205E0742801D07A2804D102A84C
:1005000003C8002102AA03C202A8383000780007FD
:100510002FD502A803C8002901D1002829D0202006
:100520003043782825D10798302112AA1154401C55
:10053000411C079112A90E541BE0290002A83A3071
:10054000007800F0F8F802AA03C202A8002902DA33
:1005500007982D2109E0008F810702D507982B21EC
:1005600003E0C00705D50798202112AA1154401CAA
:10057000079012A8079940180590310002A800F0D2
:10058000A1FA2DE002A83A3000786C2809D00120A9
:100590000790286828600168001D286012A8017073
:1005A0001EE0286828600168001D286068460180F8
:1005B000002069464880C0430E906A4602A92498EC
:1005C00000F0EEF800280BD5BBE6252012A9087034
:1005D00001200790002E03D012A846700220079039
:1005E0000F980799401A0A99401A0899401A0B99CE
:1005F000401A0999401A0C99401A009002A8383004
:100600000078400711D4202069460871009801281D
:100610000BDB009E012301AA02A9249800F0A3FE8F
:10062000002800D08DE6761EF4D1079F12AE002F71
:100630000DD031780498249A90470490002800D176
:100640007FE60D98401C0D90761C7F1EF1D1302066
:10065000694608710A9E012E0ADB012301AA02A93C
:10066000249800F080FE002800D06AE6761EF4D1BF
:10067000059E089F002F0DD031780498249A90474A
:100680000490002800D15CE60D98401C0D90761C6B
:100690007F1EF1D13020694608710B9E012E0ADBC6
:1006A000012301AA02A9249800F05DFE002800D0D1
:1006B00047E6761EF4D1059808994618099F002F41
:1006C0000DD031780498249A90470490002800D1E6
:1006D00037E60D98401C0D90761C7F1EF1D130201E
:1006E000694608710C9E012E0ADB012301AA02A9AA
:1006F000249800F038FE002800D022E6761EF4D1BF
:1007000002A838300078400700D4EBE42020694686
:1007100008710098012800DAE4E4009E012301AA90
:1007200002A9249800F01FFE002800D009E6761EDA
:1007300000D1D7E4F2E70A00622822D0682819D055
:100740006A2808D06C2823D0712804D074281FD0C0
:100750007A2808D01CE01368DB1D07208343136050
:1007600003CB13607047116811600868091D1160A0
:1007700000217047116811600868091D116000B2FE
:100780000BE0116811600868091D116040B204E0B7
:10079000116811600868091D1160C11770470000D9
:1007A000F4B59AB007000C00206B002800D50E4865
:1007B000039000F01CFE616B08180690094878440D
:1007C000223003C807AA03C23820205C400702D4A5
:1007D000069841280AD209A80290402006900020DD
:1007E000059012E054260000FFFFFF7F00F004FE9A
:1007F00002900028F3D10020C04361E11A98801CC8
:100800001A9003980199401A03900398012800DA7E
:10081000D0E007AA1A98018800A8401C00F048FE02
:100820000190002800D5E2E01A980088002804D141
:100830000198401E019000D5D9E0039801998842A3
:1008400000DAB7E060690699019A8218914200D3F4
:100850009FE0002161634142206A081AA169401AA1
:10086000616A401AE169401AA16A401A049038206E
:10087000205C400711D420206946087004980128A4
:100880000BDB049D01236A462100380000F06BFD5C
:10089000002800D0ABE06D1EF4D16669029D002EE9
:1008A0000CD02978A068B847A060002800D19EE04D
:1008B000E06A401CE0626D1C761EF2D13020694671
:1008C0000870256A012D0ADB01236A4621003800E1
:1008D00000F049FD002800D089E06D1EF4D1E568E4
:1008E000A669002E0BD02978A068B847A060002820
:1008F0007DD0E06A401CE0626D1C761EF3D1302092
:1009000069460870656A012D09DB01236A462100EA
:10091000380000F028FD002869D16D1EF5D1E0688F
:10092000A1694518E669002E0BD02978A068B84760
:10093000A06000285BD0E06A401CE0626D1C761E5F
:10094000F3D1302069460870A56A012D09DB012327
:100950006A462100380000F006FD002847D16D1ED0
:10096000F5D13820205C400710D52020694608705A
:10097000049801280ADB049D01236A4621003800FF
:1009800000F0F1FC002832D16D1EF5D10020059059
:100990006061019A00A9491C02986369C01800F0BF
:1009A00093FD60690199401860611A9800880028D9
:1009B00000D023E7059800287BD1606B6169401A5D
:1009C000216A401AA169401A616A401AE169401A15
:1009D000A16A461A3820205C400711D4012E0FDB93
:1009E00035002021A068B847A060002803D100206E
:1009F000C04305905DE0E06A401CE0626D1EF0D1EE
:100A00006369029A2100380000F0ADFC0028EED1A5
:100A1000256A012D0ADB3021A068B847A0600028B4
:100A2000E5D0E06A401CE0626D1EF4D1A369E26883
:100A30002100380000F097FC0028D8D1656A012D0C
:100A40000ADB3021A068B847A0600028CFD0E06A58
:100A5000401CE0626D1EF4D1E369E068A1694218B0
:100A60002100380000F07FFC0028C0D1A56A012DCC
:100A70000ADB3021A068B847A0600028B7D0E06A40
:100A8000401CE0626D1EF4D13820205C40070DD57B
:100A9000012E0BDB35002021A068B847A06000289C
:100AA000A5D0E06A401CE0626D1EF4D100206061B8
:100AB0006063029809A9884201D000F033FD0598CF
:100AC0001BB0F0BDF3B583B0006900906846027CAE
:100AD0006F2A01D1082406E020211143782901D092
:100AE0000A2400E010243C25039803C806000F00E8
:100AF000642A01D0692A07D1002905DA00200021E3
:100B0000801BB94106000F00002F12D1002E10D11A
:100B10000398006B00280CD1082C3CD10398383086
:100B20000078000737D53B25302000993B3108700D
:100B300031E06D1E0195300039002200E31700F00E
:100B400035FD3032D2B23A2A03DB6846007C513898
:100B5000121800984255300039002200E31700F0C7
:100B600025FD06000F0001D1002E05D00398C068B6
:100B7000009949198842DCD3082C0CD103983830ED
:100B80000078000707D50098405D302803D06D1E1F
:100B90003020009948553C20401B039988610099FA
:100BA0004919039AD1600399096B884209DA081A36
:100BB000039908620398008F0E490140039801874A
:100BC00015E0002913D503993831097814220A4019
:100BD000102A0CD10399496B039A5269891A039A16
:100BE000126A891A0D1A012D01DB0398056205B0FE
:100BF000F0BD0000EFFF0000F3B591B006AD03C8F3
:100C000002AA03C212A800782021014300916129A1
:100C10000BD01198006B002801D5062003E004D109
:100C2000672902D101201199086311984168480091
:100C3000400DAB4A904225D1080310D111980068AD
:100C400000280CD103201199886112A8007861381E
:100C50001A2842D3234878448A3000900BE00320BE
:100C60001199886112A8007861381A2831D31E487A
:100C7000784474300090032200991198C06800F005
:100C800023FCF9E1012817DA119800F0C4FC0128CF
:100C900012DB002700260098612832D11198C06825
:100CA00030210170401C411C119AD16012A90978B1
:100CB00061291FD178211EE011994968894A0A40AB
:100CC00089491143119A51608849461A0027FF4308
:100CD000E1E7064878441430CCE705487844103002
:100CE000BBE700BF682100005C2100005421000028
:100CF000582100005821017011984069801C1199F9
:100D00004861002F03D1002468468780AAE100983B
:100D1000612800D0A1E01198046B002C01D521249A
:100D200000E0641C24B2601C0090119803C804AA5F
:100D300003C202A803C80022002300F08EFC04A80E
:100D400003C802D280221206514002AA03C2301FF9
:100D50006946888000270F7606AE761C0098012829
:100D600034DB02A803C80022002300F08FFC2DD240
:100D70001C2102A800F0A4FC02A803C800F02EFD6C
:100D800005000098C01F009001280ADB280000F031
:100D90004FFD02000B0002A803C800F0C0FD02AA2C
:100DA00003C2F61D072004E0761E2907090F3170E3
:100DB0002D11012D01DB401EF6D5401E02D4761EFA
:100DC0003770FAE7F61D00980128CADA06A8401C19
:100DD000311A06AD6D1CA14200DA0C0024B22000CD
:100DE00032D4884205DA06A909184978082900DBB7
:100DF0000F2706A9091801E0641E491E401E0A7843
:100E0000BA42F9D00F2F04D106A909184A78521C0A
:100E10004A70002806D506AD641C019800B2001D7A
:100E20006946888024B2601E0ED429180A783032B0
:100E3000D2B23A2A03DB12AB1B783A3BD2180A70C3
:100E4000401E491E0028F1D51198006B002800D4DF
:100E500008E1601E1199086304E102A803C800229A
:100E6000002300F0FAFB06D202A803C88022120673
:100E7000514002AA03C236B280487043804900F054
:100E8000DBFD694688800720019909B2421A0020DB
:100E90007C49012A20DB049202AA30CA00260F00F6
:100EA0000498C00707D532003B002000290000F05D
:100EB0001DFE04000D00049840100490300039001D
:100EC00032003B0000F012FE06000F0004980028DC
:100ED000E6D102A830C028E0544200266A4F18E04C
:100EE000FF070000FFFF0F800000E03FFE0300004F
:100EF000E00707D504A803C832003B0000F0F6FD68
:100F000006000F00641004A803C804AA0CCA00F06D
:100F1000EDFD04AA03C2002CEAD102A803C83200E6
:100F20003B0000F0A5FE02AA03C20098662803D188
:100F3000019800B20A3000E006201199096B0818E8
:100F40000490142801DB13200490302069460876B1
:100F500006AC641C0498012840DB02A803C800F01A
:100F60004FFC050008340594042428000A2100F0F1
:100F700066FD0F0028000A2100F061FD05003037F2
:100F80000598401E077028000A2100F058FD0F0048
:100F900028000A2100F053FD05000598801E0590E9
:100FA00030370770641EE0D1059C08340498083877
:100FB00004900128CEDB02A803C800F021FC00F059
:100FC00041FC02000B0002A803C800F0A8FC0022AC
:100FD0002E4B00F08BFD02AA03C2BEE706A8401C00
:100FE000201A06AD6D1C6A4605E0401E019909B243
:100FF000491E91806D1C29783029F6D00099662908
:1010000003D1019909B2491C04E0652901D10121EC
:1010100000E00021119A126B541824B2A04200DAA9
:10102000040024B221001DD4814204DA685C352812
:1010300001DB392000E030206A1800E0641E521EF7
:10104000491E13788342F9D0392802D1685C401CCC
:101050006854002906D56D1E641C019800B2401C1E
:1010600069468880019800B2009023B22A0012A835
:101070000178119800F00CF813B0F0BD97750000DE
:10108000A0860100000024400000F03F84D7974173
:10109000F3B589B014001D0000F065FE0090406AB1
:1010A0000078694608720998076B012D01DA01255D
:1010B000ACA40AA8017820200843109E662801D11C
:1010C000761C17E0672800D09EE00321C9438E42BA
:1010D00000DA9DE0BE4200DB9AE0761C09983830C9
:1010E0000078000702D4BD4200DA2F0036B2BF1BE1
:1010F00000D500270998C068019009988069019976
:101100000918009136B2012E2CDA401C3021009AC9
:101110001170012F04DA099938310978090704D5CB
:101120006946097A019A1154401C099988617042F4
:10113000874200DA7E4236B2704209994862BF198E
:10114000AF4200DA3D002DB20998C5612A002100A6
:101150000198099B9B69C01800F0B6F9781B0999A2
:101160008862E0E0B54220DA2A002100009800F011
:10117000ABF9099989694919099A9161701B099A12
:101180005062012F04DA099838300078000709D539
:101190006846007A099AD26850540998C069401C80
:1011A0000999C86109988762BDE032002100009862
:1011B00000F08AF9099880698019AD1B012F04DAC3
:1011C000099938310978090705D56946097A099AD4
:1011D000D2681154401C099988612DB2AF4200DADF
:1011E0003D002DB22A00A1190998C068099B9B698E
:1011F000C01800F069F90998806940190999886157
:10120000781B099948628EE0612914D1702015E09D
:10121000BD4205DA099938310978090700D42F0051
:101220007F1E00D500270AA80078672801D1652015
:1012300004E0452002E0412902D150200AA90870AB
:1012400009988069411C099A9161099AD2680192B2
:101250002278019B1A54641C0094012F04DA099827
:101260003830007800071CD5481C099A90616A46FE
:10127000127A019B5A54012F13DB6D1E2DB2AF421F
:1012800000DA3D002DB22A000099019B181800F0E9
:101290001BF909988069401909998861781B099997
:1012A00048620998C0680999896944180AA80078B1
:1012B0002070300003D42B206070A41C03E02D218B
:1012C0006170A41C4642002505AF08E00A2203A86D
:1012D00000F064FD04983870039E6D1C7F1C31B2D1
:1012E0000129F3DA022D08DA0AA800782021014347
:1012F000652902D130202070641C002D09D13020D6
:101300002070641C07E06D1E05A8405D3030207021
:10131000641C012DF7DA0998C06809998969401899
:10132000201A0999C86109983830007814210140C1
:10133000102914D1099840690999896940180999B7
:10134000496A40180999C96940180999896A401879
:101350000999496B884202DA081A099908620BB0A8
:10136000F0BD00003000F1B50E0014000027002B86
:101370000FD01D002178B068009A9047B060002817
:1013800006D0F06A401CF062641C6D1E01D0F1E7CB
:10139000FF433800F2BDF8B504000F0015001E0031
:1013A00000F00CFD33002A003900200000F01AFD87
:1013B000F2BDC9B200E0401C02788A4202D0002A85
:1013C000F9D100207047010000E0491C0A78002A8A
:1013D000FBD1081A7047C9B201E0401C521E002A16
:1013E00003D003788B42F8D170470020704780B556
:1013F00000F0E4FC012002BD70B505002C000F34A4
:1014000007208443C046C046A54233D2082C04D2EC
:10141000082402E0083000F085F824480268110032
:101420000CD1011D0A68002A20D01368A34212D2F1
:10143000111DF7E71D68A5420DD2191D0B68002B81
:10144000F8D11268011D00E0191D0B6893420DD000
:101450001D68A542F8D300290CD00D682A68130036
:10146000083BA3420AD26A680A600FE000F0D8FC89
:101470000028CFD1C046C046002070BD2B190B609C
:101480006E685E60121B0B681A602C600968002988
:1014900004D04A68002A01D0091D00E00021016043
:1014A000C046C0460835280070BD0000D40E00209C
:1014B00070B504000D00160000F080FC3200290019
:1014C000200000F085FC70BD124207D08B0706D0CB
:1014D0000B78491C0370401C521EF7D870478307D5
:1014E00006D00B78491C0370401C521EF9D170477E
:1014F00070B4103A03D378C9103A78C0FBD25307BE
:1015000001D318C918C001D508C908C0D20704D32F
:101510000B880380891C801C002A01D50B7803707E
:1015200070BC7047002800D1704738B508380400F7
:101530002068082836D3400734D1C046C0461A4830
:101540004168002901D08C4203D26160446019E0F7
:1015500019004B68002B01D0A342F9D30B68CD18BA
:10156000AC421DD3A54204D122689A180A600C002F
:1015700008E04A68002A03D02368E3189A420FD390
:1015800062604C60616800290AD02268A3188B420F
:1015900006D1002303600868101820604868606066
:1015A000C046C04631BD0000D40E0020124224D0F7
:1015B000994228D970B500251B4202D00C000021A9
:1015C00009E00024012649186441944200D3A41A7A
:1015D0007641F8D33100012601E0764109D20018A6
:1015E00064416D41A41A9D41F7D2A4185D41B6191A
:1015F000F5D3300022002B0070BD1B42D8D108B5B6
:10160000C046C04608BD01D19042D3D202000B00B3
:1016100000210020704730B401004B688022120680
:101620001A4001201B031B0B4B600BD10B68002BD6
:1016300008D10DE00B686400DD0F25434D605B00B1
:101640000B60401E4C68E302F4D523031B0B4B6078
:101650004B681A434A6030BC704730B401246405BB
:101660004D00EC420BD85D00EC4208D80C001C4346
:1016700064000443144304D2994200D1904230BC28
:101680007047FCD08B42FAD18242F8E730B4012493
:1016900064054D00EC420BD85D00EC4208D80C000C
:1016A0001C4364000443144304D28B4200D18242A1
:1016B00030BC7047FCD09942FAD19042F8E7FEE77F
:1016C00070B504000D0060684000400D3F4EB04210
:1016D00007D16068000302D12068002816D00220DC
:1016E00070BD002804D12000FFF795FF01286BDAB8
:1016F000012D0DDB311A8D420AD36068002802D516
:101700000020334901E00020310503C4012070BDF1
:101710004142A942616806DA2E4A0A4028180005AB
:101720001043606047E08022120611406268120395
:10173000120B80235B0313436360401E2D180020AF
:101740002A003532352A02D36160206070BD002244
:101750001E23DB439D4204DA203522686368236040
:101760006060684211D0521E9241D243D20F2023B2
:101770001B1A25689D402A432568C54066689E401F
:101780002E4326606368C3406360606808436060FE
:101790001148824206D28020000682420ED1207873
:1017A000C0070BD52068401C20602068002805D1A8
:1017B0006068401C60600020C04370BD6068884263
:1017C000F9D120680028F6D1002070BDFF07000085
:1017D0000000F0FFFFFF0F8001000080F4464A1870
:1017E00005D200F00FF801D580174008604700F0DF
:1017F00009F80121C907884200D908004042604722
:101800004A1812D2400DC90208430121C9070843F2
:10181000520D40210901521A521C06D452421F3265
:1018200001D4D0407047C017704700207047FEE7D2
:10183000010009D5F446404200F006F80122D20723
:1018400011436047010000BF42221201D21E004234
:1018500007D002D4521E0018FCD5C10A400512055B
:10186000891870478B4200D1824205D98446100006
:1018700062468C4619006346DF184C18640D7F0DD4
:101880003AD0661C760537D0E61B352E34DCDB02F9
:101890002B43DB0A0C0DC9022943C912202E0DDB94
:1018A0001700203E06D01F00F741F3405F4000269E
:1018B000012A7741C01871410DD217E01700F74196
:1018C000F2405740F3415A40B340F3405A4000269B
:1018D000801859410AD3A21C52050FD0C207012F0C
:1018E000724117004008CB0718434908641C2405BF
:1018F0004208AF4170416141F0BC7047641C210552
:101900000020F9E76B4010E06B40ABE7F742F3D102
:10191000E943F1E72442EFD100200021ECE7F0B4E5
:101920000125ED070F005F40EED40C00871A9C41A3
:1019300005D2C01BA141D219634169406B40AE0A78
:10194000DF184C18F442E1D2640D7F0DE2D0E61BA3
:10195000362ED1DCDB022B43DB0AA4460C0DC90278
:101960002943C90A012E28DC04D1D6075208DF0713
:101970003A435B08EF0A76429041994114D03942CC
:101980003BD1B61940414941761C394204D1761CFD
:10199000001849413942FAD0B9436746B74208D9DD
:1019A000A41B24052143A7E70042EAD13642E8D12F
:1019B000A2E7E40AE10700209EE7202E0BDD203E8F
:1019C0001F00F340F7415F40012A002257417E4249
:1019D000984191410BE01700F741F2405740F34125
:1019E0005A40B340F3405A407E42904199410A0325
:1019F00003D2641EB619404149410027641E2405E4
:101A00004208AE4178416141F0BC7047F44600287D
:101A100004D4494200F013F8404260474042002994
:101A200005D45FD000F00BF840424942604749427C
:101A300000F005F84942604703460B43E6D4002214
:101A4000030A8B420BD203098B4219D243088B4203
:101A50002ED2411A00D20146524110467047FF2251
:101A600009023FD012068B4205D3121209028B42A3
:101A700001D31212090203098B4219D300E0090AAB
:101A8000C3098B4201D3CB01C01A524183098B4257
:101A900001D38B01C01A524143098B4201D34B0140
:101AA000C01A524103098B4201D30B01C01A5241A3
:101AB000C3088B4201D3CB00C01A524183088B422A
:101AC00001D38B00C01A524143088B4201D34B0013
:101AD000C01A5241884200D3401A5241CFD2014627
:101AE0001046704708B5C046C04608BDF0B50E00A8
:101AF0005E400125ED072E40B446AE0ADF184C18B3
:101B0000F44208D2F7420ED2640D01D07F0D12D1FB
:101B100000206146F0BD05D1F74201D87F0D05D107
:101B20000020C143F0BDFBD1640DF9D00020C143BA
:101B3000490549088FE0E419C902DB0229432B4318
:101B4000DB0A460DC00231438E4630B487B295B2EF
:101B50007D432E0CADB2140C7C43A419260C240436
:101B600025439CB27C43A419190C7943270CC9194D
:101B7000A4B20F043C43090C000C97B247432E0C4F
:101B8000BE193543ADB2170C4743360CBF19A6B288
:101B9000BF193E043543240C3E0C36199FB247430F
:101BA000BF19BCB23E0C89191F0C47437F183E0475
:101BB0003443390C704680B297B247432E0CBE199D
:101BC0003543ADB2170C4743360CBF19A6B2BF1947
:101BD0003E043543240C3E0C36199FB24743BF19CF
:101BE000BCB23E0C89191F0C47437F183E04344396
:101BF000390C77463F0C90B278432E0C80190604BE
:101C0000ADB22E43050CA0B22D18120C7A43501918
:101C1000020C80B2240CA4189AB27A43121914044C
:101C20002043120C89181B0C7B43C91830BCEF0AE7
:101C3000394203D1B61940414941641E6F12BF0DAC
:101C4000E41B0BDBFF19BC4211DA24050027420814
:101C5000AE417841614166463143F0BD641C05D117
:101C6000401C6141CF0201D34908F4E750E75DE72A
:101C7000F0B40E005E400125ED072E40B446AE0ADA
:101C8000DF184C18F4423BD2F74241D2640D43D0E6
:101C90007F0D38D0E41BC902DB0229432B43CF0A56
:101CA000DB0A0600B61A9F4104D2641EB6197F41B2
:101CB000B6185F416812800D24180018844222DA99
:101CC000E80C0021B6197F41B61A9F4102D2B6181E
:101CD0005F413F1C40414941F4D3241C21DD2405D0
:101CE000B6197F41B61A9F4105D33743C60737431C
:101CF0000026012F7041614166463143F0BC7047B8
:101D0000FCD1F74205D20020C14349054908F3E759
:101D100004D00020C143F1E77F0DFAD000206146D6
:101D2000ECE72442FAD1401C61410F03F6D30020B6
:101D3000E2E7FEE780B51248C046C04611A1016047
:101D400041608160C1600161416181610EA24262B6
:101D50008162C162016341630CA282630DA2C2630E
:101D60000164416401BD10B50548C046C046040089
:101D70002068002801D1FFF7DDFF200010BD000022
:101D800018010020000000002E00000066616C7346
:101D90006500000074727565000000007CB50400E9
:101DA0000E00150030002900FFF746FE0090454365
:101DB000701B0190684603C803C476BD80B5034814
:101DC000C046C046806902BD00000000A801002096
:101DD000002804D10EA003C803C200207047017080
:101DE00001207047002904D10BA003C803C30020C1
:101DF0007047002A02D10120C0437047002801D05B
:101E00000A7802800978481E8041C043C00F70479D
:101E100000000000000000000000000000000000C2
:101E200007490868002801D00020704705480722AC
:101E30009043086004499143091A0160704700BF4C
:101E4000DC0E00201F0A0020180C0020405800283B
:101E500004E0C122920080580140080000D0012017
:101E6000C0B27047894BC018826001607047A123DF
:101E7000DB00C01801608260704752000A4399007D
:101E80001143009A12020A43019909041143804A3E
:101E900080001150704700B583B00021019100917E
:101EA000002301220121FFF7E8FF07BD00B583B041
:101EB0000022019200920B000021FFF7DEFF07BD18
:101EC000F1B50C0020680125724F0026F643B042A0
:101ED00005D00121814039602068FFF7DCFF606890
:101EE000B04202D00021FFF7E1FF009800686A4984
:101EF0004118A2690A60627D237D13438B64626886
:101F00002168FFF7AFFF207D012813D1A068B04200
:101F100002D00021FFF7CAFFE068B04204D085403C
:101F20003D60E068FFF7B7FFA268E16800980068CD
:101F3000FFF79DFFF1BD80B500688E225200821828
:101F4000002313609362904AC1239B00C250000398
:101F5000001600F021FA01BDF8B506000C001700CC
:101F6000AC4831791C2251434518E87E002801D045
:101F70000820F2BD21003000FFF7A2FF6F6020694A
:101F800028606868002803D0217F3000FFF7D3FF66
:101F900004203168A022D20088500020E8752876FD
:101FA000A8750121E976A876F2BD00228E235B0098
:101FB000C2508A688B8AD25C8B8A5B1C8B82A44954
:101FC00042507047F8B50700924839791C225143B6
:101FD000441800200090386800218E225200815061
:101FE000012181602100FFF7E0FF6068002829D10E
:101FF00080256D008E2676000FE031003868FFF7EF
:1020000025FF002802D1A08AA842F6D1A08AA842C2
:1020100003D021003868FFF7C8FFA08AA17D88425D
:10202000EBD3A08AA84202D10F20009008E0310033
:102030003868FFF70BFF0028F9D001203968C86025
:102040000020A0750098F2BDF8B504000F0015003F
:10205000704821791C2251434618200000F00BF8EB
:10206000002801D01120F2BDB575B760B082200004
:10207000FFF7A8FFF2BD674900791C2250430818FA
:10208000807D002800D00120704700000C05000072
:102090000007005008050050240500000068842156
:1020A000490041180022CA610A600121016070479D
:1020B00010B5A322D200821884235B00C01800232D
:1020C000CC7D002C036001D1106810BD487E1268E1
:1020D000CB681A54487E401C487610BDF1B5AC4818
:1020E000009909791C2251434718B87E034302D155
:1020F0000098FFF7D3FF00980068796800293BD16A
:10210000A222520081509221490000980068FFF7F6
:102110009DFE06008421490000980068FFF796FEA6
:102120000400A221490000980068FFF78FFE050017
:10213000204331000143E6D02900314308D1390062
:1021400000980068FFF7B4FF787EF97D8842DAD303
:102150000020F875002E01D00320F2BD002D01D023
:102160000F20F2BD009800680121BA7E002A01D03C
:10217000016006E0416004E081218900C1229200F3
:1021800081500020F2BD000080000200F2B58049BD
:1021900003791C246343C918002400238125AD0062
:1021A0004E68002E04D00668C127BF00F61975607E
:1021B000CE7D002E10D00B7E002B08D04968002960
:1021C00003D00068C121890045501120F2BD0123D0
:1021D000009C0C610A7604E0CA75009DCD604C76C7
:1021E0000C760099FFF77AFFF2BD000038B50400C5
:1021F000674D20791C2148432818807E002808D18B
:102200002000FFF74BFF20791C21484328180121AB
:10221000817631BDB80E00201FB503006846012449
:1022200004700172019219685A6890471FBD00B589
:1022300085B0020000206B461870197291680191F8
:102240009075116868465268904705B000BD00005F
:102250001C050000F0B585B006000C008125AD001E
:10226000002780218900FFF7F4FD002826D0922165
:1022700049003000FFF7EAFD00281FD08E20400003
:1022800030188760C22080003550A07E002801D120
:10229000012070606846022101709021C900711808
:1022A0000A680A600392E17D0172E0680190E775B7
:1022B000277621686846626890472DE00421300047
:1022C000FFF7C7FD002827D0842149003000FFF721
:1022D000BDFD002820D021003000FFF7E9FEE07DA1
:1022E000617E884218D1207E002807D0E268617E96
:1022F000E0752069E060277667760AE0A07E002816
:1023000001D101207060C22080003550E775E2687D
:10231000617E2000FFF780FF8E2149003000FFF72B
:1023200095FD002811D0A08AA17D884204D2210009
:102330003000FFF73AFE08E08E2040003750A17DC4
:10234000002902D02000FFF772FFA22149003000CF
:10235000FFF77CFD002811D08E20400030188762E6
:10236000A07E002801D001203060E07D002805D04B
:10237000E775E268617E2000FFF74EFF05B0F0BD13
:1023800080B503490348FFF765FF01BD0000000069
:10239000B80E00200020004010B58207D30EFF24A5
:1023A0009C40E2438907090E9940030005D50B4C78
:1023B00003071B0F083B9B0801E0094C83089B00A7
:1023C000E3181C682240114319600121C006C00EA9
:1023D0008140044801600448016010BD1CED00E02C
:1023E00000E400E080E200E000E100E030B583B00E
:1023F0006F4C0178002934D0022926D047D240689A
:102400000178201D00F01AF961690125002803D028
:102410006A461570019006E0E0682269101A04D03F
:1024200000206A46107068468847E0682189226962
:10243000101A814207D30122210019311C342000D7
:10244000FFF7A4FE37BD257037BD6A461170C0681E
:10245000019001222100193120001C30FFF796FE67
:1024600012E0210018312000243000F0F4F8002898
:1024700007D10122210018311C342000FFF7E4FDB0
:1024800037BD03206946087068466169884737BDD3
:10249000F0B589B006000D001F00454C6261002DAB
:1024A00001D1072047E06A6892B22968201D00F038
:1024B000B0F800283FD1EA6892B2A9682000243021
:1024C00000F0A7F8002836D1684600BF3AA12022C4
:1024D000FFF70EF870690690307C002800D00120CC
:1024E000694608750F770025707C002800D00E2003
:1024F0004875F0680290B068039030680190706889
:1025000000902C4A20001C30FFF726FD002812D135
:10251000257030680021C94388420BD020001C3050
:10252000FFF764FE0122210019311C342000FFF75F
:102530002DFE00E0002009B0F0BD70B51C4C2578E0
:102540000100201D00F087F80600002D0CD00020AF
:1025500020700122210019311C342000FFF716FEE3
:10256000002801D000F082F8300070BD38B5104C62
:1025700001002000243000F061F8050015D1200092
:102580001C30FFF778FD00280FD121001831200002
:10259000243000F060F8002807D101222100183112
:1025A0001C342000FFF750FD0500280032BD00005C
:1025B00000000020ED230000FFFFFFFFFFFFFFFFF3
:1025C000FFFFFFFFFFFFFFFF000000000000000013
:1025D00000E0D7010300000010B50268C3688488DA
:1025E0002340D154C168491CC16010BD10B50368B7
:1025F0008468611880880140585C107010BD10B567
:1026000004000A000021FFF7F1FFA068401CA06051
:1026100010BD10B5002901D10E2010BD002A03D035
:10262000531E14001C4001D0092010BD0160511E32
:10263000818000218160C160002010BD10B58268DA
:10264000C36884889A1A944203D3FFF7C5FF002019
:1026500010BD042010BD80B58268C3689A1A03D0EB
:10266000FFF7CDFF002002BD052002BD10B584B0EC
:10267000040068460C2100F021F802946A4600210B
:10268000014800F01DF81FBD01400000130030B4E8
:1026900014001500103902D310393CC0FCD2490790
:1026A00000D30CC000D504C0890002D30280801C76
:1026B000002900D5027030BC704700000022E5E719
:1026C000BFF34F8F034804490860BFF34F8F00BF2B
:1026D000FDE700BF0400FA050CED00E0F8B50400CA
:1026E0000E001500207880075CD0200000F09EF8D6
:1026F000002857D1002E02D003CE083E2D18009896
:1027000001283CD12088C00416D522003D32A169A1
:10271000200000F0ABF80700626A002A00D12269AD
:10272000E168200000F0A2F8E91B0D1AA26AE16836
:10273000200000F09BF82D1A002D28D12088C02100
:10274000890108420ED06068E0602061A06260618B
:102750006068E06220003D30A06120002430E0612C
:1027600000206062002E04D0083603CE22003032F2
:1027700003C220880F49014021800020F2BD0228B9
:1027800005D000280AD10020C04385420AD0009A13
:102790002900032020560020C04305000020C0432C
:1027A0008542CBD100F068F8232101600020C043AE
:1027B000F2BD00BFFFCE000070B5C046C0460400A9
:1027C000208880042DD565680026F64308E04A1B62
:1027D000290000F059F8B0420DD000280BD02D1878
:1027E00003202056E1688D42F1D30022002100F041
:1027F0004BF8B0420DD16068E0606061E062208813
:1028000080218900014321802000C046C04630005D
:1028100070BD6568E5606561E56220881149014029
:1028200021802000C046C046002070BDF8B50028B9
:1028300015D1C046C04600240B4D08260027FF4393
:102840002868002804D0FFF7B7FF002800D53C0017
:102850002D1D761EF4D1C046C0462000F2BDFFF704
:10286000ABFFF2BDFFDF0000F8000020914201D273
:10287000501A70470020704780B50248C046C046D5
:1028800002BD00001402002070B50C0015000026E7
:1028900004E02078FFF76AFE641C761CAE42F8D391
:1028A000280070BD10B5F0200F2228490B78012BAD
:1028B0001BD14B68134018D18B68034202D1CC68FE
:1028C00004400CD0F0241C40102C02D1CC680440F1
:1028D00005D00340302B08D1CB68034005D11C4BF9
:1028E0001C4C2360E30B1C4C23600B78012B0CD198
:1028F0004B68134009D18B680340402B05D1CB684E
:10290000034002D10123154C23600B78012B1BD10E
:102910004B681A4018D18A68F0231340A02B02D1CB
:10292000CB68034005D00240D02A0DD1C9680840C9
:102930000AD10B480168012904D00A4901600168E5
:102940000129FCD1C021416110BD0000E00F00F061
:10295000DFFF07C004050040186C00400806004077
:1029600000EC06407593000038B50400E06861692A
:10297000884254D321882B4A0A40022A09D00804ED
:1029800002D58020800001E08420C001084320801F
:102990003FE0C025ED012940A94207D1A168884246
:1029A00004D32000FFF742FF002832D12088E90835
:1029B00008421ED1616820003D30814219D180203B
:1029C0008000FEF719FD6060002806D120003D3030
:1029D0006060E060401CA0600BE0218840220A4358
:1029E0002280E060802189004118A160A0626068B7
:1029F000E06260682061A0686061207840070BD5C4
:102A000002220021200000F00FF80021C943884273
:102A100002D10020C04332BD20880543258000201C
:102A200032BD00BF0290000070B50D001600C04618
:102A3000C046040033002A000021FFF74FFE0500C6
:102A40002000C046C046280070BDFEE780B5017872
:102A5000022901D0012902D14068FFF707FE01BD1C
:102A600000B58BB000F078F805A800BF18A11822B7
:102A7000FEF73EFD14480190802149000291401864
:102A8000039004910323114A01A905A8FFF700FD53
:102A9000002801D0FFF7EAFD13A000F075F86846A2
:102AA000FFF74BFD0028FAD168460078FFF75EFD7E
:102AB0000028F9D168460078712801D05128EED15C
:102AC0000CA000F061F8FEE7180C00204D2A000071
:102AD0000B00000009000000080000000A000000D0
:102AE0000100000000E0D7010D0A53746172743ACE
:102AF000200D0A00200D0A45786974210D0A000096
:102B000052000A4399001143009A12020A430199A4
:102B1000090411430E4A800011507047012282407F
:102B20000C48002901D142607047026070470000E4
:102B300080B5012112A2105CFFF7F0FF01BD10B5B6
:102B400000242000FFF7F4FF641C052CF9D310BD0E
:102B5000000700500805005030B583B0002400BFC6
:102B600007A5002001900090002301220121285D8B
:102B7000FFF7C6FF641C052CF3D3FFF7E0FF37BD5A
:102B800012131415160000000EB400B582B003A98C
:102B900000916B4602000121034878440A30FDF79A
:102BA0008FFA029906B008473103000010B50021E2
:102BB0000278120626D50023214A1468844202D1E5
:102BC0009B00D1501BE0012354688442F8D00223BB
:102BD00094688442F4D00323D4688442F0D0042360
:102BE00014698442ECD0052354698442E8D006235A
:102BF00094698442E4D00723D4698442E0D0FEF78C
:102C000091FC10BD0180C943C17001003D3141609C
:102C100001003D31C16001003D31016101003D31E4
:102C2000816201003D31416101003D31C16201001D
:102C30003D31816101002431C16110BD00000000FF
:102C4000F800002070B504002078800703D003202E
:102C50002056002809D5C046C0462000FFF7A6FF31
:102C6000C046C0460026F64329E02000FFF7DEFDFF
:102C70000600C046C0462078400602D56068FEF7D0
:102C800051FC0025656003202056022805D900204C
:102C9000C046002801D00026F643A06B002809D0CA
:102CA0000020C046002801D00026F643A06BFEF7A6
:102CB00039FCA5632000FFF779FFC046C04630000D
:102CC00070BDFEE710B5184C2068002801D0FFF752
:102CD000B9FF6068002801D0FFF7B4FFA0680028A2
:102CE00001D0FFF7AFFFE068002801D0FFF7AAFF8F
:102CF0002069002801D0FFF7A5FF6069002801D0F6
:102D0000FFF7A0FFA069002801D0FFF79BFFE06953
:102D1000002801D0FFF796FF002200210020C043C9
:102D2000FFF7B2FD10BD00BFF800002038B5040069
:102D30000800C046C0460500E8686969884204D3B7
:102D40002800FFF711FE002810D4E868411CE96054
:102D500004702888010504D440050DD5E4B20A2C7E
:102D60000AD12800FFF762FD002805D02800C046E0
:102D7000C0460020C04332BD2800C046C046E0B275
:102D800032BD70B40121002313E00468001D0C4221
:102D900002D04D466D1E64192360241D121F042AA3
:102DA000FAD22500960701D52380AD1C0A4000D039
:102DB0002B700268001D002AE7D170BC704730B547
:102DC00001684118446862088A188368E40701D5DD
:102DD0004C461B190C30914200D130BD0C7864B2C6
:102DE000491C0D78491C1D705B1C002C02D5641C0D
:102DF000F9D1F0E7641EF4D5EDE7FEE703210648BC
:102E000002680A430260054802680A4302600448F7
:102E10008047044800470000240500405405004056
:102E2000A5280000012F00000000000000000000A5
:102E3000686A6C747A4C000000000000000000001A
:102E40006E616E004E414E00696E6600494E46004E
:102E500010B5074979441831064C7C44163404E017
:102E6000081D0A68891888470100A142F8D110BDE1
:102E700008000000240000000BFFFFFFC802000054
:102E8000180C00200000000037FFFFFFA800000022
:102E90001A010000000000200120C046002801D0D7
:102EA000FFF7D6FF0020C046C046FFF7D9FD00F06F
:102EB00000F880B500F002F801BDFEE70746FFF715
:102EC00001FF384600F002F8FBE7FEE72021090386
:102ED00026311820ABBEF9E738B505000C002000FC
:102EE00000F006F8A04200D00025280032BDFEE721
:102EF00080B50249FFF71AFF02BD00BF780000202D
:102F0000C046C046C046C046FFF7C6FFFEE7FEE724
:102F1000FEE7FEE7FEE7FEE7FEE7FEE7FEE7FEE789
:102F2000FEE7FEE7FEE7FEE7FEE7FEE7FEE7FEE779
:102F3000FEE7FEE7E30002200040EB002224F4005D
:102F400001040000750000207600002075000020BC
:102F50007500002075000020750000205C00002036
:102F6000E0001F02040101680E0020B80E00206876
:102F70000E0020680E0020680E0020B50000209C86
:102F8000000020E0001F02080202180E0020680E58
:102F90000020180E0020180E0020180E0020F5004A
:102FA0000020DC000020E0000B380000207800004A
:102FB00020B8000020D000F8FFDC00FAFF8100CD2F
:012FC0000010
:0400000500002F01C7
:00000001FF
