:020000040001F9
:10B00000C8340020D5B00100EFB00100F1B001005C
:10B010000000000000000000000000000000000030
:10B02000000000000000000000000000F3B001007C
:10B030000000000000000000F5B00100F7B00100C2
:10B04000FDB30100F9B0010039B50100F9B001000C
:10B05000F9B001000000000041B20100F9B00100A8
:10B06000F9B00100F9B00100F9B00100F9B0010038
:10B07000F9B00100F9B00100F9B00100F9B0010028
:10B08000F9B0010051B40100F9B00100F9B00100BC
:10B0900071B40100F9B0010079B40100F9B0010008
:10B0A000F9B00100F9B0010000000000000000004C
:10B0B0000000000000000000000000000000000090
:10B0C0000348854600F07EF80048004721EB010068
:10B0D000C83400200321094802680A430260084876
:10B0E00002680A4302600748804707480047FEE7B6
:10B0F000FEE7FEE7FEE7FEE7FEE70000240500406E
:10B100005405004099B40100C1B0010030B50B46B0
:10B11000014600202022012409E00D46D5409D4231
:10B1200005D31D469540491B2546954040191546B7
:10B13000521E002DF1DC30BD10B5431A934209D2E6
:10B140008318881803E0401E01785B1E1970521E98
:10B15000F9D210BD03460B439B0703D009E008C991
:10B16000121F08C0042AFAD203E00B780370401CB7
:10B17000491C521EF9D210BDD2B201E00270401C2F
:10B18000491EFBD270470022F6E710B513460A4667
:10B1900004461946FFF7F0FF204610BD421C017817
:10B1A000401C0029FBD1801A704730B504460020AE
:10B1B000034600E05B1C934203D2E05CCD5C401B85
:10B1C000F8D030BD064C0125064E05E0E36807CCFB
:10B1D0002B430C3C98471034B442F7D3FFF774FF6D
:10B1E000901F0200B01F020070B58C180578401C3B
:10B1F0006B075B0F01D10378401C2A1106D102783E
:10B20000401C03E006780E70401C491C5B1EF9D1FF
:10B210002B0705D40023521E0DD40B70491CFAE7EE
:10B220000378401CCB1A921C03E01D780D70491C5A
:10B230005B1C521EF9D5A142D8D3002070BD00007E
:10B24000F0B50024FF268BB0013601252746069471
:10B25000304603F083FE002807D054484068284257
:10B2600003D0304603F072FE2C43361D6D007F1C68
:10B27000B6B2042FECD3FF257D35284603F06EFED1
:10B28000002809D0284603F061FE6807044306AA97
:10B290000121002003F046FE454D200714D0012770
:10B2A000002627420CD04348B200111808690969EA
:10B2B000C004C00E8903AA58890F002A00D0904705
:10B2C0007F00761C042EECD3002C6DDA0020089051
:10B2D000401E63E0281940300778B906890E0091B6
:10B2E00000214156491C49D009A9009803F04CFDA2
:10B2F000002843D0B8090190009801F0A5FC800017
:10B300002F580198002F02D0032802D00DE0032807
:10B3100034D1009808ABC20841079446985C490FA5
:10B3200001228A401043624698540098052109077B
:10B3300080004018072109024018006806A9800310
:10B34000800F0290009803F01FFD0028029802D0A1
:10B35000022802D012E0032810D10198032808D156
:10B36000029802281ED00221009803F0BEFD761C30
:10B37000F6B2002F02D001990098B847641C042C43
:10B38000A8D3002E10D06A460121002003F0CAFD88
:10B3900006990098884207D00690089800263446FF
:10B3A000099097E70321DFE70BB0F0BD0063004091
:10B3B000E02A0020006500408307FF22DB0E9A4050
:10B3C0008907090E994000280BDA0007000F08389A
:10B3D000830808489B001818C36993430B43C36153
:10B3E0007047830804489B001B1818689043084363
:10B3F0001860704700ED00E000E400E0F8B5FF20C1
:10B40000013003F0CCFC002401250E4E0E4F002825
:10B4100007D00E4804600120B0607D70002001F06C
:10B42000A1FCFF20053003F0BAFC002808D0074833
:10B43000001D04600220B060BD70012001F092FC8C
:10B44000F8BD000000030040CC2A002000010040AD
:10B4500010B506490020086048608860C86003494C
:10B4600040390860486006F087F910BD401101407E
:10B4700010B506F0F3F810BD10B506484068002876
:10B4800005D08047002801D000F0F6F910BD02F089
:10B49000F7FF10BD8021002010B503F03FF8002811
:10B4A00005D01F491D484860C8131E4988611E48C1
:10B4B000018CC9B201290BD1828C120708D1028DEF
:10B4C0001206120F042A03D1828D1206120F0AD01F
:10B4D000012921D1818C09071ED1018D0906090F8F
:10B4E0000A2904D007E0114A01219160F5E7828D15
:10B4F0001206120F05D00D290ED1808D0006000F07
:10B500000AD10B480168012904D00A490160016889
:10B510000129FCD1C021416110BD0000DFFF07C03F
:10B5200000050040006C0040C00F00F00006004025
:10B5300000EC06407593000010B50249024806F081
:10B54000B6F910BD282B00200020004030B474460E
:10B55000641E2578641CAB4200D21D46635D5B000F
:10B56000E31830BC184702E008C8121F08C1002ABF
:10B57000FAD170477047002001E001C1121F002A74
:10B58000FBD17047202804DA0121814003480142A1
:10B5900001D001207047002070470000FC06FFBC6E
:10B5A00010B500280CD000290AD002780B789A42F6
:10B5B00006D10622401C491CFFF7F7FD002801D0E8
:10B5C000002010BD012010BDF7B584B0064600254F
:10B5D0001788158020300290407B1446002806D042
:10B5E0003A462146059800F011FF050009D1B078D0
:10B5F000002823D0059886462088001DB84202D92D
:10B600000C2007B0F0BD684679DF0028F9D1218809
:10B6100003207246505420881921401C80B220809B
:10B62000115420887146401C80B220804118684621
:10B63000008806F0D0F9218840182080F078002892
:10B6400017D0218803230A46F356C91C0598B9422E
:10B65000D6D80221815421880122491C89B2218037
:10B6600042542188491C89B2218043542088401CBF
:10B6700020807068002817D021880023C3560A460E
:10B68000C91C0598B942BBD80221815421880A22DD
:10B69000491C89B2218042542188491C89B22180E9
:10B6A00043542088401C2080308900280AD0009410
:10B6B00030460197062202210830059B06F0E4F986
:10B6C00005009ED1308A00280AD0009430460197A8
:10B6D000072203211030059B06F0D6F9050090D112
:10B6E000308B00280AD0009430460197152214218F
:10B6F0001830059B06F0C8F9050082D1306A002891
:10B7000006D03B462246059901F094FB0500D8D1AE
:10B71000706A002806D03B462246059903F068FA75
:10B720000500CED10298007B002807D03B46224678
:10B730003046059905F092FB0500C2D1307800280B
:10B7400007D03B4622463046059903F085FA0500AE
:10B75000B7D1284655E70000174A0021535C002B5B
:10B7600001D0012203E0491C0629F7D30022134926
:10B77000012806D002280BD0032810D0042818D1A5
:10B7800012E04878002803D0002A01D00120704739
:10B790008878002803D0002A01D002207047C8789A
:10B7A000002801D0032070470879002801D0042028
:10B7B0007047002070470000612000208424002092
:10B7C00010B501220221002001F044F9002801D027
:10B7D000072812D107220221012001F03BF900289D
:10B7E00001D0072809D100210A22084601F032F9C8
:10B7F000002801D0072800D1002010BD10B503207B
:10B8000000F082FB002801D000F036F810BDF0B542
:10B810000F468DB0002116466D460F24621A825CD9
:10B820006A54491C1029F9D328460D211030FFF71E
:10B83000AAFC0020221A395C5219401C11740328FA
:10B84000F8D368464DDF0020211A491920310978C4
:10B850003154401C0328F7D30DB0F0BDBFF34F8F18
:10B8600004490348C860BFF34F8F00BFFDE70000E5
:10B870000400FA0500ED00E00EB5002102900091F1
:10B880006A4601910148FFF7E9FF0EBD0140000043
:10B89000094B5B68002B07D0002A07D0002805D091
:10B8A0000068037C002B03D00820704707207047F6
:10B8B000417442610020704748210020FFB50746CF
:10B8C0009007002581B01E461446002825D1002C83
:10B8D00023D004F0C9FF3046114EF06030461030DE
:10B8E000057045700299817044607560357001245F
:10B8F0000C4875702405046003211420FFF75CFDDB
:10B9000009480460094CA76003211120FFF754FD8A
:10B910006068B060002005B0F0BD0720FBE70000C4
:10B920003821002080E200E000E100E00015014045
:10B93000FEB51F4B5B68002B30D000282ED00529A8
:10B9400001D20720FEBD4369002B27D0437C012B89
:10B9500026D00027029104460025694616460D7040
:10B96000684600F03DF801A806F078F8002819D0E4
:10B97000012101700F4944604968816002990761A3
:10B980004661C16068460A49007948706846007897
:10B9900000F044F805F0A4FE2846FEBD0820FEBDD8
:10B9A0000F46D7E768460425007800F037F8F3E73C
:10B9B000482100200015014010B5084949680029B8
:10B9C0000AD0002808D04169002905D0002101745F
:10B9D000022105F0ADFE10BD082010BD4821002059
:10B9E00030B5EFF3108172B6094A54680123002C78
:10B9F00004D00370002900D162B630BD5360054BFE
:10BA00001D68054C254015601C6000220270F1E79E
:10BA10005C21002080E100E0FC06FFBC08494A6888
:10BA2000002A0CD000280AD1EFF3108072B60A6801
:10BA3000044B1A6000224A60002800D162B67047A9
:10BA40005C21002000E100E010B5144C012100222F
:10BA500009042068FFF76CFF002801D0FFF70CFFF6
:10BA600001210022C9036068FFF762FF002801D0AE
:10BA7000FFF702FF00220A49A068FFF759FF0028DC
:10BA800001D0FFF7F9FE05210022C903E068FFF7A6
:10BA90004FFF002801D0FFF7EFFE10BDA81E0200E7
:10BAA00066260000F0B504468BB0008800F04AFC22
:10BAB0000590208802F052FC0646A0680090657A46
:10BAC000684605741E4F20880022397800F08AFCF1
:10BAD0000598002831D06079400710D507213046FD
:10BAE00003F0F0FD002813D0082269460A7422886A
:10BAF0004A828E82069004A801F01EFB08E020888E
:10BB0000B97800F05DFC002802D0304602F010FC4D
:10BB10000321684601712188C18060794007C10F07
:10BB200068460172A0794007C10F684641720178EA
:10BB30008172C57201A801F0FFFA0BB0F0BD0000E0
:10BB4000D4200020F0B50546007D002493B00E46B9
:10BB500000280DD00120014668461031039401737E
:10BB6000717B4173817BF92001406846891C817398
:10BB70001C2104A8FFF707FB6946087C0221084343
:10BB8000694608742A7DEF21002A02D01022104352
:10BB900000E008406A461074059407940894287DD4
:10BBA000002800D003A8099001270A941046977135
:10BBB000304A82800094B27B0270F27B42708078BF
:10BBC000F9221040F722801C1040EF210840410864
:10BBD000490068468170317B017214210BA8FFF780
:10BBE000D2FA01A80B9068460C908786C486078716
:10BBF00002A80F90A888AB1D0BAA04A9A2DF0028F9
:10BC000035D1B068002830D0684687711A498180E4
:10BC10000094317C017000200146684641708078B4
:10BC2000F9210840F721801C0840EF210840410815
:10BC300049006846817011A8B16800F093FD06467E
:10BC400014210BA8FFF79FFA01A80B9068460C90EF
:10BC50008686C486068711A80F902A46E8880E3289
:10BC60000BA9A3DF002802D100E0EC81002013B073
:10BC7000F0BD0000192A00000829000010B50B498A
:10BC80000B4805F043F8C1B20848783800F0C0F915
:10BC9000002809D0082807D00649884204D0064960
:10BCA000884201D0FFF7E8FD10BD0000E823002026
:10BCB000082000200430000001340000F0B50C46DC
:10BCC00093B01F216A461180072600279180002823
:10BCD00009D0C17849070DD502A9FFF775FC0028E6
:10BCE00009D102AD01E000251780002C0ED0E078CC
:10BCF000002802D0304613B0F0BD01AA0AA92046A0
:10BD0000FFF762FC0028F6D10AAA02E0684600228A
:10BD1000878068468088C3B268460088C1B22846DA
:10BD200072DFE8E7FFB581B01E460A9F13460400A4
:10BD300047D0002B45D0504D012028700020E870DE
:10BD4000202219464D48FFF7F7F900206F61C043E4
:10BD50002E612881284607211830FFF714FA47483A
:10BD60003C212030FFF70FFA444821782030017041
:10BD7000A1788170E178C170617841703F4A65694E
:10BD800023695563114613632031E368A268CB60D1
:10BD90008A603A49E369A269CB638A63616A0029D0
:10BDA0001AD001463C310246483241628A60636AD9
:10BDB0001B880B80616A436A898899800021436AE5
:10BDC00007E00E2005B0F0BD656AAD686D5C5554A6
:10BDD000491C9D888D42F7D8A16A00291CD0274AAA
:10BDE000943211460C398A608162A36A9B888B80E9
:10BDF000A16A836A098819800021836A04E0A56A20
:10BE0000AD686D5C5554491C9D888D42F7D82C2136
:10BE10000A5D1A4940310A73216A002909D016497E
:10BE20000A310162226A52884A80216A026A0988BC
:10BE300011806168002900D04160104A0E4900203D
:10BE4000B3322031C3001B1A85009B180C68401CBC
:10BE500063510828F6DB094A0020EB320301850014
:10BE60009B188C68401C63510828F7DB0348029933
:10BE70002030FFF723FFA5E748200020842400207E
:10BE800010B50188134C102915D0112919D01B2980
:10BE900010D1007A00280DD1E0780521401CFFF771
:10BEA00035F9084600F030F8002803D06169002910
:10BEB00000D0884710BD817D0129FBD18088208179
:10BEC00010BD00216171808821898842F8D101204C
:10BED000E8E700004820002010B5022801D0032820
:10BEE0000ED1084C607800280AD000206070E078FD
:10BEF00000F00AF8002803D06169002900D08847C3
:10BF000010BD000048200020F1B53F4C88B02078DB
:10BF100000280AD00898E07006A801F009FC0698ED
:10BF20000125002804D065706AE0082009B0F0BD42
:10BF30003548002707211830FFF725F9334E707870
:10BF4000002802D0E078012807D0B07800280CD073
:10BF5000E078012801D0022807D12169002903D007
:10BF600025710820884700E027710898FFF7F4FB47
:10BF7000E0702169002909D0032801D0042805D1E7
:10BF80003078002802D06079002811D0A7711821DC
:10BF90006846FFF7F8F8684607700772E1781A48B4
:10BFA0000B001830FFF7D2FA052E080F191D2000DC
:10BFB000A57107208847EAE7A570019068460570DB
:10BFC0004782078213E00221A17001906846057044
:10BFD000B18941823189018209E0684604F0FEFF9F
:10BFE00002E0684605F026F8E078002803D06846AD
:10BFF00073DF00289AD12169002901D0A0788847F1
:10C00000002093E7A770F6E7482000208424002052
:10C0100073B586B004002FD06A46217C127F0020C1
:10C02000914227D00025012668460095068045806C
:10C0300007A80190E188608A6A46A4DF002819D128
:10C040006846007F2074608A0D49884216D0207DA2
:10C05000002813D00295039504950595E18868465C
:10C060000181867241888181049001980590608ADF
:10C0700002A9A6DF08B070BD0E20FBE70820F9E793
:10C08000FFFF000038B50D4604001AD0002D18D06F
:10C09000286820600020C043608228792075FF2036
:10C0A000207401216846817007490180221D69467C
:10C0B0000120A0DF002803D129462046FFF742FDDA
:10C0C00038BD0E2038BD00000F18000038B500281C
:10C0D00024D0002922D00A88102A1AD0112A1AD076
:10C0E000502A1BD10446007D002817D0C8886289D9
:10C0F000891D904212D1488902280FD1206800285A
:10C100000CD008460C3000F026FB002807D0002099
:10C1100006E0898801E00021C943418238BD012041
:10C120006946087022682046904738BD70B50546BC
:10C1300001461C220E48FEF7FFFF0E4C002626701B
:10C140002968002906D00822201DFEF7F5FF201DD2
:10C150007ADF02E00748001D7BDF002807D1401E80
:10C1600060806670044A00210448FFF791FB70BDAF
:10C170005026002078200020E1190200F41E020061
:10C18000F8B5214C0146028800261E48E589102A90
:10C1900013D01E4F112A1FD0122A2BD0502A1AD189
:10C1A000881DC988A94216D14189022913D10C30B2
:10C1B00000F0D1FA00280CD112E08A8804464280AF
:10C1C000104808220C301831FEF7B6FF6670002DBB
:10C1D00001D100F077FEF8BD0021C94341804670CF
:10C1E0003868FFF7E9FB0028F5D0A1690029F2D0F3
:10C1F0008847F8BD034808220C300831FEF79CFF41
:10C20000E7E700007820002050260020F41E0200FE
:10C2100010B503490A7D091D04F0FBFB10BD0000A9
:10C220006C260020034B10B50246D97D181D04F082
:10C23000DDFB10BD6C260020034B10B50246197EB5
:10C24000181D04F0D3FB10BD6C260020F0B5044689
:10C2500002883A488DB0014615310191102A09D063
:10C26000112A50D01A2A4AD1217A090901294ED916
:10C2700001234DE0027D417D05468A43011D07A84B
:10C2800004F0C7FB142207A902A8FEF755FF0026F9
:10C290002A483746143008900AE0710002A80818AE
:10C2A00083881D220097281D089904F05FFB761CE7
:10C2B0000298B042F1D8287DA688C043C0B204F0ED
:10C2C00079FB1F49884217D040004019868001231E
:10C2D0003246281D019904F0BFFB01233246281D78
:10C2E000089904F0B9FBA07D02280AD00023134965
:10C2F000A2881631281D1DE00420FFF7BDFA0DB0FD
:10C30000F0BD0123F3E70023A288001D12E0002303
:10C310000A490546A2881731001D04F09DFB207ACA
:10C320000009022801D9012300E000230349A28863
:10C330001831281D04F090FBE1E700006C26002076
:10C34000FFFF000070B50B4E05460024317D2A46E4
:10C35000301D04F04BFB002809D0B17D2A46301D6A
:10C3600004F044FB002801D0022400E00124204610
:10C3700070BD00006C26002010B50024204605F09A
:10C3800061FB002805D0641CE4B2182CF6D31820F9
:10C3900010BD044801220168A240114301602046FB
:10C3A00010BD00006C26002010B5044605F04AFBC5
:10C3B000002802D001480019407E10BD6C260020E4
:10C3C00070B505460C46084605F03CFB002806D033
:10C3D00003482A460119497E001D04F007FB70BD81
:10C3E0006C26002070B5064615460C46084605F03A
:10C3F00029FB002807D004482B4601193246001DAE
:10C40000193104F029FB70BD6C2600207CB505466F
:10C4100008880C460930904201D90C207CBD684642
:10C4200071DF0028FAD121880820685420881B2158
:10C43000401C80B220802954208800A9401C80B272
:10C440002080401906220131FEF776FE20886946D9
:10C45000801D80B220800978002900D00121295454
:10C460002088401C208000207CBD00007FB5044651
:10C470000121684681714A4981804A4A01A9012007
:10C48000A0DF00287ED1228825463C35002A09D02D
:10C4900044482B46801C00904348616800F0DCFB58
:10C4A00000287BD12289002A0AD03E482B460A3038
:10C4B00000903D48E168401F00F0CEFB00286DD1A0
:10C4C000228A002A0AD037482B461230009036487C
:10C4D0006169001F00F0C0FB00285FD1228B002A99
:10C4E0000AD030482B461A3000902F48E169801E50
:10C4F00000F0B2FB002851D1228C002A0AD0294832
:10C500002B46223000902848616AC01E00F0A4FB30
:10C51000002843D1228D002A0AD022482B462A30F7
:10C5200000902148E16A401E00F096FB002835D1BA
:10C53000216B00290ED002A805F068F819482B4697
:10C54000323000901848082202A9801F00F084FBB6
:10C55000002823D1606B00280BD012492B463A31BA
:10C560000091027901681048401C00F075FB00281A
:10C5700014D1A16B002910D002A803F011FF0948C3
:10C58000423000E00AE0009007482B46072202A94B
:10C59000273000F061FB002800D1002004B070BDFE
:10C5A0000A180000EE200020292A000010B50446D9
:10C5B000FFF74CFE204603F04FFD21460C4800F0EB
:10C5C00075F80B4821461838FFF780FD2046FFF725
:10C5D000D7FD204600F0A6F9204602F0E7FC2046F1
:10C5E000FFF74EFC02482146503002F0D7FB10BD49
:10C5F0008823002030B50446008C134AADB0904229
:10C600001FD006AA204601F00DFD694605460880A8
:10C610000020019002900390049022898A800122D8
:10C620008A71088106A803910490208C01A9A6DFD5
:10C63000002804D169460988A94200D00C202DB0F9
:10C6400030BD0820FBE70000FFFF000038B50446BE
:10C6500008682060087960710020C0430D4620847E
:10C660000021222001552046403081811421817310
:10C670000121684681700C490180A21D6946012094
:10C68000A0DF00280FD12946204601F073FC0028C6
:10C6900009D1A868002805D02946204600F0A0F856
:10C6A000002800D1002038BD0D18000038B5024622
:10C6B0000888102816D0112816D0502817D1881DA8
:10C6C000C9889389994212D14189144602290ED111
:10C6D000216800290BD00C3000F03DF8002807D06D
:10C6E000002006E0888801E00020C043108438BDA7
:10C6F00001206946087022682046904738BD028CA8
:10C700000B889A4203D189784030C91E81737047E3
:10C7100070B5054604464035A8890E46142807D151
:10C720002622A118881EFEF707FDA889401EA881B1
:10C7300080B241000919401CA8818E8470BD203050
:10C740008170704770B504460D460846FEF726FD19
:10C750002080656070BD4178027808021043C007F0
:10C76000C00F70470A780270497841700220704704
:10C7700000B5174887B0006905900023D0221549FD
:10C7800005A804F0FFFE002801D0FFF775F86A46FF
:10C790000121002004F0DEFE002801D0FFF76CF834
:10C7A000684604F0CDFE002801D0FFF765F80A487E
:10C7B00004F0BCFE002801D0FFF75EF8074804F043
:10C7C00013FF002801D0FFF757F807B000BD0000A5
:10C7D000A81E0200A0220020ADC50100FD15020028
:10C7E000F0B58FB00D4606461C216846FEF7CBFC1F
:10C7F00068460178022001436846017000240194D4
:10C80000039404940594012708A806948770154999
:10C81000684601840794E97B0177297C4177807F12
:10C82000F9210840F721801C0840EF210840410809
:10C83000490068468177142109A8FEF7A4FC08A8DE
:10C84000099007A80A9068468785C4850786A86866
:10C850000D903346F088103309AA6946A2DF0FB065
:10C86000F0BD0000382A00000149085C7047000054
:10C87000BC1E020005490B5C05494A68012098402E
:10C88000034693438B601040C8607047C01E02008F
:10C890000005005010B50349085C012102F036FB89
:10C8A00010BD0000C01E020010B50349085C002145
:10C8B00002F02CFB10BD0000C01E02000549095CFF
:10C8C00005484068C840C007C00F00D001200121C2
:10C8D00048407047C01E02000005005010B50024FB
:10C8E0002046FFF7D7FF641C052CF9D310BD10B507
:10C8F00000242046FFF7D8FF641C052CF9D310BD97
:10C900000246002010B5C043054B00215C5C9442F8
:10C9100001D1084610BD491C0429F7D310BD000001
:10C92000BC1E020010B51C4C0188606810290DD097
:10C9300011290AD1401E606007D1FEF741FF00288F
:10C9400003D02168002900D0884710BD00281ED1DF
:10C9500000210122084600F07DF8002801D00728B8
:10C9600011D107220221012000F074F8002801D023
:10C97000072808D104220221002000F06BF80028CB
:10C9800005D0072803D02168002900D088476068B7
:10C99000401C606010BD00004020002010B5002049
:10C9A00000F04AF9002801D0062807D1012000F044
:10C9B00043F9002801D0062800D1002010BD000056
:10C9C000F3B581B00D460198FFF79AFF044604289D
:10C9D00013D21D481D4F1E4E002D27D0012D0DD006
:10C9E000022D0AD160002018C0194578002D04D00E
:10C9F000F168002901D028468847FEBD6100611812
:10CA00007D5CCF19797800290BD071680A225143D7
:10CA10000F4A8068921CFEF78BFF002801D1019815
:10CA2000B0700B48B97810300155DFE78068FEF729
:10CA3000C3FF0748610061181030C919005D8D7887
:10CA4000A842D3D0FEBD0000C81E0200582400201A
:10CA50002C20002070B50023042811D244000419B2
:10CA60000D4D012A02D101290DD000224600801966
:10CA7000094E801900290CD0012906D0022906D0C0
:10CA80000723184670BD0E30C2B22A55F9E742702E
:10CA9000F7E78270F5E700005824002010B5054A3A
:10CAA0000146127A0020D20702D0084600F004F8AE
:10CAB00010BD00002C200020F8B55D4C05466078C4
:10CAC0000026002803D000206070FFF707FF012038
:10CAD000584F2B00FEF73AFD18970D0D2E3D4A5F7B
:10CAE00064686F686FA97777777777979A9DA0A921
:10CAF000A9950020FFF7E2FE00280AD00020FFF7EA
:10CB0000C9FE022D02D1E120C0000BE07D204001D2
:10CB100008E00020FFF7C8FE022D01D1C82001E087
:10CB2000FF20913025706421FEF7F0FA61684143DF
:10CB300000222BE00020FFF7C1FE002805D00020D6
:10CB4000FFF7A8FE19204001ECE70020FFF7ACFE3C
:10CB5000E4E70020FFF7B2FE002803D00020FFF733
:10CB600099FED3E70020FFF79FFED9E70020FFF7EB
:10CB7000A5FE002803D00020FFF78CFE02E0002075
:10CB8000FFF792FE25706068410000223868FEF7CA
:10CB9000CFFE064635E00020FFF76CFE257007E06B
:10CBA00000203FE025702CE060700120FFF762FE5E
:10CBB00000226168EAE760700120FFF75BFE6068B1
:10CBC00081004118E1E77868FEF7F6FE064611207D
:10CBD000401B01D0002E03D00220FFF75BFE10E0C7
:10CBE00001280BD9C82148436421FEF78FFA6168F8
:10CBF000002241437868FEF79BFE06460220FFF7BD
:10CC000053FE3046F8BDFFF769FECBE7FFF766FE3F
:10CC1000C6E7FFF763FE04E0FFF760FE0020FFF7C2
:10CC200043FE0120FFF740FEBCE7FFF760FEB9E7D7
:10CC30002C200020C81E020010B5FFF715FE0321AE
:10CC400002F042F9002010BD0249091820200856C0
:10CC500070470000E02A0020FFB58FB01E46154641
:10CC60000F0002D10020FEF707FE002D02D10020A8
:10CC7000FEF702FE1C216846FEF785FA6846017839
:10CC80000220014368460170002401940394049437
:10CC90000594012108A80694817068460F990184C3
:10CCA00007943178017771784177807FF9210840C6
:10CCB000F721801C0840EF210840410849006846E0
:10CCC0008177142109A8FEF75EFA08A8099007A841
:10CCD0000A9068468585C485058604480D9709AA8B
:10CCE00069460088189BA2DF13B0F0BDEE2000203B
:10CCF000002807D00449814204D80449814201D95F
:10CD0000012070470020704798210020A8210020B2
:10CD1000044A0168914201D0083101E001493839E3
:10CD200001607047202C002070B50D4D04460A4666
:10CD30002846AC4208D1FF2401342146104603F0B6
:10CD400049F9A0420AD070BDFF2CFCD821461046FC
:10CD500003F032F9002801D0204670BD284670BD8E
:10CD6000FFFF000070B5084C050009D010342168A1
:10CD7000002907D008682060496828468847F6E7F8
:10CD80000834F4E770BD0000CC2A0020F8B5234831
:10CD9000416800293ED00E6821494C688768807838
:10CDA000E11B0D022D0AED1C002814D101201D4AA3
:10CDB000000450601B4A403A50601B494000086024
:10CDC0001A4908601A49012008602F2001F0F0FF7D
:10CDD000124901208870B54200D23546E819000298
:10CDE0000F4B000A403318600D4A5168001B091BA5
:10CDF0000902090A0002000AC91C814209D95068C7
:10CE000018602F2001F0D4FF012007494004803929
:10CE10000860F8BD03F028FDF8BD000038210020AF
:10CE2000001501404013014080E200E000E100E015
:10CE300000100140F8B50646108814468446801D4F
:10CE40000D46984201D90C20F8BD32880720062AE9
:10CE5000FAD31927FF01184BBA4201D99A42F3D1EC
:10CE600071880629F0D3B94201D99942ECD19A428E
:10CE700003D0994201D08A42E6D805216046295460
:10CE800020881221401C80B2208029542088401C18
:10CE900080B220804119308804F09DFD218840181F
:10CEA00080B220804119708804F095FD21884018D7
:10CEB00020800020F8BD0000FFFF000010B5FEF745
:10CEC000DBFC10BDF8B5164801F01AFB144D002626
:10CED0000C3D144C002807D0616900291CD00120AA
:10CEE0006A461070684616E02878002805D0616907
:10CEF000002911D0684606700DE0687800280DD032
:10CF0000A168094800220068FEF712FD002803D03E
:10CF1000A169002900D088472E70F8BD6168F0E74C
:10CF20008420002050260020F41E02007FB50C460D
:10CF3000002802D0012004B070BD2079002600280E
:10CF400006D01B4D01281CD0022828D00F20F2E764
:10CF500002960396E0680190694601A803F05EFB23
:10CF600000280AD002988188E180008820816946E3
:10CF70000988029803F0CCFB00E00A20022121710D
:10CF8000D9E70C4B6A460021A01D03F005FB0028E1
:10CF900007D0084908398E60CE600A28CBD12846D0
:10CFA000C9E704488188019803F0B2FBF5E7000067
:10CFB0001D1D00006C21002010B50E4900230A78C9
:10CFC0004C78A24212D0521CD2B20A70022A00D16E
:10CFD0000B700A78074B920018339A5802608868E1
:10CFE00010180002000A8860012010BD03600020B4
:10CFF00010BD0000382100203EB5094D38CD00930A
:10D00000029501946B46588099809A7105490022D7
:10D010000978FFF7E7F9684600F08EF83EBD00009A
:10D02000681F0200D420002010B5047800222300DD
:10D03000FEF78CFA070605070D1D262C06000A7060
:10D0400010BD01220A7002898A81828814E00222BE
:10D050000A7002898A818288CA81C2688A60007CDB
:10D06000062802D00020087410BD0120FBE703222F
:10D070000A70C2888A810289CA81C068886010BD2E
:10D0800004230B70C0888881CA8110BD05200870F8
:10D0900010BD000070B5064D06460024A0002958BA
:10D0A000002901D030468847641C082CF6D370BD97
:10D0B000502B00200EB5002910D011290ED00022CF
:10D0C000009202926A46508001910D2907D086296C
:10D0D00007D009201070104600F03CF80EBD0B2060
:10D0E000F8E70A20F6E70000014909680847000050
:10D0F0009420002070B5054D06460024A000295854
:10D1000030468847641C022CF8D370BD101F020003
:10D11000F8B507460024064E064D04E0A00031583D
:10D1200038468847641CE8788442F7DBF8BD000085
:10D13000802A0020C420002070B5054D064600243A
:10D14000A000295830468847641C022CF8D370BDD3
:10D15000301F02000149096808470000741F0200DF
:10D16000704700007FB50446406800280BD00020BF
:10D17000039020780026414D0300FEF7E7F9066D85
:10D180000606304E7B6D0120F2E7A08900F0DAF947
:10D19000002804D1E08903F0DDFA00285CD0A089E2
:10D1A00000F0CAF9014668464180E08903F0CCFAF4
:10D1B00001466846017120780128606807D0002880
:10D1C00009D00420694608706068039020E00028B8
:10D1D000F8D00320F6E70120F4E708463AE0A089FA
:10D1E00000F0B0F9002804D1E08903F0B3FA002878
:10D1F00032D0A08900F0A0F969464880E08903F0A8
:10D20000A3FA694608716068002804D005200870F8
:10D21000A0680290E1E70220F9E7A08900F092F906
:10D22000002819D0E089002816D1A08900F084F9DF
:10D2300069464880E08903F087FAFF206946087153
:10D24000606800280FD0072008706E70AE7002F082
:10D2500015FC684602F0CEFA6878002802D06E709D
:10D2600002F00CFC7FBD062168460170408802F088
:10D2700093FCEAE7082069460870AEE7B02000207A
:10D2800000B5104987B00978890702D4022007B099
:10D2900000BD0D49884201D10420F8E70522694606
:10D2A0000A7001220A71C88000221146684601F006
:10D2B00007FF002803D003F053F90020E7E7082018
:10D2C000E5E7000064210020FFFF000000B50F48E3
:10D2D00087B00078800702D4022007B000BD062086
:10D2E0006946087000221146684601F0E9FE0028F0
:10D2F00009D007480178002901D00121017303F00A
:10D300002FF90020E9E70820E7E70000642100206A
:10D31000502C002010B58CB014216846FDF733FF67
:10D320001D480078810703D56846FFF7B3FE30E05B
:10D33000C0072ED1012000F02BF900F0A3F9012441
:10D340006846047501F04EFF0300FEF7FFF80C0776
:10D350001107111B190A191B1317131B0B200CB0F3
:10D3600010BD022000F014F9012000F0F7F8DBE70F
:10D37000002000E003206946087603E00220FAE777
:10D38000684604760022114605A801F099FE03F0D4
:10D39000E7F80020E3E700006421002038B504002E
:10D3A00014D0694603F03AF9002813D06846008883
:10D3B0000101094809188889002809D0A27A002AA1
:10D3C00006D0401E88810020A07238BD052038BDDF
:10D3D000062038BD0A2038BD302C00201FB501A919
:10D3E000684603F0D9F804B010BD07B513460A46E5
:10D3F0006946002003F0D0F80EBD07B513460A4673
:10D400000021684603F0C8F80EBD002805D00029A9
:10D4100003D00068086000207047052070470000B6
:10D4200038B50D46040017D0002D15D0694603F01D
:10D43000F5F8002812D068460088616802010848A3
:10D4400012189089401C9081296060680C306860D7
:10D450000120A072002038BD052038BD0A2038BD4B
:10D46000302C002010B5002804D00323002204F043
:10D47000E5FB10BD052010BD10B50223002204F00D
:10D48000DDFB10BD10B5002A03D0022304F0D6FB4B
:10D4900010BD052010BD000010B5064A51780829BE
:10D4A00006D08B00044C491CE0505170002010BD88
:10D4B0000C2010BD64210020502B002038B50446FC
:10D4C0000A480D460078800701D4022038BD002CA0
:10D4D0000AD06946284604F0C1FC0028F6D1694606
:10D4E00009882180658038BD052038BD6421002071
:10D4F00010B504460E480078800701D4022010BD04
:10D50000002C10D0218802290FD80A4A080180185F
:10D5100042896088121A032A07D404F095FC00207F
:10D520002080608010BD052010BD042010BD0000CB
:10D5300064210020302C002003218903401A80B28E
:10D540007047000003218903401A0349884201D82B
:10D550000120704700207047FE3F000002490A7812
:10D5600082430A70704700006421002010B5044611
:10D570000078182802D1FEF7FFFE207010BD10B50C
:10D5800004460078182802D1FEF7F6FE207010BD80
:10D5900002490A7802430A707047000064210020A3
:10D5A00070B5064600200546862906D0112902D00E
:10D5B000002903D070BD012500E001200E4C002A97
:10D5C00002460FD061793046FEF70CFF2A462179DA
:10D5D0003046FEF707FF002261783046FEF702FF73
:10D5E000002204E061783046FEF7FCFE2A462178EE
:10D5F0003046FEF7F7FE70BDD8200020F8B506468D
:10D600001C481F46007815460C46C0070AD0304615
:10D61000FFF76EFB002807D0002C07D0A00507D02D
:10D620000620F8BD0120F8BD0220F8BD0320F8BD9A
:10D630003068A04204D8A80271680019884201D954
:10D640000520F8BD002D10D0684602F0DBFE002852
:10D650000DD000980221C0C00170A101090C818089
:10D66000058102F08BFF0020F8BD0420F8BD0720E3
:10D67000F8BD00007C21002010B5084602F0DEFE57
:10D6800010BD0000F0B52648264C001B03092648B3
:10D6900019464069421C03D10120000740698002FD
:10D6A000224A12789646D2070CD00020F0BD1D4CBD
:10D6B00015012C192568002D03D06468002C00D0BA
:10D6C000491E521C9A42F2D3002420E0E2B2002507
:10D6D00094462A460FE0134E1701BE193768002FF3
:10D6E00002D07768002F05D1767BAE4202D935464D
:10D6F000D6B2B446521C9A42EDD362461501094A8D
:10D70000AA185060157BAD02401B641C10608C424F
:10D71000DCD306487146012211430170C5E70000C1
:10D72000A821002098210020001000107C2100205A
:10D73000002804D00349496E01600020704703208F
:10D7400070470000602C0020F8B507461E481E46B2
:10D75000007815460C46C0070ED03846FFF7C8FAC9
:10D7600000280BD0002D0BD0002C09D028462043D8
:10D77000800707D00620F8BD0120F8BD0220F8BDC3
:10D780000320F8BD3868A04204D8B10078680919B0
:10D79000884201D20520F8BD002E11D0684602F063
:10D7A00031FE00280ED000980699076041600121E3
:10D7B0000172C5600461868202F0E0FE0020F8BDBF
:10D7C0000420F8BD0720F8BD7C21002070B5174B60
:10D7D0000446186E182148431549C0180A78950761
:10D7E00015D5022C02D0032C1CD102E001F03EFC26
:10D7F00018E04A78521CD2B24A70032A12D9002289
:10D800004A70082103F0FAF902F0E6FD0AE0500739
:10D8100008D5FB2002400A70586E002802D0022072
:10D8200002430A7002F066FE70BD0000602C00200A
:10D830007C2100200EB51120694608720F2211A12B
:10D8400002A87CDF002801D0FEF716F8114878DF27
:10D85000002801D0FEF710F80020FF22009041328E
:10D86000694601900A804122D2004A808880FF20C8
:10D870009130C88068467ADF002801D0FDF7FCFFB0
:10D880000EBD0000626C75655F746F6F74685F6CCD
:10D890006F636B004103000010B50248FEF72FFFD5
:10D8A00010BD00008823002010B50449044801F091
:10D8B00073FA002801D0FDF7DFFF10BD99D80100F1
:10D8C000D823002070B5002801D0012070BD164C6F
:10D8D0000025207B002801D0257301E000F09CF892
:10D8E00020780300FDF732FE081E05080B0E1E11FE
:10D8F0001A1E00F01BF870BD00F07EF870BD00F03D
:10D9000061F870BD00F038F870BD6088064900010C
:10D9100020394018406801F045FC70BD656001F099
:10D920004FFC70BD0F2070BD502C002070B5104909
:10D9300000208A1C0D460346203D0C18A67A002EB6
:10D9400008D0A37204016419A689002E02D1A47B19
:10D95000012C08D0401C80B20228EED30B704B8003
:10D9600004484B6070BD108000F046F870BD0000A8
:10D97000502C00201D1D000010B50F4C60880101C7
:10D98000204620380818818900290BD005202070F6
:10D990000A48022181800168002301220848FFF71C
:10D9A0002DFE10BD4168002301220548FFF726FE29
:10D9B0000421217010BD0000502C00207421002093
:10D9C0009821002038B50A4908480B6889884268C0
:10D9D000890059185388032404700020DB1C009030
:10D9E0009BB20448FFF7B0FE38BD0000502C002069
:10D9F000742100209821002010B506494888091D8F
:10DA000002F05CFE002802D0FFF7DCFF10BDFFF73C
:10DA1000B3FF10BD502C0020F0B51D481D490778FC
:10DA20000246012502268C88203A3B00FDF78EFD38
:10DA3000080517171A212C2C16170189491C01817A
:10DA40000021418001730B01D35C002B08D000231F
:10DA50004418491C89B2A3720229F4D30570F0BDA1
:10DA60000123F5E742685288D21CA2188A8006700A
:10DA7000F0BD45880B682D01AA1855680D605360EC
:10DA800014818E80062100E007210170F0BD0000A6
:10DA9000502C002074210020F0B504460088384D39
:10DAA0008DB050281DD0522802D0542826D103E032
:10DAB000A08800F0A3FF21E0062069460870A08836
:10DAC00000F04CFC69464880A2888A8000F02CF95E
:10DAD000A0880022E978FEF785FC6846FFF704FB82
:10DAE0000CE0207B012809D1A07A012806D12089E9
:10DAF0002449884202D1A08800F0BCFFA878FEF734
:10DB000053FC002819D008A8FEF782FB142208A9AC
:10DB100003A8FDF711FB002403AE0BE0600087199A
:10DB2000B888A978FEF74CFC002802D0B88800F02D
:10DB300065FF641C0398A042F0D86878FEF734FCB7
:10DB4000002819D008A8FEF763FB142208A903A82F
:10DB5000FDF7F2FA002403AE0BE060008719B888E5
:10DB60006978FEF72DFC002802D0B88800F082FF0B
:10DB7000641C0398A042F0D803F0D6F80DB0F0BDB5
:10DB80008C200020022900003EB5044640886946EA
:10DB900048802078002814D001281DD002280FD1F9
:10DBA000207900280CD0608800F00CFB0E498842D8
:10DBB00006D00E490122C978FEF714FC03F0B4F830
:10DBC0003EBD002008700846FFF78EFA608800F01E
:10DBD000F9FA00F013FF3EBD012168460170A188EB
:10DBE0008180FFF781FA3EBDFFFF00008C200020FE
:10DBF00010B50446007801280DD1608800F0FEFEC3
:10DC0000608800F057F9002805D003496088012298
:10DC1000C978FEF7E7FB10BD8C20002010B5104C32
:10DC200000202070FEF7A8FB6070FEF7A5FBA07037
:10DC3000FEF7A2FBE070FEF79FFB207161781829C8
:10DC40000BD0A178182908D0E178182905D0182818
:10DC500003D001202070002010BD032010BD000063
:10DC60008C200020F0B585B000F076F86846FEF70D
:10DC7000CFFA00246D460C4F0EE060004619B088C4
:10DC800000F06CFBB84205D10849B0880122C97880
:10DC9000FEF7A8FB641CA4B20098A042EDD803F0E4
:10DCA00043F805B0F0BD0000FFFF00008C2000200D
:10DCB00010B50178072902D1408800F0DBFE10BDC5
:10DCC00010B504460A4841782046FEF779FB002843
:10DCD0000CD0084800210C224A4312185288A24254
:10DCE00001D1C8B210BD491C0829F4D3FF2010BDD2
:10DCF000A4200020A026002070B5094D094E002464
:10DD00000C206043401940887178FEF759FB0028C9
:10DD100004D0641C082CF3D3FF2070BDE0B270BDAA
:10DD2000A0260020A42000201CB5054A9168D268D6
:10DD3000019200910022694601F024FC1CBD000004
:10DD4000FC1E020003480021C943818001210170AB
:10DD5000002070479820002010B5044801F046FBD1
:10DD60000349888003F00CF810BD0000FFFF00009D
:10DD700098200020F1B582B0029800F0EFFA00245C
:10DD80001649032501272646884209D06A460821FC
:10DD900001F0CEFB002803D1019886880568841D18
:10DDA0002B46324621460298A9DF042804D00828D1
:10DDB00004D00B2807D002E0112000E00020002F43
:10DDC00000D10B20FEBD0027A80701D50125E7E7FC
:10DDD0003443F6D0002426460325E1E7FFFF000088
:10DDE000F1B582B0029800F0B9FA07461B488742A5
:10DDF00001D11B48FEBD01252A466D1C0026ADB28F
:10DE00006B460821384601F0C3FB040002D0072C02
:10DE100021D021E0019903230B600A1D891D02987E
:10DE2000AADF040004D00C2C08D0052C08D008E090
:10DE30000821384601F046FC04460DE0012600E0CA
:10DE400000240821384601F027FC002800D00324D4
:10DE5000002ED1D100E00C242046FEBDFFFF0000C3
:10DE6000023000001FB504460078012815D1207942
:10DE7000012812D1608802AA012101F059FB002873
:10DE80000BD10221684601706188418003980178B6
:10DE900068460171054909688847044804490838FB
:10DEA0008088884201D002F06BFF1FBDA0200020B7
:10DEB000FFFF00001CB500F051FA6A46012101F095
:10DEC00037FB002801D000201CBD019800781CBD44
:10DED000F8B5074E074C084D07463246618838466C
:10DEE000A7DFA84203D16088401C6080F5E7F8BD39
:10DEF000FFFF000098200020033000008188054AC1
:10DF0000914204D00088002801D0012070470020F1
:10DF100070470000FFFF000010B51249124802F0E0
:10DF2000F5FE114C81B2103C6068401C60600D48E9
:10DF30007038FEF75FFB002809D0082807D00B498E
:10DF4000884204D00A49884201D0FDF795FC03219C
:10DF50006068FDF7DBF8002901D0012000E0002017
:10DF6000207010BDF8230020102000200430000095
:10DF700001340000F0B5002406460D46601C010780
:10DF8000B7B0090F08A810310C940174297B4174B3
:10DF9000817CF9273940891C81741C2105A8FDF773
:10DFA000F2F86846017D10200143684601750CA80F
:10DFB00006940A900894099401220B9408A882768A
:10DFC0001749684601870D94697B08A80175A97BEC
:10DFD0004175817DF7203940891C0140EF200140C7
:10DFE000114308A8817514216846FDF7CCF80EA8E6
:10DFF00000900DA801900FAA0021304600F012F801
:10E000000146684601819B21448181810FA80490CB
:10E010003346F08808336A4605A9A2DF37B0F0BD61
:10E02000372A0000F7B542790025002A00D00425E0
:10E030002222135C0222002B00D01543CBB2FF2911
:10E0400007D901221543029A090A537091700326D9
:10E0500002E0029902264B7004464034A18900294F
:10E0600001D010210D43002717E0A27BB11C8A428A
:10E0700009D2A189C91B4A0079000918243024312A
:10E08000FDF75AF80CE0029B7A0012189B19928C4B
:10E090001A70120A5A70CEB27F1CA189B942E4DC10
:10E0A000A089C01BA081029805703046FEBD3EB518
:10E0B000044600780D46022815D10322611C6846EB
:10E0C000FDF73AF80322211D02A8FDF735F801AA51
:10E0D00002A92846FDF79BFB032201A96846FDF72C
:10E0E00064F8002801D000203EBD01203EBD0000A4
:10E0F00010B50C46FFF7E4FDFF280AD00C21484379
:10E100000549072241182046091DFDF715F8002092
:10E1100010BD052010BD0000A026002070B50188AC
:10E1200090B0102949D1011D2C2202A8FDF704F856
:10E130006846234E007B344602AD03282AD001F006
:10E14000C9FB6846007B00280ED001280CD00228AD
:10E1500020D118E00E99281D1131FDF721FA002871
:10E1600002D06846048815E00DAA6946072001F030
:10E1700087FB0028EED10DE00E99281D491CFFF702
:10E1800096FF0028EDD10DAA6946072001F078FB23
:10E190000028F1D168460089291D00F0ADFDB44288
:10E1A0000BD068460089214600F086F86846018950
:10E1B000418001210170FEF79DFF10B070BD00008D
:10E1C000FFFF0000084A00210C234B43D35A83422F
:10E1D00004D10C204143881840887047491C082905
:10E1E000F2D3024870470000A0260020FFFF000085
:10E1F00010B50E4C182060700D4A0E4900200C23FB
:10E2000043435B18401C5A800828F8D3FEF7B4F843
:10E210006070182804D00548C01C71DF002801D0A8
:10E22000032010BD01202070002010BDA42000207C
:10E23000FFFF0000A026002070B504460D46401CDC
:10E2400000F090F9002810D01022691C601CFCF727
:10E25000ACFF00280AD00026294620461131113093
:10E26000FDF79EF901463046084370BD0126F3E7ED
:10E270000188002903D142189278002A01D0012098
:10E280007047491C0829F6D30020704710B50C468A
:10E290000346FFF7EDFF00280BD01888218888423D
:10E2A00006D10822A11C981CFCF77FFF002801D092
:10E2B000002010BD012010BD10B501F0C9FC10BD3B
:10E2C00010B50446007888B0002826D120790728A8
:10E2D00023D1608801AA072101F02AF900281CD166
:10E2E00001F0F8FA1BE0694660880988884216D078
:10E2F00004990298FFF7A0FF002810D06088FFF76C
:10E3000061FF01466846C182002101756188018371
:10E310000188418305A8FEF7EDFE08B010BD03AAF1
:10E320006946072001F0ACFA0028DCD1F5E70000CF
:10E3300070B50446FFF746FF0546204601F0FDF89C
:10E34000054904468D4204D0002C02D1284601F034
:10E350007FFC204670BD0000FFFF000010B5FFF7F6
:10E36000AFFCFF2804D00C2148430249085A10BDD5
:10E37000014810BDA0260020FFFF00003EB5044666
:10E3800001F0A8FA10E0019920464631FFF77EFF20
:10E39000002806D1019920462A31FFF777FF00288F
:10E3A00002D0684600893EBD6A4602A9072001F0F6
:10E3B00067FA0028E7D101483EBD0000FFFF0000DA
:10E3C000F8B50F46002804D00120FFF7C7F8012058
:10E3D000F8BD397900290AD00026254D01290BD036
:10E3E000244C022920681FD003293BD125E000F0EE
:10E3F000E7FE0121397133E000200101695C022947
:10E400000BD0401C80B20228F7D30220FFF7C0F8DF
:10E410000120FFF7A3F81848F8BD0401601940680F
:10E4200000F0C0FE2E551BE00146002301221348D8
:10E43000FFF7E4F80221A18011E000F0B3FE0C49DF
:10E440002368203149880A01094951184D6825601F
:10E450004B60A3880B810221A18005498E543E7137
:10E460000028D9D00120FFF779F80E20F8BD000070
:10E47000302C0020742100201D1D00009821002058
:10E48000F8B51E4C2078002836D0E0680026002819
:10E490000CD00025607800282ED1684652DF052870
:10E4A00006D0002806D0FDF7E7F90BE00125F1E7DB
:10E4B000012607E0009800F0D1FC2169002901D075
:10E4C00000988847002D13D16078002814D1608807
:10E4D00069460880A06861DF052804D0002804D0C0
:10E4E000FDF7CAF904E0012502E0E168A068884769
:10E4F000002ECFD0002DE5D0F8BD000080210020F7
:10E50000418805480288914204D34088814201D85D
:10E5100001207047002070477C2000201048018CAB
:10E52000C9B2012917D1818C090714D1018D0906BF
:10E530000A0F03D1828D1206120F0ED0090F012986
:10E5400003D1828D1206120F07D0032903D1808DCB
:10E550000006000F01D00020704701207047000026
:10E56000C00F00F00021425C002A01D0012070475A
:10E57000491C1029F7D300207047800701D00020E4
:10E580007047012070470000FFB5244D81B0287A04
:10E590001F460E46084304D0039A002E04D00021E3
:10E5A00004E0052005B0F0BD1C491031019802F0CF
:10E5B000BFFE0446014600220198FEF7F1FF002F3E
:10E5C00003D021460198FEF775FD112C0FD006DC13
:10E5D000002C0AD0082C08D00D2C05D105E0862C83
:10E5E00011D00F48C44200D003242046DAE7324657
:10E5F000E9780198FDF7F6FEA978039A0198FDF7EE
:10E60000F1FE0024F1E73246E9780198FDF7EAFED1
:10E61000A978039A0198FDF7E5FEE6E7D8200020E7
:10E62000FECFFFFFFEB517460C00064604D020784B
:10E63000C00704D0012003E000217EDFFEBD0220E0
:10E64000694608713046FFF789FE1749054688423A
:10E6500008D001A800902B463A462146304600F0EB
:10E6600025F806E020782146C007304603D000F0A8
:10E6700081F804460BE07EDF044600200090002C69
:10E6800008D0002201232946304602F083FA002CEC
:10E6900002D006E00122F5E768460179304602F033
:10E6A0009FFA2046FEBD0000FFFF0000FFB585B0C9
:10E6B00000252E4601AA07210E9F089800F038FF7A
:10E6C000040008D1029D4420405D1835C607F60FAE
:10E6D00001D0029D34350798204312D1002D10D06F
:10E6E000002E05D128461230FFF7C2FD002808D0C1
:10E6F00029462A461231059885DF044600203870E5
:10E7000023E0002C01D0052C1FD106980078C0070B
:10E710000DD003AB01220721089800F039FF040057
:10E720000AD10721089801F031F8040004D10699B4
:10E7300005987EDF040008D00721089800F0ACFFA0
:10E74000002802D0052800D003240020009038784B
:10E75000002801D0012300E00023002C07D0002274
:10E760000899059802F016FA204609B0F0BD01227A
:10E77000F6E70000FEB50F46064600F0D5FE05465A
:10E780001848854220D001AB01220721284600F01D
:10E79000FFFE04000AD10721284600F0F7FF04001D
:10E7A00004D1394630467EDF040008D007212846D0
:10E7B00000F072FF002802D0052800D003240120B9
:10E7C0000090002C0BD002E00324002000900022D7
:10E7D00001232946304602F0DDF92046FEBD012224
:10E7E000F6E70000FFFF0000F7B5114D0F46164693
:10E7F00029780098FDF7E4FD002812D00098FFF773
:10E80000ADFD04460B4884420BD069780098FDF7B3
:10E81000D7FD002806D033463A462146009800F03E
:10E8200059FDFEBD324639460098FEF7E5FBFEBDB8
:10E83000D4200020FFFF0000F1B586B00698FDF758
:10E84000B3FD002821D06846FDF7E2FC00246E46A7
:10E8500018E060008519A8880699FDF7B1FD002829
:10E860000FD00B4FA888B978FDF7AAFD0590A888AE
:10E87000F978FDF7A5FD0146A8880123059AFFF761
:10E8800083FE641C0098A042E3D807B0F0BD0000EE
:10E89000D8200020F0B5284C2146103948688B68F4
:10E8A000227886469C46CF78667836E01823534314
:10E8B0006168521CC918A378D2B2934200D10022D9
:10E8C0000B78022B02D0032B27D123E003464D689F
:10E8D000194603E0A94204D00B46C96900291CD09F
:10E8E000F8E7002919D08B4208D1C069002805D16A
:10E8F000124F0125BD600025AC4601270D68C9698E
:10E90000D961002909D00B685B190B6005E001741F
:10E91000C06900E000210028F9D19642C6D106491D
:10E92000624610398A604860CF70704501D001207E
:10E93000F0BD0020F0BD0000482100200010014083
:10E94000F8B52C4E044670680025009041E0002C7C
:10E9500002D02046E46920E02648182310300178D0
:10E9600042684B43491CC9B2D2180170837899425E
:10E9700000D105701178506801292CD1017C002943
:10E9800029D191684160D16881601169C160516984
:10E990008161F178002900D045604368B268164F64
:10E9A000991A0902090AB94202D28268891806E056
:10E9B000D11A09028268090A8A4202D9511A0160F1
:10E9C00000E005604560012185600174C56102F0C9
:10E9D0008FFE002CBBD1074810300178407881426F
:10E9E000BAD171680098814201D00120F8BD0020A1
:10E9F000F8BD000038210020FFFF7F00FEB504466F
:10EA00001948002684422DD02046FFF7B3F90500AF
:10EA100012D00B2D14D0112D10D01448C5421BD08C
:10EA20000921684601702046FFF798FC01466846B8
:10EA30004180848002950DE0022102E001260BE076
:10EA40000321684601702046FFF788FC01466846AE
:10EA500041808480FEF748FB054832468178204695
:10EA6000FDF7C0FCFEBD0000FFFF0000FECFFFFF72
:10EA70008C200020FEB504460026FFF7B1F90546BC
:10EA8000112818D004DC002D13D00C2D05D114E072
:10EA9000862D25D01348C5421BD009216846017038
:10EAA0002046FFF75BFC0146684641808480029562
:10EAB0000DE0012102E001260BE00721684601700C
:10EAC00084802046FFF74AFC014668464180FEF7F5
:10EAD0000BFB0548324641782046FDF783FCFEBD1E
:10EAE0000821EBE7FECFFFFF8C200020F8B505469C
:10EAF00000780C46002620420FD10020694608709D
:10EB00006846FCF76DFF2878204202D12043287028
:10EB1000012668460078FCF781FF3046F8BD00000A
:10EB200098B002F069FEFDF723FE204601F0A4F83C
:10EB3000FEF780FE3C2101A8FCF725FB0221684678
:10EB40000171012484710621C17103258582234846
:10EB50000690202110A8FCF716FB10A8C470FF2017
:10EB60002D301490B420002415901D4B10AA21467E
:10EB7000009401A8FDF7D6F8002801D0FCF77CFE30
:10EB8000FEF792FE02F0B2F902F06AF81C21684624
:10EB9000FCF7F9FA0520C00301900F200004029051
:10EBA0000094684605730F4881896846C1810474E2
:10EBB0000D4805900D4806906846FDF7B7FA002805
:10EBC00001D0FCF759FEFCF73FFFFCF717FE48DFCA
:10EBD0000028FCD0FCF750FEF9E7000020200020C0
:10EBE0008BEF0100882300204DF00100BDCE010015
:10EBF00070B5144682880E4605462088111D4118BE
:10EC0000921C994201D8FE2A01D90C2070BD521CD9
:10EC100032542088FF21401C80B22080315420884B
:10EC2000401C80B220808119288802F0D4FE2188FF
:10EC3000401880B22080AA88002A09D0A96800293B
:10EC400008D08019FCF778FA2088A988401820801D
:10EC5000002070BD072070BDF8B50F46017814463E
:10EC60000546012902D16878002806D02088821C38
:10EC70009A422DD8012902D006E00720F8BD697814
:10EC80004118891C994223D8181A801E86B26846FA
:10EC900006802188B81C081869467DDF0028EDD160
:10ECA0002878022805D169460988B14201D809218E
:10ECB0000AE00821012805D16878B04202D86A46E6
:10ECC000108001E06846068068460088FE2801D969
:10ECD0000C20F8BD2288401CB8542088401C80B20B
:10ECE0002080395420886946401C208009884018BB
:10ECF00020800020F8BD0000F8B5FF240F4605462F
:10ED000000291FD0104EB5421CD010480122417876
:10ED10002846FDF767FB2846FEF7D2FF0446FF288A
:10ED200004D1FEF7E9FF0446FF280BD00C2148432D
:10ED300007490246401845808E5207223946001D79
:10ED4000FCF7FAF92046F8BDFFFF0000A4200020E0
:10ED5000A026002070B50B4D0E46A84201D1002020
:10ED600000E0401C84B209E02146304601F04CF935
:10ED7000002801D0204670BD641CA4B2FF2CF3D93A
:10ED8000284670BDFFFF0000C20843075B0F01204B
:10ED9000895C984008407047002070477047012107
:10EDA000890740180068002800D001207047000043
:10EDB00000280FD00849094A096800BF00BF00BFFA
:10EDC00000BF00BF00BF00BF00BF914200D000BF26
:10EDD0000138F2D170470000942100200024F40093
:10EDE00070B50E4C00252078002801D0852513E051
:10EDF0000021A16061602161E1600948006801268D
:10EE0000304002D1032100F02FF802F0E7FB002888
:10EE100001D1044886612670284670BDCC2A0020A6
:10EE200000E100E00005004038B5002069460870A8
:10EE30006846FCF7D5FD084C2078002801D1FFF783
:10EE4000CFFFE068401CE0600120A07068460078B9
:10EE5000FCF7E4FD38BD0000CC2A002010B50028E6
:10EE600001D1FDF77FFF10BD8207D30EFF229A402C
:10EE70008907090E10B5994000280BDA03071B0F0C
:10EE8000083B9C080C4BA400E318DC6994430C433A
:10EE9000DC6107E08408094BA400E418236893436D
:10EEA0000B432360C106C90E012088400449086055
:10EEB0000449086010BD000000ED00E000E400E03F
:10EEC00080E200E000E100E00522120780008218E5
:10EED000072000021018026803231B049A430260F3
:10EEE000026809040A430260704705221207800085
:10EEF0008218072000021018026803231B049A439B
:10EF00000260026809040A430260704701228240DD
:10EF10000348002901D082607047C260704700003A
:10EF20000005005038B5084B05241B6800932402E7
:10EF30006B46411805E085005D592D192D69401C6F
:10EF400020C28142F7D838BD781F0200024940181C
:10EF50000021016070470000006000400349401834
:10EF60000068012800D000207047000000600040C9
:10EF70004058002800D00120704703221202801858
:10EF80004068084000D00120704710B5002809D023
:10EF9000032806D10220FDF781FD002801D0FCF7EF
:10EFA0006BFC10BD02F070F810BD000030B50446D7
:10EFB000008889B03A2821D009DC234D022821D0CD
:10EFC000102811D011280DD10020C04314E0512881
:10EFD0001CD0552806D1A088132176DF002801D047
:10EFE000FCF74AFC09B030BD0720FDF757FD0028AB
:10EFF00001D0FCF741FCA0886880F3E7A0881321CA
:10F0000076DFEBE70021688867DFE7E71022A11DC4
:10F0100004A8FCF791F86846017C0029E2D0007E44
:10F02000042803D0062801D00528DBD1022908D006
:10F03000012069460870FF2083308880A088A8DFFF
:10F04000CCE70220F5E700000020002010B5007892
:10F05000002807D104483B21408876DF002801D0F2
:10F06000FCF70AFC10BD00000020002010B5134A78
:10F0700000215170017A012911D002290ED1818914
:10F08000491C8181C189491C89B2C181028A91428E
:10F0900004D1002101F0B2FD01F09EF910BD838A78
:10F0A000C28A991AFF2901DC89B201E0FF210131EE
:10F0B000511889B2C1829942EBD010BD7C21002049
:10F0C000F7B51C4D0E4601466A6F002082B0032A38
:10F0D0002DD82C4678340827636CBF1BBB4226D83A
:10F0E000286F10188007800F1C2250434019FCF72E
:10F0F00023F8686F401C6867002E17D0216C606C85
:10F1000040184007800E00190023009009E0049881
:10F11000D9000A1806CA009806C06846FDF7F8FD2F
:10F120005B1CB342F3D3606C80196064012005B0AE
:10F13000F0BD0000702B00200389CA1C9A180281C0
:10F140004289511AC91E418170470000F7B50D462A
:10F15000012189024718044600260834022028802D
:10F1600012E02046FEF7CAFE002817D00C48A1681E
:10F170004268914200D94160608881000C19298859
:10F180000818C01C28800C34BC4202D22068401CE5
:10F19000E7D10298002800D00670FEBD0126EBE7FB
:10F1A0006421002008B50021009101460223024A93
:10F1B0000248FEF7C9FA08BD881F02009821002006
:10F1C00008B500200090044802230168034A04485F
:10F1D000FEF7BAFA08BD000074210020801F02006B
:10F1E00098210020F8B50025354F2C462E46009575
:10F1F0003448B102006840180168B94205D1324A6A
:10F200004168891830D001290CD000218A00825829
:10F210000346521C36D003202C4922018854641C1A
:10F22000A4B21BE0009900290CD0284B0222210136
:10F230005A54274A1368254A891802224B60641CD5
:10F240000A81A4B2224900220860091DFFF77EFF4F
:10F250001F488088022831D008200543761CB6B2AA
:10F26000032EC5D3E8B2F8BD1849002322018B5400
:10F2700051180A4648600E320831FFF767FF022036
:10F280000543CCE7491CFF29C0D911490A68002A67
:10F290000CD00E4A02212301D1549A1850600B4819
:10F2A000118120304480641CA4B204E002200B6071
:10F2B00088800120009001200543CFE70420CCE79F
:10F2C000DEC0ADDE9821002002FEE10E302C0020D1
:10F2D0007421002070B5184D0E46044623CD86B02B
:10F2E0000295009001916846448082808371134D9D
:10F2F0002046A978FDF764F8002803D03046FFF7D0
:10F3000017F80FE00721304600F0C6F9002809D0B1
:10F31000052807D1092269460A73CC81049003A805
:10F32000FDF70AFF002229782046FDF75BF86846C2
:10F33000FDF702FF06B070BD5C1F0200D420002064
:10F34000F0B585B00746FDF72FF8002814D06846C1
:10F35000FCF75EFF00246D460BE060004619B088A4
:10F360003946FDF72DF8002802D0B08802F080F869
:10F37000641C0098A042F0D805B0F0BD70B5054DF2
:10F3800006460024A000295830468847641C052CF6
:10F39000F8D370BD1C1F02003EB50F4D0024142091
:10F3A0006043401902F024FC641C082CF7D30821A8
:10F3B000502001910A490124C2000290074B009499
:10F3C000881800F0CCFC002801D003203EBD034883
:10F3D000447000203EBD0000A0290020BC20002079
:10F3E0001027002010B500F043FA10BD10B500F052
:10F3F00043FA10BDF0B5002585B000950195029542
:10F4000003950446418868464180217901712E4662
:10F410002179608802F0C6FB22780421404F130056
:10F42000FCF794F80A0606361C1C383E43484B4D40
:10F4300000280DD0417CC9070AD002F0EBFB6846DA
:10F4400006702078012800D00020694608722AE062
:10F45000012069460870A068029024E000280ED0C0
:10F460008268A3689A420AD1427CD30707D07B689E
:10F4700052085B1C52000A437B6042741FE002206A
:10F4800069460870E06803900DE0FFF777FF16E02B
:10F49000032006E068460170E06802906846F4E7E1
:10F4A0000520694608700846EFE70620694608709F
:10F4B000E068D1E701250720F3E7E068029078686B
:10F4C000002824D0174E0024142027464743B8199B
:10F4D000417C4A0703D48907C90F29421CD081788F
:10F4E000F05B00F0EFF8002816D014214C43325B9B
:10F4F00069464A80B9198A7869460A71862808D00F
:10F5000009216A46117002906846FFF737FF05B07F
:10F51000F0BD08200870F7E7641C082CD4D3F6E788
:10F52000BC200020A029002010B500F06BFA10BD0F
:10F5300010B5002300F0D6F910BD38B505460024FB
:10F5400020460AE08178284600F0A6F8002802D07C
:10F55000052800D003240098401C009069462846E6
:10F5600002F032FB0028EDD1002C07D1284600F034
:10F5700051FA002802D0072802D00324204638BDC3
:10F580000724FBE710B51346002200F0E3F910BD95
:10F59000FFB581B0049815460E46002804D0072E0A
:10F5A00005D0082E19D102E00E2005B0F0BD002DC7
:10F5B00013D0082D11D8019800F037FA00280CD08C
:10F5C000002000903146019802F0ECFA041E26D08B
:10F5D000E068A84212D2002709E00720E5E7207C76
:10F5E000C019C1B22A4800F0F2FB7F1CFFB2E068EC
:10F5F000B842F4D8204602F0FBFA10E0A84217D92E
:10F60000EFB207E0207CC019C1B2214800F0DFFB57
:10F610007F1CFFB2E068B842F4D8002C08D1FF216B
:10F620001C48019F02F0BEFA041E05D00780A67098
:10F63000207CFF2802D00AE01120B6E729461448B2
:10F6400000F05EFB2074FF2813D001200090E560DD
:10F65000217C0F4800F0A4FB02000ED0ABB2314673
:10F66000049800F073FA009800280FD0082E06D0F6
:10F670000CE0204602F0BCFADEE7032095E7049890
:10F680000499008849688000801F888000208CE7EA
:10F6900090290020FFFF000070B5002402F082FADC
:10F6A00005000CD06868002804D000F0DAF90400E6
:10F6B00000D00324284602F0ADFA204670BD052094
:10F6C00070BD00007CB50D460646072903D0082D05
:10F6D00001D007207CBD0020009001906846857015
:10F6E0002946304602F05EFA040004D0607CC00770
:10F6F00003D000207CBD05207CBD217C214800F08A
:10F700004FFB020025D029466846E36800F0B1F9B6
:10F71000684602F035FA2346083369463046626887
:10F7200000F018F90246607C1749430704D58307A7
:10F7300002D54B685B1E4B60FB25FD23002A0AD0D7
:10F74000112A0DD0862A14D0072A00D00322104691
:10F750007CBD03207CBD01210843284018400EE0F9
:10F760004A68521C4A600421084318406074002211
:10F77000EDE74B6828405B1C4B6002210843607436
:10F78000E5E7000090290020BC2000207CB50D4654
:10F79000072903D0082D01D007207CBD002602F0E8
:10F7A00001FA040003D06068002802D01BE00520A5
:10F7B0007CBD217C0E4800F0F3FA02460020009048
:10F7C000019068468570002A0FD02946E36800F052
:10F7D00050F9684602F0D4F9211D684600F029F975
:10F7E0000646092801D030467CBD03207CBD0000C0
:10F7F000902900200149096808470000181F0200ED
:10F8000070B588B01748FDF747FE002802D00320E6
:10F8100008B070BDFDF77EFD002801D08620F7E717
:10F8200000F0EAF90020104C0290E61F03900DE072
:10F83000694604A8FDF7F4FD00988088801B85B216
:10F8400004A8FDF7ABFD284600F08AF902AA04A936
:10F850002046FDF7CAFD0028EAD0044901200870BF
:10F860000020D5E765D1010007C00000B0200020CE
:10F8700010B500F09FF910BD10B500F0A3F910BD50
:10F8800070B505460320800386B014460E4628183E
:10F8900080B20F4A6946FDF7A8FD002805D103A9EB
:10F8A0006846FDF7BDFD002802D0002006B070BDFF
:10F8B000A570039840882080049860600398808831
:10F8C000FDF73AFE30806846FDF768FD0120EDE760
:10F8D000B420002002480021416081607047000090
:10F8E000B0200020F0B587B01D46144607460E46EE
:10F8F000FF280CD8084600F019F9002807D003AA01
:10F900003146384600F0FAF8002809D102E0072015
:10F9100007B0F0BD01A903A8FDF782FD002801D0C2
:10F920000520F5E7A6700198002D408820800AD0B8
:10F9300082002868904204D802996068FBF7FCFBBB
:10F9400003E00420E4E70298606003A8FDF726FDC9
:10F950000020DDE77FB588B01D460C460646FF282F
:10F9600034D8A07800F0E2F800282FD06068069024
:10F97000208869468883304600F078F96946088017
:10F98000A0780321890340186946488006A80190A1
:10F9900001200881A17803AA304600F0AFF80528BD
:10F9A0000A9815D0002802D00AA8FDF7A1FD6946E3
:10F9B00003A8FDF757FD002817D007281FD00828F7
:10F9C0001BD00E2819D003200CB070BD0720FBE718
:10F9D000002805D00AAA694603A8FDF753FDEAE707
:10F9E000694603A8FDF748FDE5E7002D03D0294649
:10F9F00003A8FDF70AFD0020E6E71120E4E78620D2
:10FA0000E2E7000010B5024800F0AAF810BD0000BF
:10FA1000FFFF000010B5FF2801D9072010BD00F03E
:10FA2000A7F800F02BF8002010BD10B500F0F8F892
:10FA300010BD70B504460D46807800F077F80028B8
:10FA40000BD021882846FDF739FD002804D007286F
:10FA500005D0092800D0032070BD072070BD862086
:10FA600070BD01B56846FDF743FD002800D00320B6
:10FA700008BD10B59BB200F069F810BDF0B589B0B3
:10FA800000261C4F04963846059603E0204600F0F9
:10FA900083F8204600F08EF80446B84207D000F004
:10FAA000E5F804AA06A9FDF7A8FC0A28EED0124D35
:10FAB000A878002819D1BC4217D003208003012761
:10FAC0002018AF7080B2FDF7DBFB08280FD00028AC
:10FAD0000BD0AE70092269460A704C80FF220A7171
:10FAE000039002966846FFF785FE09B0F0BD6F707F
:10FAF000FBE70000FFFF0000B02000207CB50546BA
:10FB000016460C46084600F011F80020032100902C
:10FB1000890301906818611880B289B26B46324639
:10FB2000FDF75CFC002800D005207CBD07280BD029
:10FB3000012809D0082807D0052805D0062803D0B9
:10FB4000042801D0002070470120704710B55024D0
:10FB500063439BB28170DB1C99084260018010BD39
:10FB600010B50249FDF7E0F810BD0000402A002062
:10FB700010B504460648844207D006492046FDF7E2
:10FB8000D3F8A04201D1012010BD002010BD00001B
:10FB9000FFFF0000602A002010B50446044900F071
:10FBA00013FE03492046203100F00EFE10BD000078
:10FBB000402A002010B50249FFF7CCF810BD000024
:10FBC000602A002070B50A49FFF7C4F80446094DC1
:10FBD00008E000F031F8002807D005492046FFF77B
:10FBE000B9F80446AC42F4D170BD204670BD0000A7
:10FBF000402A0020FFFF000010B508484021FBF715
:10FC0000C2FAFF2401342146044800F0CDF903482C
:10FC10002146203000F0C8F910BD0000402A002025
:10FC200010B5FF2804D80146024800F0EDF910BDD8
:10FC3000002010BD402A002010B5FF2804D801463E
:10FC4000024800F0E1F910BD002010BD602A00203C
:10FC500010B50C46FEF734F8FF2803D00C214843BA
:10FC600001490C5210BD0000A02600200321890389
:10FC7000401880B2704700001CB5044600F052F9ED
:10FC8000002801D0FBF7F8FD002C05D000F0A0FA09
:10FC9000002801D0FBF7F0FD00200090019068469D
:10FCA0000078012210438D21084030304106490E72
:10FCB000684601700721417010218170C3780221CC
:10FCC00013430B43C370037913430B43037100F0D9
:10FCD000B5FA002801D0FBF7CFFD074800F096FAEF
:10FCE000002801D0FBF7C8FD0448FDF7D5FB00282C
:10FCF00001D0FBF7C1FD1CBD01FE010061D1010077
:10FD0000F8B50F46060028D03068002825D0706866
:10FD1000002822D0FF2400251CE02946706800F04E
:10FD20004BF9002808D0FF2C00D12C46281B401C82
:10FD3000B8420DD12046F8BDFF2C06D108E021467F
:10FD4000304600F044F8641CE4B2AC42F7D3FF2420
:10FD50006D1CEDB2B068A842DFD8FF20F8BDF8B541
:10FD60000400069E089D079818D0002916D0002B85
:10FD700014D007466F43974210D8C21DD208B24232
:10FD80000CD800280AD0002D08D0E560A0600AC475
:10FD900081B2184600F008F90020F8BD0720F8BD30
:10FDA00070B504000D4610D0206800280DD06068A2
:10FDB00000280AD0FF2D08D000F026F9002804D032
:10FDC000E06821686843081870BD002070BD70B5F8
:10FDD00004000D460FD0206800280CD06068002871
:10FDE00009D0FF2D07D000F00FF9002803D02946D5
:10FDF000606800F015F970BD10B501F063F910BD31
:10FE000008B501780B00FBF7A1FB0F0F0F0F0F09CF
:10FE100010230F210F231B230F1E0F000021009121
:10FE200040886946FFF7E8FF08BDFDF74FFA0E2846
:10FE3000FAD00828F8D00028F6D0FBF71DFD08BD41
:10FE4000FBF7DCFC08BD00F0A5F808BD0069F2E78F
:10FE50008068F0E770B586B0044614216846FBF769
:10FE600092F9608869468880FEF7ACF96946488057
:10FE7000267800200822072105253300FBF766FBC2
:10FE80000A06060B0D0F1416281A1D256B4619704D
:10FE900058721A7219E00D2009E00E2007E06A4638
:10FEA00011705072157210E00F2000E010206946AA
:10FEB00008700AE06846057007E006216846017090
:10FEC000A0680290A188684641806846FDF720F945
:10FED00006B070BD10B50446007886B000281AD070
:10FEE000012816D10E49608801224979FCF77AFA77
:10FEF00014216846FBF747F96088694648806088A6
:10FF0000FEF72CFA69468880002008706846FDF7E5
:10FF1000FFF806B010BDE08800F04EF9F9E70000E8
:10FF2000C420002070B5FFF76BFC00282ED1FFF72E
:10FF300033FA00282AD101F0D3F8002826D101F0A5
:10FF4000D9F9002822D1FDF769FE00281ED1FDF75E
:10FF5000F9FE00281AD1FEF74BF9002816D10C4CF7
:10FF6000401EE08000251820A56020716071FCF71C
:10FF700003FA2071182809D0FCF7FEF960711828DF
:10FF800004D0657001202070002070BD032070BD7A
:10FF9000C420002010B503480078002801D0FDF7E8
:10FFA00061FE10BDC420002010B5002803D0C91D7B
:10FFB000C908FBF7E8F810BD10B5002809D04B07B9
:10FFC0005B0F01229A40C908D2B208181146FEF709
:10FFD0008DFD10BDF8B50D46060013D00024012795
:10FFE0000EE06107490F38468840C1B2E008801929
:10FFF000FEF77CFD002801D02046F8BD641CA4B2A9
:020000040002F8
:10000000AC42EED32846F8BD002807D0CA08805C71
:100010004A07520F01219140084000D0012070474B
:10002000F8B504464805050E4907490F01208840E8
:10003000C6B2002C0ED0605D30420BD00021684665
:100040000170FBF7CDFC605DB043605568460078F9
:10005000FBF7E4FCF8BD000010B504460648007844
:10006000002808D02046FEF759F8204601F020F875
:100070002046FDF711FD10BDC4200020F0B58BB067
:10008000044614216846FBF77EF86088694688803C
:10009000FEF798F869464880277801200822072152
:1000A0000026434D3B00FBF751FA0A060E20353B74
:1000B000435F80787A806A46117021791172567296
:1000C000039690726EE06A46117021791172567231
:1000D000A16803919072A868002863D0A16881424A
:1000E00060D1AE609088E88012E0684602702179A5
:1000F00001724672A0680390E0680490A868002826
:1001000050D0A16881424DD1AE60E868401EE860E1
:10011000039647E06A461170217911725072F7E731
:1001200069460A7022790A724872A068049039E020
:10013000092069460870A878002833D01D4C204655
:10014000FFF754F9A0422DD12046FFF74BF9A0420A
:1001500028D1AE70142105A8FBF715F80B216846CD
:1001600001750483C48214E00A2069460870A068FF
:100170000290A878002815D0AE70142105A8FBF7CE
:1001800002F80C20694608750A480883C882A068EE
:10019000079005A8FCF7BCFF04E0052000E006205E
:1001A000694608706846FCF7B3FF0BB0F0BD00006D
:1001B000C4200020FFFF000010B504490978002981
:1001C00002D0FEF7B5F810BD082010BDC4200020F5
:1001D00070B50C480178002904D001210A4D8170C6
:1001E000284608E0082070BDFFF7E6FF002801D090
:1001F000032070BD2046FFF7F9F80446A842F3D16A
:10020000002070BDC4200020FFFF000010B5094A87
:100210001178002904D0D178032903D3042010BD1C
:10022000082010BD8B00044C491CE050D170002008
:1002300010BD0000C4200020802A002010B5044911
:100240000978002902D000F08DFF10BD082010BDF4
:10025000C4200020F0B585B004460126142168466C
:10026000FAF791FF6088694648804B4F2078002557
:1002700039797A790300FBF769F90D828D081C3012
:10028000424C5159646A6C7E820001206A461070AB
:100290002079002801D0012200E00022012806D0A8
:1002A00000256088FCF79EF860882A4611E0012549
:1002B000F7E702206A4610702079002801D001205B
:1002C00000E00220107260880122FCF78BF822798E
:1002D00060887979FCF786F852E003206946087057
:1002E00060881146FCF76CF8002801D0012100E07D
:1002F000022168460172A1790173A18839E0608802
:10030000FCF75EF8002845D10220694608700D729E
:1003100036E00321684601700572ECE70720694664
:100320000870A2888A8008724D7230E00821684601
:100330000170A1888180072101724572A068049034
:1003400025E00620694608706068029018E00520E4
:1003500012E003206946087060881146FCF730F807
:10036000002801D0012100E00221684601720B49FA
:100370000573418104E004206946087000E000260E
:100380006088FDF7EBFF69468880002E02D0684642
:10039000FCF7BEFE05B0F0BDC42000200111000036
:1003A00070B50D00044602D10020FBF765FA002C61
:1003B00002D10020FBF760FA28782070698861700C
:1003C000090AA170A988E170090A2171E8886071A1
:1003D000000AA07170BD00000848416E491E4166C8
:1003E00004D10749FD230A781A400A70016E491C9E
:1003F0000166042901D1002101667047602C0020AC
:100400007C21002070B50C490446486E042810D0A9
:100410000A6E1218042A00D3121F401C48661820C6
:100420004243551801462846FAF7ADFE01202560E3
:1004300070BD002070BD0000602C0020F0B52B4C7A
:100440001C22216F85B051430D192978284E0027B1
:100450000B00FBF77BF807190509090D0D111900B1
:100460002946FDF7ADFF09E0294601F073FC05E0E0
:100470002946FCF75BFD01E0FDF724FA00282FD0A8
:10048000B04202D1019710E00F2001902878022895
:1004900001D0032809D11548AA7D7830016C89184C
:1004A0000164AA7D416C891A416469462846FCF7BB
:1004B000BBFD6846FCF7EEFD206F1C214843001988
:1004C000FAF761FE606F00280CD0216F491C890784
:1004D000890F2167401E606704D00020FFF7AEFF40
:1004E00005B0F0BD0420FDF739F8F9E7702B0020C6
:1004F0001D1D000010B518481822016E51430C183C
:10050000406E00281FD0207A012802D0022816D180
:100510000FE0A18AE08A091AFF2901DC8AB201E012
:10052000FF220132E168800023690918181829DFC9
:1005300001E0A08928DF112806D0002803D0092176
:10054000204600F05BFB10BD0449FD2208781040F6
:1005500004221043087010BD602C00207C21002074
:1005600010B505480078400705D40420FDF710F8C1
:100570000020FFF763FF10BD6421002010B505487F
:1005800001784A07920F04D1022211430170FFF74C
:10059000B1FF10BD7C210020F8B507461D481C4660
:1005A000007815460E46800701D40220F8BD002DC4
:1005B00001D0002C28D10520F8BD01011648405C6F
:1005C00000281ED116E02068002F03D081883A88C9
:1005D00091420FD1002E03D001883288914209D177
:1005E00080682860206868600B4820300089288176
:1005F0000020F8BDA088214600F060F80028E2D174
:100600002060A088401CA080A0880228D5D30A20A2
:10061000F8BD000064210020302C0020F8B505460C
:100620004068244F00260C46002828D022490A683A
:10063000824224D84968814221D3FDF79EFF0028D9
:100640001DD028893989884219D103CD083D8A688F
:10065000904214D13A460020203A0125AD02030110
:100660009B185B688B4204D25B198B4201D92080B6
:1006700011E0401C80B20228F1D30020F8BD268092
:1006800000960AE0009829688068884205D10098A1
:100690006860388928810120F8BD2088694600F00B
:1006A0000DF80028EED12088401C80B2208002285E
:1006B000E6D3E2E7502C002098210020F8B50E4642
:1006C0000A68124900014518002A04D050888000A9
:1006D00084180C3401E06C6808340127BF02686894
:1006E000C019A0420FD92068401C0CD02046FDF74D
:1006F00005FC002802D001203460F8BD608880002D
:1007000004190C34EBE70020F8BD0000302C002069
:1007100038B50C460021009101460123074A0848DC
:10072000FDF712F8002801D00E2038BD054A21013E
:10073000012089188873002038BD00007C1F02004A
:1007400098210020302C002003218903401AC0B2D8
:100750007047000003218903401A0349884201D8E9
:100760000120704700207047FE3F000038B5044666
:1007700013480025436C002B08D0026CD500521C96
:1007800052072D18520F5B1E436402640020009034
:10079000A08AAB88800041180A482A68FCF7D4FF79
:1007A000A18AAA888918A182A17D491E0906090E7D
:1007B000A17501D101212174002800D00E2038BD7F
:1007C000E82B00209821002010B50A46FF2803D806
:1007D00001461046FFF724FC10BD000010B520486C
:1007E000007800283BD01E481E49183000F08EFAD1
:1007F00081B21C488038FBF78BFF19481949183023
:1008000000F084FA81B217488038FBF781FF144862
:100810001449183000F07AFA81B212488038FBF798
:1008200077FF0F480F49183000F070FA81B20D4879
:100830008038FBF76DFF0A480A49183000F066FA65
:1008400081B208488038FBF763FF05480549183036
:1008500000F05CFA81B203488038FBF759FF10BD05
:10086000002000200824002070B501240B496004FA
:1008700008600B4940108860094940398860094D7B
:100880006C602F20FEF794FAAC60074D00242F20F7
:10089000AC60FEF78DFAAC7070BD000080E100E046
:1008A00040130140001001403821002030B5FF22E4
:1008B0000523CD7D002409321B02C318002D84506E
:1008C000986905D04B7ECA68D054487E401C487653
:1008D00030BD1FB501246B461C701972019206C809
:1008E000684690471FBD000010B50446FAF74AFE5F
:1008F00000280CD0A007C00E002C0ADA2107090F2F
:1009000008398908144A89008918C96906E013481A
:1009100010BDA108124A890089180968C14008065B
:10092000800F042811D200280FD002280DD00D49C5
:100930004B68E206D20E01209040002B08D06209DD
:1009400092008B5803438B5004E00448401C10BDB8
:1009500005490860002010BD00ED00E00120000006
:1009600000E400E05C21002000E100E070B5049D9F
:10097000002819D0002917D0002A15D000246600BD
:10098000865B9E4211D100200123A3400AE0002D86
:1009900003D00C1826781E4302E00C1826789E43DC
:1009A0002670401C9042F2D370BD641C082CE6D324
:1009B00070BD000070B5054600242146284600F0B1
:1009C0000DF8002801D0204670BD641CA4B2082C8C
:1009D000F3D3014870BD0000FFFF000001228A40F0
:1009E000024201D0012070470020704710B50C462C
:1009F00003000CD000204100595A914204D181B229
:100A00002046FFF7EBFF10BD401C0828F3D3002061
:100A100010BDF7B5002086B017460D46009000299E
:100A200013D000246E46A1B23846FFF7D7FF002846
:100A300008D0009960004900285A891988800098D8
:100A4000401C0090641C082CEDD3142269460698C3
:100A5000FAF772FB09B0F0BD08B500931346012206
:100A6000FFF784FF08BD0000F0B5054687B00C30E5
:100A700000270090FDF782FC0646264C2888694630
:100A8000C880A64203D12888FDF768FC0646A64226
:100A900013D004AA07213046FEF74AFD00280CD1E6
:100AA000059C3434207CC00706D1204612300099C2
:100AB000FDF7ECFB002800D02746002328881A46C3
:100AC000394686DF002808D009216A461171029054
