:1000000008080020AD090000470A0000530A00005C
:1000100000000000000000000000000000000000E0
:10002000000000000000000000000000710A000055
:100030000000000000000000730A0000750A0000C4
:10004000F3080000770A000055070000790A000055
:100050007B0A0000000000007D0A00007F0A00000B
:10006000810A0000830A0000850A0000870A000058
:10007000890A00008B0A00008D0A00008F0A000028
:10008000910A00000D040000930A0000950A000088
:100090009D040000970A0000990A00009B0A0000D6
:1000A0009D0A00009F0A0000000000000000000000
:1000B0000000000000000000000000000000000040
:1000C00010B58207D30EFF249C40E2438907090E36
:1000D0009940030004D599481B071B0F083B00E01B
:1000E00097489B089B00C01803681A4011430160A1
:1000F00010BD000000280FD092490968BF4A00BF18
:1001000000BF00BF00BF00BF00BF00BF00BF9142E3
:1001100000D000BF0138F2D1704738B5802080028E
:100120008949086089488021490201640160B44C12
:10013000012525602F20FFF7DDFF6560B14C00250C
:1001400025612F20FFF7D6FFA57231BDF8B5AD4A66
:100150001378D0680090002117E02500E469002C96
:1001600013D0B442F9D1A54207D1FE69D660002E62
:1001700003D1A54E30601161D0722068E469EC6152
:10018000002C02D025682818206001205478A34252
:100190001BD0546818255D4364195B1C9578DBB24D
:1001A000AB4200D100232578022D02D0032D05D0CB
:1001B000EBE76668D7683D002C00D0E7D0680028E0
:1001C000E3D00174C069D060F8E7D268009B9A421E
:1001D00000D10020F2BDFCB58A4BD9680191002105
:1001E00000E0DC60012200282DD11C785D78AC4253
:1001F00056D05D6818266643AD19641C9E78E4B23B
:10020000B44200D100241C706C682E78012EECD111
:10021000267C002EE9D1AE686660EE68A6602E6985
:10022000E6606D69A561DD7A002D00D061601D6911
:1002300066680096761B3602360A974FBE4205D294
:10024000A56875190AE00400E069F0E7009EAD1B9F
:100250002D022D0AA668B54202D2751B256000E06A
:1002600021606160A1602274E161DA68002AB8D07F
:1002700016682568AE4203D3751B1560E261B0E7CE
:1002800016003768AF4205D2ED1B3200F669002E2A
:1002900002D0F6E77F1B37602560E661D461A1E7F5
:1002A000D868019B984201D00120F6BD0020F6BD20
:1002B000FEB55448C06800283DD0006802908E4CBE
:1002C000206800904F48006901908C4D009801997A
:1002D000461A2E40F61C8027BF024A48807A002822
:1002E00010D1874879080164016086480760864814
:1002F00007600120854908602F20FFF7FBFE0120E1
:10030000404988720298864200D2060001988019FE
:100310002840E0632168009A801A2840891A0D401D
:10032000ED1CA84209D22068E0632F20FFF7E2FE0F
:1003300077480760F7BDFFF7F0FEF7BD1CED00E062
:1003400000E400E00000002080E100E0081301402C
:10035000F0B585B000242B4D28690390E96802911F
:100360002A7A11006B7A9A420FD0491CC9B202292D
:1003700000D100218A00AA18526901928018000257
:10038000000A28610120009001E001940094297284
:10039000FFF7DCFE0600E868009900291FD00199EC
:1003A000009413E0C91A009EF31800930023136011
:1003B0000190D069D368002B08D0039E009FF619E6
:1003C0003602360A56609360D461019C002805D03D
:1003D000020013689942E5D2591A11600126E860BB
:1003E0002000FFF7F8FE002801D1002E02D002986D
:1003F000FFF75EFF0020E87205B0F0BD0024F400B6
:10040000041001409808002008100140F8B5424847
:100410000026066446648664C664066046603D4CF9
:10042000E568002D36D00096334800682169401AEF
:1004300007023F0A2868874219D33F1A0099081813
:1004400000902800ED69017C00290ED006744269F5
:100450008169E369180006D010009847002804D08D
:1004600000F05EF801E008009047002DE2D1607ACC
:10047000217A814205D1401C6072C0B2022800D1AD
:100480006672607A800020180099416180204003E4
:100490001F490860F1BD0000FFFF7F0080B5FFF736
:1004A00057FF01BDF2B5070014001E00A00701D1DF
:1004B000002C01D10720F2BDFFF72FFE154DEE6194
:1004C0000020288069460978A9706C60E86028815E
:1004D000802464030B48046003211420FFF7F0FD1F
:1004E000094804600D4C676003211120FFF7E8FD07
:1004F000206828610020F2BD04150140FFFFFF00C5
:100500000413014080E200E000E100E0001001403F
:1005100000E200E0980800200011014004150140AD
:1005200010B584B0040068460C2100F021F8029454
:100530006A460021014800F01DF81FBD014000007F
:10054000130030B414001500103902D310393CC028
:10055000FCD2490700D30CC000D504C0890002D3E7
:100560000280801C002900D5027030BC704700005A
:100570000022E5E7BFF34F8F034804490860BFF34B
:100580004F8F00BFFDE700BF0400FA050CED00E04F
:100590004058002804E0C122920080580140080021
:1005A00000D00120C0B2704700228E235B00C250F1
:1005B0008A688B8AD25C8B8A5B1C8B821949425079
:1005C000704710B5A322D200821884235B00C018A4
:1005D0000023CC7D002C036001D1106810BD487E43
:1005E0001268CB681A54487E401C487610BD1FB56F
:1005F00003006846012404700172019219685A6868
:1006000090471FBD00B585B0020000206B461870F2
:100610001972916801919075116868465268904707
:1006200005B000BD1C050000F0B585B006000C004B
:100630008125AD00002780218900FFF7ACFF00284D
:1006400026D0922149003000FFF7A2FF00281FD0DA
:100650008E20400030188760C22080003550A07E78
:10066000002801D1012070606846022101709021AC
:10067000C90071180A680A600392E17D0172E0689E
:100680000190E775277621686846626890472DE0FB
:1006900004213000FFF77FFF002827D08421490084
:1006A0003000FFF775FF002820D021003000FFF751
:1006B00088FFE07D617E884218D1207E002807D027
:1006C000E268617EE0752069E060277667760AE07F
:1006D000A07E002801D101207060C220800035502A
:1006E000E775E268617E2000FFF781FF8E214900F7
:1006F0003000FFF74DFF002811D0A08AA17D88426D
:1007000004D221003000FFF74FFF08E08E204000A8
:100710003750A17D002902D02000FFF773FFA221EE
:1007200049003000FFF734FF002811D08E20400030
:1007300030188762A07E002801D001203060E07D63
:10074000002805D0E775E268617E2000FFF74FFFC3
:1007500005B0F0BD80B503490348FFF765FF01BD53
:1007600000000000B80800200020004010B5F02074
:100770000F2228490B78012B1BD14B68134018D14D
:100780008B68034202D1CC6804400CD0F0241C409A
:10079000102C02D1CC68044005D00340302B08D186
:1007A000CB68034005D11C4B1C4C2360E30B1C4C55
:1007B00023600B78012B0CD14B68134009D18B6857
:1007C0000340402B05D1CB68034002D10123154CD7
:1007D00023600B78012B1BD14B681A4018D18A6813
:1007E000F0231340A02B02D1CB68034005D0024078
:1007F000D02A0DD1C96808400AD10B4801680129E7
:1008000004D00A49016001680129FCD1C02141617D
:1008100010BD0000E00F00F0DFFF07C0040500403E
:10082000186C00400806004000EC0640759300007C
:10083000FA21890048430FD01C4909681C4A00BFAF
:1008400000BF00BF00BF00BF00BF00BF00BF91429C
:1008500000D000BF0138F2D1704701228240154814
:10086000002901D1426070470260704710B5002333
:10087000114A06210020FFF715FE002801D0FFF7DE
:100880004FFE03200D490860FA2464002000FFF7A2
:10089000CFFF00211320FFF7E0FF2000FFF7C8FF84
:1008A00001211320FFF7D9FFF0E70000000000202E
:1008B0000024F40008050050080800204C070050F0
:1008C0008021C9050858002800D00120C0B2704717
:1008D00038B50400174D01D1083506E0103504E0A5
:1008E0000868286020004968884729680029F7D1EE
:1008F00031BDF8B501240F4F104D00262002FFF73F
:10090000DFFF002806D02E600B4804607C700020BA
:10091000FFF7DEFF82204000FFF7D2FF002807D05C
:100920006E60022004490860BC700120FFF7D0FF10
:10093000F1BD0000D4080020080300400001004081
:1009400070B40121002313E00468001D0C4202D0A2
:100950004D466D1E64192360241D121F042AFAD20D
:100960002500960701D52380AD1C0A4000D02B70CE
:100970000268001D002AE7D170BC704730B4012125
:100980000268001D002A0FD00368C31844680830AD
:100990000C4202D04D466D1E64191D6825601B1D5A
:1009A000241D121FECD0F8E730BC70470321064825
:1009B00002680A430260054802680A43026004486C
:1009C00080470448004700002405004054050040CB
:1009D0006D070000610A000010B50749794418311D
:1009E000064C7C44163404E0081D0A6889188847C0
:1009F0000100A142F8D110BD08000000280000004D
:100A000041FFFFFFE0000000080800200000000098
:100A10006DFFFFFF040000005400000000000020F4
:100A2000000000000120C046002801D0FFF7D4FFDD
:100A30000020C046C046FFF719FF00F000F880B55F
:100A400000F002F801BDFEE70746384600F002F864
:100A5000FBE7FEE72021090326311820ABBEF9E7AA
:100A6000C046C046C046C046FFF7DCFF0024F40085
:100A7000FEE7FEE7FEE7FEE7FEE7FEE7FEE7FEE74E
:100A8000FEE7FEE7FEE7FEE7FEE7FEE7FEE7FEE73E
:100A9000FEE7FEE7FEE7FEE7FEE7FEE7FEE7FEE72E
:0400000500000A618C
:00000001FF
