:020000040000FA
:10000000C0190020410100005B0100005D010000FB
:1000100000000000000000000000000000000000E0
:10002000000000000000000000000000D5000000FB
:10003000000000000000000001010000630100005A
:100040005D03000065010000A104000065010000DF
:100050006501000000000000E501000065010000EE
:1000600065010000650100006501000065010000F8
:1000700065010000650100006501000065010000E8
:1000800065010000B103000065010000650100008A
:1000900065010000650100006501000065010000C8
:1000A0006501000065010000000000000000000084
:1000B0000000000000000000000000000000000040
:1000C0000348854600F07CF800480047A906000078
:1000D000C01900200848006880F30888174B196889
:1000E0000868203080F30988022080F314883FBC20
:1000F000AE4662B600BD0000000000000000000037
:10010000EFF309800D4B1A6820381060F0C04446A8
:100110004D4656465F46F0C008B500F0B8FF0CBC2F
:10012000116808681030F0C8A046A946B246BB4620
:1001300080F309882038F0C8184700001400002018
:100140000321094802680A430260084802680A431A
:1001500002600748804707480047FEE7FEE7FEE7E2
:10016000FEE7FEE7FEE700002405004054050040DE
:1001700001040000C100000003460B439B0703D0AD
:1001800009E008C9121F08C0042AFAD203E00B785C
:100190000370401C491C521EF9D27047D2B201E0D4
:1001A0000270401C491EFBD270470022F6E710B5D2
:1001B00013460A4604461946FFF7F0FF204610BDD5
:1001C000064C0125064E05E0E36807CC2B430C3CAA
:1001D00098471034B442F7D3FFF776FF881B00002E
:1001E000A81B0000F0B50024FF268BB001360125C6
:1001F00027460694304600F07DFB002807D054487F
:100200004068284203D0304600F06CFB2C43361D7A
:100210006D007F1CB6B2042FECD3FF257D35284638
:1002200000F068FB002809D0284600F05BFB680757
:10023000044306AA0121002000F040FB454D2007A1
:1002400014D00127002627420CD04348B2001118D1
:1002500008690969C004C00E8903AA58890F002AD9
:1002600000D090477F00761C042EECD3002C6DDA72
:1002700000200890401E63E0281940300778B90636
:10028000890E009100214156491C49D009A90098C6
:1002900000F050FA002843D0B8090190009800F00F
:1002A00091F980002F580198002F02D0032802D026
:1002B0000DE0032834D1009808ABC20841079446EA
:1002C000985C490F01228A40104362469854009876
:1002D000052109078000401807210902401800681D
:1002E00006A98003800F0290009800F023FA0028EE
:1002F000029802D0022802D012E0032810D10198FF
:10030000032808D1029802281ED00221009800F08C
:10031000B7FA761CF6B2002F02D001990098B847C0
:10032000641C042CA8D3002E10D06A4601210020A2
:1003300000F0C4FA06990098884207D00690089801
:1003400000263446099097E70321DFE70BB0F0BDA4
:10035000006300405811002000650040F8B5FF2000
:10036000013000F0EFF9002401250E4E0E4F002859
:1003700007D00E4804600120B0607D70002000F0BE
:1003800029F9FF20053000F0DDF9002808D00748E2
:10039000001D04600220B060BD70012000F01AF959
:1003A000F8BD00000003004044110020000100409F
:1003B00038B511498A1500208850FF2241328850F3
:1003C0000090EFF31080002813D0012069460870D8
:1003D000009C01F073FA002804D0012007490007AF
:1003E000486040BF684600940078002800D162B69B
:1003F00038BD72B6ECE700000010014000ED00E0EF
:1004000010B500F00BF9002805D01F491D484860C1
:10041000C8131E4988611E48018CC9B201290BD13D
:10042000828C120708D1028D1206120F042A03D102
:10043000828D1206120F0AD0012921D1818C090761
:100440001ED1018D0906090F0A2904D007E0114ABF
:1004500001219160F5E7828D1206120F05D00D295A
:100460000ED1808D0006000F0AD10B4801680129CA
:1004700004D00A49016001680129FCD1C021416111
:1004800010BD0000DFFF07C000050040006C004009
:10049000C00F00F00006004000EC0640759300001D
:1004A00010B50249024800F0F1FC10BDA011002077
:1004B0000020004030B47446641E2578641CAB42B2
:1004C00000D21D46635D5B00E31830BC184702E0B4
:1004D00008C8121F08C1002AFAD1704770470020CF
:1004E00001E001C1121F002AFBD17047BFF34F8FFB
:1004F00004490348C860BFF34F8F00BFFDE7000009
:100500000400FA0500ED00E00EB500210290009114
:100510006A4601910148FFF7E9FF0EBD0140000066
:1005200000B500F005F800BD00B500F009F800BD09
:1005300072B602480168491C0160704764000020DF
:1005400003490868401E086000D162B67047000089
:100550006400002005490B5C05494A680120984069
:10056000034693438B601040C8607047781B0000BF
:100570000005005010B50349085C012100F092F914
:1005800010BD0000781B00007CB50024074E2546F6
:10059000305D0122009500231146019500F05CF9C1
:1005A000641C042CF4D300F003F87CBD781B00001D
:1005B00010B500242046FFF7DDFF641C042CF9D39E
:1005C00010BD00000249091820200856704700009D
:1005D0005811002070B5084C050009D0103421686E
:1005E000002907D008682060496828468847F6E750
:1005F0000834F4E770BD00004411002005490120D3
:100600000968002901D0002070470349096A0029C0
:10061000F9D17047E0100020140000201048018C30
:10062000C9B2012917D1818C090714D1018D09069E
:100630000A0F03D1828D1206120F0ED0090F012965
:1006400003D1828D1206120F07D0032903D1808DAA
:100650000006000F01D00020704701207047000005
:10066000C00F00F00268134602E08A4204D012680C
:10067000002AFAD10B6001607047000001242405B4
:10068000054DFF26F536AC60304600F0BBFDEC6052
:10069000304600F0B7FDF6E70005005010B5132016
:1006A000FFF758FF10BD00001FB500F053F80028F9
:1006B00001D0FFF729FFFFF767FFFFF779FF00245D
:1006C00014480221FF220091019002942346053232
:1006D000039411A1124801F02DF812487D210090D9
:1006E00000230122C90010A001F0E2F9094D686061
:1006F00001F0DEF80246009400230121686801F051
:1007000015FA0B48016904221143016100F000FE53
:10071000FEE70000000000204C45443000000000CF
:100720007D0600009D0600004C454431000000009D
:1007300000ED00E0C20843075B0F0120895C984090
:10074000084070470121890740180068002800D040
:100750000120704770B50C4C00252078002801D08E
:1007600085250FE00021A16061602161E1600748FB
:1007700000680126304002D1032100F03DF8044812
:1007800086612670284670BD4411002000E100E01B
:100790000005004070B5154C0546A078002808D02B
:1007A000002D02D06968012088470020FFF7B8FEBD
:1007B00015E00020FFF7B4FE002D04D00B482946B9
:1007C0001030FFF74FFFE068002808D108490860A3
:1007D00008490220486006490120FC390860E068A9
:1007E000401CE0600020FFF79FFE70BD4411002018
:1007F00004010040000300408207D30EFF229A400C
:100800008907090E10B5994000280BDA03071B0F62
:10081000083B9C080C4BA400E318DC6994430C4390
:10082000DC6107E08408094BA400E41823689343C3
:100830000B432360C106C90E0120884004490860AB
:100840000449086010BD000000ED00E000E400E095
:1008500080E200E000E100E070B552000A43990038
:10086000049D0A432902059E0A43310405240A43D4
:10087000240780000721001909024018026070BD9A
:100880000522120780008218072000021018026853
:1008900003231B049A430260026809040A430260AE
:1008A00070470000012282400348002901D0826085
:1008B0007047C260704700000005005038B5084B13
:1008C00005241B68009324026B46411805E085004F
:1008D0005D592D192D69401C20C28142F7D838BDC1
:1008E000841B00000249401800210160704700008D
:1008F00000600040034940180068012800D0002033
:1009000070470000006000404058002800D00120DF
:1009100070470322120280184068084000D001206E
:100920007047000070B50B4C054620684560206993
:100930002168854204D2A06B091D00F069FB70BDDF
:10094000606B091D00F064FBE06A8542F7D2E56246
:1009500070BD00001400002010B500F07DFB0E4CAF
:100960002068002815D10D4800F044FB0B481430D6
:1009700000F040FB0948E0601430206100221021A3
:10098000202000F03BFD2060002802D004A100F0F0
:100990000BFC00F069FB10BD500000201C11002072
:1009A000546D72510000000070B5134E134C1BE0E3
:1009B00000F0DAFC306800281AD001F02BF800F0C3
:1009C0004BFBF068C568281D00F002FBE068401E84
:1009D000E0606068401E606000F046FB286B00F03D
:1009E0004DFB284600F04AFB60680028E0D170BD4E
:1009F00001F010F8F8E70000F410002014000020C7
:100A000010B5026C0C46002A0CD0C1688B18C3606C
:100A100041688B4201D2194601E00168C16020465D
:100A2000FFF7AAFB10BD70B51646026C0025044600
:100A3000002A11D0002E19D0E068FFF79DFBE16875
:100A4000206C091AE1602268914202D26168081A9A
:100A5000E060022E17D01CE02068002819D16068E1
:100A600000F07EFF05460020606012E0A068FFF7FE
:100A700083FB216CA0684018A0606168884208D39D
:100A80002068A06005E0A06B002802D0A06B401E8B
:100A9000A063A06B401CA063284670BD0748016896
:100AA000C96A002901D00020704705490968012959
:100AB000F9D8C16A0069081A7047000014000020C4
:100AC0007C1000200B4CFFF76FFF2068012801D934
:100AD00000F05EFBFFF7E2FF0228F4D300F044FCD5
:100AE000FFF7DCFF022801D300F00EFB00F092FFBD
:100AF000E9E700007C10002070B5002441600B4D38
:100B00000061914206D8D11A8269914206D2011D34
:100B1000286907E09A4203D2994201D3012403E0F5
:100B2000011DE86800F074FA204670BD50000020F6
:100B300030B589B0274D43E00498002806DA059ABD
:100B40000799069890470498002839DB069C60694D
:100B5000002802D0201D00F03BFA02A800F08EF819
:100B6000024604980300FFF7A5FC0A0606062B20A0
:100B70002806062B202B0598A1690346411820461C
:100B8000FFF7BAFF01281BD1616A20468847E06958
:100B9000012815D1002000900598A1690023421872
:100BA0001946204600F0C2FF0AE00598A0618118AE
:100BB00013462046FFF7A0FF02E0204600F05EFA51
:100BC00000231A4604A9286800F037FC0028B3D196
:100BD00009B030BD50000020FEB50F46054600F0BC
:100BE000C3FB01A800F04AF804460198002802D08F
:100BF00000F010FFFEBD184E002F22D1A54220D8D4
:100C000000F008FFF0682746C068C468201D00F0A7
:100C1000DFF9E069012810D1A0692B4641193A4655
:100C20002046FFF769FF012807D10020034601464F
:100C300000902A46204600F079FF616A20468847E6
:100C4000FEBD291B306800F0C1FA00F0E3FE002869
:100C5000F6D100F09DFAFEBD500000200648416B21
:100C60000968002905D0416BC968C9684968C16233
:100C700070470021C943FAE71400002070B505460B
:100C800000F016FE064E0446B068844203D200F01F
:100C900009F8012000E0002028602046B46070BD03
:100CA00050000020F8B5144D1EE0C068C468066806
:100CB000201D00F08DF9616A20468847E06901280F
:100CC00012D1A0698019B04206D924616060211D4B
:100CD000E86800F09DF907E0002003460146009017
:100CE0003246204600F022FFE86801680029DCD186
:100CF0002969E9602861F8BD5000002072B6FEE75E
:100D0000074CE0680168002907D0C068002100682E
:100D1000FFF762FFFFF70CFFF3E701210020F7E781
:100D20005000002070B5044600F096F925462435A1
:100D30000CE0606A00280CD0284600F03BFE00283A
:100D400001D000F077FAA06C401EA064A06C0028CF
:100D5000EFDC0026F643A66400F086F900F07CF98B
:100D6000254610350CE0206900280CD0284600F0FC
:100D700021FE002801D000F05DFA606C401E606426
:100D8000606C0028EFDC666400F06EF970BD000056
:100D900070B504460025400704D06007400F0821C5
:100DA000081A041900F0E0FA0A484168002903D142
:100DB0000949C908C90041600168084B0A199A42EB
:100DC00004D28A4202D9436802605D1800F022FE14
:100DD000284670BD0800002074000020F80F0000B5
:100DE00004490868002803D00868C26B521CC2631B
:100DF000086870471400002010B5064C031F2468D3
:100E00001C601B1F1960191F034B0B6014394038FD
:100E10000A6010BD801B0000FD0C000030B5FF22F1
:100E20000523CD7D002409321B02C318002D8450F8
:100E3000986905D04B7ECA68D054487E401C4876DD
:100E400030BD1FB501246B461C701972019206C893
:100E5000684690471FBDFF221D32002383508B8AB6
:100E60008A68D25C8B8A5B1C8B8205210902401840
:100E7000C26170471FB500226B461A7019728168F3
:100E80000191827506C8684690471FBDF0B50C46B3
:100E9000012185B005464902FFF73BFD0321090208
:100EA0006F180026002826D0FF2125312846FFF79D
:100EB0002BFD00281FD0FF2025302E5081208000E0
:100EC000B860A07E002801D1012068600221684638
:100ED00001700920C0012918086808600390E17DAD
:100EE00068460172E0680190E675267606CC684691
:100EF000083C90472DE004212846FFF70AFD002812
:100F000027D0FF2109312846FFF7FEFC002820D01A
:100F100021462846FFF782FFE07D617E884218D196
:100F2000207E002807D0617EE268E0752069E060DD
:100F3000267666760AE0A07E002801D1012068604E
:100F400081208000B860E675617EE2682046FFF788
:100F500078FFFF271D3739462846FFF7D5FC0028C4
:100F60000FD0A08AA17D884204D221462846FFF7EF
:100F700072FF06E0EE51A17D002902D02046FFF766
:100F800079FFFF27453739462846FFF7BDFC002883
:100F90000ED0EE51A07E002801D001202860E07D17
:100FA000002805D0E675617EE2682046FFF749FF1C
:100FB00005B0F0BD08B500200090EFF310800028C8
:100FC00004D0012069460870009808BD72B6FBE79E
:100FD0004368826801699A60836842685A604A6817
:100FE000824201D182684A60002202610868401E84
:100FF000086070470146083100224160D243C16059
:101000008260016100210160704700210161704729
:1010100030B50B685A1C02D00246083202E0026961
:1010200004E02246546825689D42FAD953684B6013
:1010300099608A60516008610168491C016030BD97
:1010400042684A6093688B60936859609160086158
:101050000168491C0160704772B602480168491C6A
:10106000016070471000002003490868401E0860B6
:1010700000D162B67047000010000020704708B52C
:10108000009068460078002800D162B608BD38B5E7
:1010900000200090EFF3108000280CD0012069465A
:1010A0000870009C00F068F96846009400780028F9
:1010B00000D162B638BD72B6F3E7000010B500206B
:1010C000FFF768FB0C4A20210A4891600B4A012176
:1010D0005160816001600A490868FF221202904352
:1010E000032292031043086001200649400408606F
:1010F00010BD000000100140001501400013014028
:1011000010E400E000E100E0F8B504461B4884422A
:1011100000D9044672B61A4E1A4F7D68FFF76EFA70
:10112000002829D028190202120A174801218160DB
:1011300000213A64FF224132B15001221204426080
:10114000BFF34F8F002C04D020BF104B1B68002B27
:10115000FAD082607A68FF230133F15001214160A7
:10116000954201D908061218501BA04200D920460A
:10117000002801D000F0F0F862B6F8BDFDFFFF00D6
:1011800000100140001501400013014000E200E0A2
:10119000012004490007486040BFBFF34F8FBFF3F1
:1011A0006F8F704700ED00E010B5074B0022D400B0
:1011B0001C59002C03D0521C022AF8D310BDD200B7
:1011C0009950D118486010BD6C10002070B50D46C4
:1011D0000446FFF741FF616C0020491C00D16064A8
:1011E000A16C491C00D1A064FFF73EFFA06B002852
:1011F00004D120462946243000F03EF82046FFF76F
:1012000091FD70BD10B502000FD000F0ADF8084898
:10121000016900688C18001DFFF7DAFE2046FFF711
:1012200081FB00F0F7FB002801D1FFF7B1FF10BDF3
:1012300014000020014901200862704714000020BA
:1012400070B50B4D0C4629681831FFF7E1FE286890
:10125000001DFFF7BDFE601C04D028690019FFF7D0
:1012600061FB70BD29680348091DFFF7E9FE70BDE9
:10127000140000200811002070B5074C0D462168AD
:101280001831FFF7DDFE2068001DFFF7A1FE206981
:101290004019FFF747FB70BD1400002070B5040033
:1012A00025D0154DE06A2968C96A88421FD2A06915
:1012B000002804DB28680321C06A081AA061E06ADC
:1012C00014220E4E504361698019814210D1201DB5
:1012D000FFF77EFE2868C06AE0626969884200D92B
:1012E0006861142148438019211DFFF7A9FE70BDD4
:1012F0002868C06AE06270BD140000207C100020E5
:1013000002494A6A0260096941607047140000207E
:101310001FB500240C4801900094029423463C22FF
:101320000AA103940B4800F005FA01280BD100F044
:10133000DBFB012807D172B601210348083881611F
:10134000046100F03FF81FBD1C00002049444C45DB
:1013500000000000C50A000002490A69101808616F
:1013600070470000140000200248016B491C016313
:1013700070470000140000201048016B002902D0C3
:10138000012101627047002101620D4901E0521EF6
:101390004261426914235A438A58002A4269F6D0AE
:1013A0005A4351184A680B46526808334A609A42B9
:1013B00001D152684A60D168016070471400002072
:1013C0007C1000200B4C211DC869FF2212049043A1
:1013D0000322920510431025C861FFF76FFE0649EE
:1013E00000200860206928432061FEF773FE72B672
:1013F000FEE7000000ED00E01000002070B50024C2
:101400000E460546002914D07043401C4C30FFF7AF
:10141000BFFC00280BD00446002E0CD020464C30D8
:101420002060266401212046E56300F08EF8204606
:1014300070BD0020EAE72460F3E7FFB5002583B024
:101440001E4604462F46FFF707FEA06B00282AD051
:10145000E56820460499FFF7D3FA002E10D0E56026
:10146000606A002807D02046243000F0A3FA002844
:1014700001D0FFF78DFEFFF7F7FD012007B0F0BDAB
:10148000A06B401EA0632068002802D1FFF7A8FCD3
:10149000606020690028EED02046103000F08AFA03
:1014A0000128E6D0E7E70598002802D0002D03D0F8
:1014B00006E0FFF7D9FD1EE06846FFF721FF012592
:1014C000FFF7D2FDFFF750FFFFF7C6FD606C401C31
:1014D00000D16764A06C401C00D1A764FFF7C4FD75
:1014E00005A9684600F002F9002806D02046FFF75B
:1014F00019FC00F08FFA0020C0E7FFF7ADFDA06BEC
:10150000002807D0FFF7B0FD2046FFF70BFC00F0E6
:1015100081FA98E7FFF7A8FD2068002806D1FFF7B9
:101520009BFD6068FFF7BAFEFFF79EFD2046243062
:101530000599FFF785FE2046FFF7F4FB00F06AFAF5
:10154000002880D1FFF724FE7DE770B50D460446E4
:10155000FFF782FD216CE06B484321684018606012
:101560000020A063A160E06B216C401E484321680D
:101570004018E0600020C0436064A0642046103042
:10158000002D09D0FFF736FD20462430FFF732FD4D
:10159000FFF76AFD012070BD21690029F8D000F035
:1015A00009FA0128F4D1FFF7F3FDF1E7FFB50025B3
:1015B00083B01E4604462F46FFF74EFDA06BE16B3D
:1015C000884207D3022E05D0059800281AD0002D96
:1015D0001BD01EE0324620460499FFF724FA616AC8
:1015E000002906D02046243000F0E4F9012802D07A
:1015F00003E0002801D0FFF7CBFDFFF735FD012008
:1016000007B0F0BDFFF730FD1EE06846FFF778FE3B
:101610000125FFF729FDFFF7A7FEFFF71DFD606C11
:10162000401C00D16764A06C401C00D1A764FFF788
:101630001BFD05A9684600F059F8002806D0204691
:10164000FFF770FB00F0E6F90020D9E7FFF704FD93
:10165000A06BE16B884210D1FFF706FD20461030E9
:101660000599FFF7EDFD2046FFF75CFB00F0D2F98E
:101670000028A1D1FFF78CFD9EE7FFF7F5FC20467F
:10168000FFF750FB00F0C6F996E7FFB581B01E46A4
:1016900015460446FFF78EFC0746A06BE16B8842B7
:1016A00008D3022E06D000243846FFF7E8FC204677
:1016B00005B0F0BD324620460299FFF7B4F9A06CA0
:1016C000401C04D0A06C401CA0640124ECE7606ABC
:1016D0000028FAD02046243000F06CF90028F4D01D
:1016E000002DF2D001202860EFE7000070B50D4614
:1016F0000446FFF7B1FC0E4A11692868431C0FD05D
:101700002368526A934202D062688A420AD96268A8
:10171000891A814206D2401A28602046FFF7F0FD60
:10172000002400E00124FFF79FFC204670BD00006C
:1017300014000020FFB581B00C9895000A9F002886
:1017400002D12846FFF724FB060016D04820FFF7F9
:101750001FFB040030460ED0A52229462063FEF769
:101760001DFD206B2D1F4019C008C00000903D4694
:101770000020029904E0FFF781FC0024E44380E0AC
:1017800022180B5C203213750A5C002A02D0401C20
:101790000428F5D3002637200655032D00D3022553
:1017A000E562E663201DA563FFF72FFC2046183095
:1017B000FFF72BFC24610320411B6462A1612664B6
:1017C00044200655049A01990098FFF715FB206004
:1017D0000B98002800D00460FFF73EFC2A4DE86813
:1017E000401CE8602868002803D0A869002828D099
:1017F0002CE02C60E868012828D100261420234919
:1018000070434018FFF7F6FB761C032EF6D31F48F3
:101810003C30FFF7EFFB1D485030FFF7EBFB1B4858
:101820006430FFF7E7FB19487830FFF7E3FB174810
:101830008C30FFF7DFFB15483C3068631430A86339
:1018400004E02868C06AB84200D82C60A86A401C2E
:10185000A862E06A6969884200D968611421484336
:101860000A494018211DFFF7EBFB0124FFF7FCFBA1
:10187000A869002805D02868C06AB84201D2FFF7DD
:1018800087FC204605B0F0BD140000207C1000202D
:1018900006488169002904D0006B002803D000208D
:1018A000704701207047022070470000140000209C
:1018B000014800697047000014000020F8B5264C6C
:1018C0000027206B002808D0E069401CE061206AF6
:1018D000002800D001273846F8BD2069401C20614F
:1018E0002669002E08D1606BA16B6163A063606AFA
:1018F000401C6062FFF7B2F9E06A8642E7D3606B92
:101900000068002807D0606BC068C56868688642B8
:1019100004D2E062DBE70020C043FAE7281DFFF7AE
:1019200057FBA86A002803D028461830FFF750FB61
:10193000E86A6169884200D9606114214843074917
:101940004018291DFFF77CFBE86A2168C96A8842B4
:10195000D5D30127D3E70000140000207C1000201D
:1019600010B50021044600281ED0E06B401EE06345
:10197000A36BE26A9A4217D0002815D1201DFFF709
:1019800027FBA06B0321E062081AA0610749E06A07
:101990004A69904200D948611421484304494018DB
:1019A000211DFFF74DFB0121084610BD140000204A
:1019B0007C10002070B5C068C46820461830064608
:1019C000FFF706FB114D286B002802D03146104866
:1019D0000DE0201DFFF7FCFAE06A6969884200D932
:1019E0006861142148430A4964394018211DFFF7F2
:1019F00027FBE06A2968C96A884202D901242C625F
:101A000000E00024FFF72AF9204670BD14000020F2
:101A1000E0100020F8B50026FFF71EFB224C206BDB
:101A2000401E2063206B00283AD1E1681F4F002937
:101A30001DD135E0F868C56828461830FFF7C8FAA8
:101A4000281DFFF7C5FAE86A6169884200D960611C
:101A500014214843154964394018291DFFF7F0FA4D
:101A6000E86A2168C96A884201D301202062386887
:101A70000028DFD1E06900280CD00125E0690028AA
:101A800008D0FFF71BFF002800D02562E069401E48
:101A9000E061F3E7206A012802D10126FFF778FB15
:101AA000FFF7E2FA3046F8BD14000020E0100020F5
:101AB000FFB581B01E4617460D0013D02820FFF752
:101AC00067F904000BD0FEF747FF0198E761266233
:101AD000A56120600A986062201DFFF796FA2046F3
:101AE00005B0F0BD0024FAE71FB50024FEF734FF6F
:101AF0000A48006800280ED0002008490222091D6B
:101B000002900346009201910390502204A10648DE
:101B1000FFF710FE0446204604B010BD5000002020
:101B2000546D722053766300010D0000F0B5114C26
:101B30001D4685B00346276800200A9E002F0DD061
:101B400068460EC006290EDAFFF7A2FE022807D06B
:101B500000231A4669462068FFF728FD05B0F0BD4E
:101B600000233246F6E700232A4669463846FFF747
:101B70008CFDF3E7500000201516171811121314EE
:101B80000000000100000050A81B00000000002021
:101B90006C000000CE040000141C00006C0000204B
:101BA00054190000DE0400000000000000000000E6
:101BB0000000000000000000000000000000000025
:101BC0000000000000000000000000000000000015
:101BD0000000000000000000000000000000000005
:101BE0000000000000000000FFFFFFFF00000000F9
:101BF00000000000000000000000000000000000E5
:101C000000000000000000000000000000000000D4
:041C10000024F400B8
:04000005000000C136
:00000001FF
