:020000040001F9
:10F00000482B0020D54A0200870502009F05020018
:10F01000D70502003B0602000707020000000000BF
:10F020000000000000000000000000007F07020058
:10F030005F090200000000008F0902004F0E02006D
:10F04000A5430200A7100200D11A020023110200FA
:10F05000C7110200C7210200F1290200F32B0200B0
:10F060006B3D02002740020023460200DF460200FB
:10F07000E3470200DB480200034A0200714A020033
:10F08000934A0200571F0200A34A0200C74A020027
:10F09000D91F0200F14A0200EB3E0200F34A0200CF
:10F0A000F54A0200F74A0200F94A0200FB4A020050
:10F0B000FD4A0200FF4A02000000000000000000BC
:10F0C000014B0200034B0200054B0200074B0200FC
:10F0D000094B02000B4B02000D4B02000F4B0200CC
:10F0E000114B0200134B0200154B0200174B02009C
:10F0F00000000000194B02000000000000000000AA
:10F1000000000000000000000000000000000000FF
:10F1100000000000000000000000000000000000EF
:10F1200000000000000000000000000000000000DF
:10F1300000000000000000000000000000000000CF
:10F400002DE9F04F80460FF23060A5B015461E463C
:10F41000D0E90023CDE91223002004910D900DF1D5
:10F42000500A6FF0004900E065190020ADF80200B5
:10F4300012AB4FF0FF3229460DF1020001F093F8B4
:10F440000446012C04DA2878441EA441E443E40F66
:10F45000BDF8020025280CBFA4F1010BA346BBF1A7
:10F46000010F0EDB2F4617F8011B0498C047002838
:10F47000049000F0F3800D98401CBBF1010B0D903F
:10F48000F1D1BDF80200252807D10020079008908F
:10F4900009900A900B900C9005E00028C4D10D98BB
:10F4A000D2E240F0010015F8011F2029F9D02329EC
:10F4B0000DD02B2904D02D2906D030290AD00CE0FC
:10F4C00040F0020080B2EEE740F00400FAE740F0BE
:10F4D0000800F7E740F01000F4E72A290ED1316860
:10F4E000316051F8042B3160002A0F9204D551424B
:10F4F00040F004000F9180B26D1C11E000210F91CB
:10F5000009E00F99494505D001EB810302EB430166
:10F5100030390F916D1C2A78A2F130010A29F0D3FD
:10F5200029782E2903D04FF0FF310E911DE015F8F8
:10F53000011F2A2907D1316831606D1C51F8042B55
:10F5400031600E9211E000210E9109E00E994945BB
:10F5500005D001EB810302EB430130390E916D1CA4
:10F560002A78A2F130010A29F0D3ADF840000FF259
:10F57000D040297801F008F808B115F8010B8DF892
:10F5800042009DF84200682802BF2978682962205D
:10F5900005D06C2804BF28786C2803D171208DF821
:10F5A00042006D1C14A8069015F8014BB4F125001B
:10F5B0002AD01C3800F0D480001F022840F2D080EE
:10F5C000133800F0F580093800F0CA80801E00F082
:10F5D0005C81401E00F03581401E022840F2C08050
:10F5E000001F00F02E81401F00F08B80401E00F0B5
:10F5F000DF80401E35D0C01E0BD0801E00F0D880AA
:10F60000C01E00F0D58063E125208DF85000012058
:10F6100067E19DF842006C283068306014D050F8E3
:10F62000047B306005970E9C002C04D5384600F012
:10F63000B7FF044606E022460021384600F0CCFF22
:10F6400000B1C41B08944DE150F8042B306002A9AE
:10F65000404600F033FA002840F144814FF0FF307B
:10F66000F2E1316831603C2451F8040B3160002133
:10F67000CDE9020114A80590DDE90201069F11B948
:10F6800008B90E9AB2B10206120FA0EB0212303284
:10F69000D2B2631E3A2AA8BF27320009DA5540EADF
:10F6A0000170090908BF00281C4603D0059AE31918
:10F6B0009A42E8D3E0190590C4F13C010E980891F4
:10F6C000814209DA401A0A904FF6EF71BDF8400006
:10F6D0000840ADF8400005E1002840F103819DF8A5
:10F6E000400000F01400102840F0FC800F98079AAA
:10F6F000801A0A9A801A441A012CC0F2F3800A94E4
:10F70000F0E09DF8420062281AD0682806D06A28E6
:10F710000CD06C281CD0712808D019E030683060FB
:10F7200050F8041B30600D980880DBE030683060D2
:10F7300050F8042B30600D98C117C2E90001D1E0E8
:10F740003068306050F8041B30600D980870C9E0D4
:10F750003068306050F8041B30600D980860C1E0DC
:10F760003068C01D20F007023260D2E90001083283
:10F770003260CDE90201002902D507982D210AE067
:10F78000BDF84000810702D507982B2103E0C00790
:10F7900005D50798202100F80A10401C079014A8EE
:10F7A000079908180590214602A800F091FB99E0FE
:10F7B0009DF842006C280DD0712818BF6A2809D125
:10F7C0003068C01D20F007023260D2E90001083223
:10F7D000326005E03168316051F8040B316000217E
:10F7E000CDE902019DF84200682803D1DDE902015C
:10F7F00080B20BE0622803D1DDE90201C0B205E06E
:10F80000742818BF7A2804D1DDE902010021CDE96E
:10F8100002019DF8400000072ED5DDE90201002914
:10F8200008BF002828D044F02000782824D1079869
:10F83000302100F80A10401C411C079100F80A40D2
:10F840001AE09DF84200314600F001F9CDE90201CD
:10F85000002902DA07982D210AE0BDF8400081074F
:10F8600002D507982B2103E0C00705D50798202172
:10F8700000F80A10401C079014A807990818059072
:10F88000214602A800F0A0FA2CE09DF842006C2866
:10F8900009D0012007903068306050F8041B3060B8
:10F8A0008DF850101EE03068306001AA50F8041B3B
:10F8B0003060ADF804100020ADF8060002A94FF04A
:10F8C000FF300E90404600F0F9F800280AD5C5E652
:10F8D00025208DF85000012007901CB18AF80140C6
:10F8E000022007900F980799401A0A99401A089920
:10F8F000401A0B99401A0999401A0C99441A9DF81C
:10F900004000400710D42020012C8DF800000BDBB4
:10F91000274601236A4602A9404600F000FE00285F
:10F920007FF49CAE7F1EF4D1DDF81CB0BBF1000F5C
:10F9300014AF0DD017F8011B0498C047002804909D
:10F940003FF48CAE0D98401CBBF1010B0D90F1D132
:10F9500030208DF800000A9F012F0ADB01236A4640
:10F9600002A9404600F0DBFD00287FF477AE7F1E41
:10F97000F4D1DDF820B0059FBBF1000F0DD017F8D2
:10F98000011B0498C047002804903FF467AE0D980F
:10F99000401CBBF1010B0D90F1D130208DF800001F
:10F9A0000B9F012F0ADB01236A4602A9404600F0A3
:10F9B000B6FD00287FF452AE7F1EF4D10598089959
:10F9C000DDF824B00F18BBF1000F0DD017F8011BA4
:10F9D0000498C047002804903FF440AE0D98401CA6
:10F9E000BBF1010B0D90F1D130208DF800000C9F80
:10F9F000012F0ADB01236A4602A9404600F08FFD71
:10FA000000287FF42BAE7F1EF4D19DF84000400704
:10FA10007FF50BAD2020012C8DF80000FFF605AD21
:10FA200001236A4602A9404600F079FD00287FF4D0
:10FA300015AE641EF4D1F8E40000000000000000E0
:10FA4000686A6C747A4C000025B0BDE8F08F6228BB
:10FA500026D068281DD06A2808D06C2827D07128A5
:10FA600004D0742823D07A280CD020E00868C01D68
:10FA700020F007000860D0E900230830086019462C
:10FA8000104670470A680A6052F8040B0A600021A9
:10FA900070470A680A6052F8040B0A6000B20BE073
:10FAA0000A680A6052F8040B0A6040B204E00A686F
:10FAB0000A6052F8040B0A60C11770472DE9F44F31
:10FAC0000D4694B0D5F830A0BAF1000F804648BF7B
:10FAD0006FF0004A00F0ACFD696B401801900FF622
:10FAE0006C20D0E90023CDE9022395F838004007C7
:10FAF00002D40198412805D240200DF1100901904F
:10FB0000002609E000F09AFD5FEA0009F8D14FF005
:10FB1000FF3056E1AAEB040ABAF1010FC0F2CE8021
:10FB20001498018802AA0DF1010000F0DFFD002801
:10FB3000044600F1DE801498008810B9641E00F1BC
:10FB4000D880A245C0F2BA80686901992218914212
:10FB500080F0A2806E634042296A401AA969401A67
:10FB6000696A401AE969401AA96A461A95F8380084
:10FB7000400710D42020012E8DF800000BDB374603
:10FB800001236A462946404600F0C9FC002840F09F
:10FB9000B0807F1EF4D1D5F814B0BBF1000F4F46F2
:10FBA0000DD017F8011BA868C0470028A86000F016
:10FBB000A080E86A401CBBF1010BE862F1D1302063
:10FBC0008DF800002F6A012F0ADB01236A462946BF
:10FBD000404600F0A4FC002840F08B807F1EF4D14A
:10FBE000D5F818B0EF68BBF1000F0CD017F8011B67
:10FBF000A868C0470028A8607BD0E86A401CBBF119
:10FC0000010BE862F2D130208DF800006F6A012FFD
:10FC100009DB01236A462946404600F080FC0028A3
:10FC200067D17F1EF5D1E868A969D5F81CB00F1817
:10FC3000BBF1000F0CD017F8011BA868C0470028C3
:10FC4000A86056D0E86A401CBBF1010BE862F2D113
:10FC500030208DF80000AF6A012F09DB01236A46CE
:10FC60002946404600F05BFC002842D17F1EF5D1BA
:10FC700095F8380040070DD52020012E8DF80000A2
:10FC800008DB01236A462946404600F048FC80BB59
:10FC9000761EF6D100266E61224668690DF10101DB
:10FCA000484400F031FD6869201868611498801C90
:10FCB0001490801E008800287FF42CAF686B69695F
:10FCC000401A296A401AA969401A696A401AE96902
:10FCD000401AA96AA0EB010A95F83800400710D431
:10FCE000BAF1010F0DDB5446A8682021C047A86077
:10FCF00010B94FF0FF365DE0E86A401C641EE86210
:10FD0000F2D16B694A462946404600F008FC0028BB
:10FD1000EFD12C6A012C0ADBA8683021C0470028EB
:10FD2000A860E6D0E86A401C641EE862F4D1AB69C2
:10FD3000EA682946404600F0F2FB0028D9D16C6AF7
:10FD4000012C0ADBA8683021C0470028A860D0D069
:10FD5000E86A401C641EE862F4D1E868A969EB69AE
:10FD60000A182946404600F0DAFB0028C1D1AC6AE7
:10FD7000012C0ADBA8683021C0470028A860B8D051
:10FD8000E86A401C641EE862F4D195F83800400728
:10FD90000ED5BAF1010F0BDBA8682021C04700285F
:10FDA000A860A6D0E86A401CBAF1010AE862F3D163
:10FDB0006E616E6304A881451CBF484600F0E0FCFC
:10FDC000304615B0BDE8F08F2DE9FA4E05460A46DB
:10FDD0002F696F2A08BF082405D041F02000782839
:10FDE00014BF0A2410243C26D5E90001642A18BF58
:10FDF000692A81468A4605D1002903DAD9F100092A
:10FE00006AEB4A0ABAF1000F08BFB9F1000F0CD132
:10FE1000286B50B9082C36D195F83800000732D538
:10FE200030203B2687F83B002DE0E317484651463B
:10FE3000224600F0E5FCA4FB0023A9EB02023032CD
:10FE4000D2B2A6F1010B3A2A5E4603DB9DF80030E0
:10FE5000513B9A180BF8072081465FEA010A08BF58
:10FE6000B9F1000F03D0E868F1198842DDD3082CFE
:10FE700009D195F83800000705D5F05D302802D08B
:10FE8000761E3020F055C6F13C00A861F119E960FA
:10FE9000296B884208DA081A28624FF6EF71288F1A
:10FEA00008402887BDE8F38E00290ED595F8381054
:10FEB00001F01401102908D1696B6A69891A2A6A4C
:10FEC000891A0E1A012EA8BF2E62BDE8F38E00001B
:10FED0002DE9F24F04468EB0D4E90001CDE90201CC
:10FEE00004AF9DF8380040F0200BBBF1610F0AD041
:10FEF000206B002848BF062004D408BFBBF1670F61
:10FF000001D1012020636168C1F30A5040F2FF7201
:10FF100090421CD1080304BF2068002809D10320A7
:10FF2000A0619DF8380061381A2836D30FF230618D
:10FF300008E00320A0619DF8380061381A2829D311
:10FF40000FF21461E068032200F0DEFBBEE101283D
:10FF500016DA204600F0CBFC012811DB002500203A
:10FF6000BBF1610F20D1E168302201F8012B4A1C5E
:10FF7000E2609DF83820612A0CBF782258220FE0F9
:10FF8000626840F2FE3161F31E52451A62604FF022
:10FF9000FF30E5E70FF2BC51D4E70FF2C051D1E7D3
:10FFA0000A706169891C616110B90026002584E12D
:10FFB000BBF1610F40F09880206B00284CBF2126D8
:10FFC000461CD4E900ABDDE902010022002300F069
:10FFD000AFFC36B23ABF8BF00040CDE902A0CDE9CC
:10FFE00002AB06F101082D1FB8F1010F8DF81020AA
:10FFF0000DF1110736DBDDE902010022002300F0DC
:020000040002F8
:10000000AFFC2FD21C2102A800F0C2FCDDE90201E6
:1000100000F048FDA8F10708B8F1010F814609DB9F
:1000200000F06CFD02460B46DDE9020100F07EFDAA
:10003000CDE90201F81D072105E009F00F0200F8E3
:10004000012D4FEA2919B9F1010F01DB491EF4D541
:10005000491E5CBF002200F8012DF9D5C71DB8F17B
:10006000010FC8DA0DF11100391AB142B8BF0E46BE
:1000700036B230000DF111072FD4884206DA04A9F8
:10008000411849780829A8BF0F2100DA002104AAE5
:10009000821800E0761E12F80139401E8B42F9D01A
:1000A0000F2904D104A941184A78521C4A7000282B
:1000B00002D504AF761C2D1D36B2701E0DD4C119A9
:1000C0000A783032D2B23A2A03DB9DF838303A3B14
:1000D0009A18401E01F80129F2D5206B002840F142
:1000E000EC80701E2063E8E0DDE9020100220023BD
:1000F00000F01EFC3CBF81F00041CDE902012DB2B1
:1001000047F2975068434B49DFF82C9190FBF1F58B
:100110002DB2C5F1070ABAF1010F90461CDBDDE9EB
:1001200002675FEACA7007D542464B4630463946F9
:1001300000F0BCFD06460F464046494642464B4647
:100140004FEA6A0A00F0B2FDBAF1000F8046894614
:10015000E7D1CDE9026724E0CAF1000A0026374F53
:1001600014E05FEACA7007D542464B46304639462E
:1001700000F09CFD06460F464046494642464B4627
:1001800000F094FD4FEA6A0A80468946BAF1000FF2
:10019000E7D1DDE9020132463B4600F059FECDE9E8
:1001A0000201BBF1660F0CBF05F10A000620216BAE
:1001B000DFF88C904618142EA8BF132630208DF837
:1001C00010000DF11107012E3CDBDDE9020100F00A
:1001D0007FFC07F1080104220A23B0FBF3F303EBD1
:1001E0008307A0EB4700303001F8010C0A20B3FB75
:1001F000F0F000EB8007A3EB47033033521E01F809
:10020000023DE9D1083E012E01F10807DBDBDDE903
:10021000020100F05DFC00F07BFC02460B46DDE9CC
:10022000020100F083FC00224B4600F03FFDCDE9C7
:100230000201CAE7A0860100000024400000F03F50
:1002400084D797410DF11100381A0DF1110702E022
:10025000401E6D1E7F1C39783029F9D0BBF1660F26
:1002600002D12DB2691C04E0BBF1650F0CBF012166
:100270000021226B8E1836B2B042B8BF064636B2A5
:1002800031001AD4814204DAC85D3528A8BF39206C
:1002900000DA3020CA19521E00E0761E12F8013929
:1002A000491E8342F9D0392802D1C85D401CC85587
:1002B000002902D57F1E761C6D1C2DB29DF83810CA
:1002C000009533B23A46204600F003F80FB0BDE87F
:1002D000F08F2DE9F04786B006468A4690461D46C7
:1002E00000F0FFFE012D406A376B90F8009002DAB3
:1002F00001250FF270284AF02000BDF93840662829
:1003000008BF641C12D0672876D114F1040F79DB82
:10031000BC4277DA96F83800641C000702D4BD426C
:10032000B8BF2F4624B23F1B48BF002724B2F06855
:10033000B169012C21DA4A1C30230B54012F03DA56
:1003400096F83810090702D502F80090521CB261E5
:10035000E742B8BF7C4224B26142E7197162AF4202
:10036000B8BF3D46B3692DB2F5612A46414618181B
:1003700000F0CAF9781BB062BAE00818A54216DA94
:100380002A46414600F0C0F9B1696918601B012F87
:10039000B161706203DA96F83800000705D5F0689D
:1003A00001F80090F069401CF061B762A0E02246BD
:1003B000414600F0A9F9B06920182D1B012F03DA7E
:1003C00096F83810090703D5F16800F80190401C31
:1003D0002DB2B061AF42B8BF3D46F068B3692DB2EF
:1003E0002A4604EB0801181800F08EF9B0692818A5
:1003F000B061781B70627BE0BAF1610F14D14FF0ED
:10040000700A16E0BD4204DA96F83810090758BFA2
:100410002F467F1E48BF0027BAF1670F14BF4FF069
:10042000450A4FF0650A04E0BAF1410F08BF4FF0EA
:10043000500AB169F0684A1CB261012F18F8013BFB
:100440000B5403DA96F83810090715D5531CB3611D
:1004500002F80090012F0FDB6D1E2DB2AF42B8BF26
:100460003D462DB22A464146181800F04DF9B069B4
:100470002818B061781B7062F068B1690918200013
:1004800081F800A004D42B20487001F1020804E098
:100490002D224A7001F102086442002502AF08E0F3
:1004A0000A22684600F036FE019807F8010B6D1C21
:1004B000009C21B20129F3DA022D06DA4AF020006D
:1004C000652804BF302008F8010B4DB9302008F82A
:1004D000010B07E06D1E02A8285C303008F8010B04
:1004E000012DF7DAF068B1690818A8EB0000F06197
:1004F00096F8380000F0140010280DD17069B16929
:100500000818716A0818F1690818B16A0818716B3F
:100510008842BCBF081A306206B0BDE8F087F8B563
:1005200004460D4616461F46002077B116F8011BFB
:10053000A868A047A86030B1E86A401CE8620020C3
:100540007F1EF3D1F2BD4FF0FF30F2BD000000007E
:10055000000000006E616E004E414E00696E660044
:10056000494E46003000F8B504460D4616461F4673
:1005700000F0D8FD3B4632462946204601B0BDE892
:10058000F04000F0E6BDFEE70278C9B28A421AB137
:100590001CBF10F8012FF9E718BF00207047FEE7D5
:1005A00000F10103810704D010F8011B89B1810714
:1005B000FAD10268B2F10131914311F0803F04BFDA
:1005C00050F8042FF6E710F8011B11B110F8011BC9
:1005D000FBE7C01A7047FEE7C9B2830706D0521E78
:1005E00022D310F8013B9942F7D11FE0083A13D308
:1005F00002F1040241EA012141EA014150F8043BC1
:10060000121F21BF4B40A3F1013C2CEA030C1CF04C
:10061000803FF3D0C9B2001F083210F8013B521ED0
:1006200028BF91EA030FF8D818BF0120401E704779
:1006300080B500F077FD012002BDFEE770B50546EC
:1006400005F10F00C408C046C046E400A54232D2FE
:10065000082C04D2082402E0083000F091F8224867
:10066000026811000CD1011D0A6802B31368A3428D
:1006700038BF111DF8D310E01D68A5420DD2191D19
:100680000B68002BF8D11268011D00E0191D0B68E2
:1006900093420CD01D68A542F8D361B10D682A6859
:1006A000A2F10803A3420AD26A680A600FE000F0D0
:1006B00073FD0028D0D1C046C046002070BD63192C
:1006C0000B60121B6E685E600B681A602C60096814
:1006D00000291DBF4A68002A091D00210160C0468B
:1006E000C04605F1080070BD0834002070B504460E
:1006F0000D46164600F016FD324629462046BDE856
:10070000704000F019BDFEE762B38B0708D0521E9F
:1007100011F8013B00F8013B00F024808B07F6D173
:10072000830740F0208000BF103A07D330B4B1E80F
:100730003810103AA0E83810F9D230BC530724BF63
:10074000B1E80810A0E8081044BF51F8043B40F895
:10075000043BD20724BF31F8022B20F8022B44BF00
:100760000B7803707047083A07D3B1E80810083ACD
:1007700040F8043B40F804CBF7D25307E4E7FEE728
:1007800000B9704738B5A0F108042068082833D3B1
:1007900010F0070F30D1C046C0461848416809B173
:1007A0008C4203D26160446017E019464B680BB17C
:1007B000A342FAD30B685D18AC421BD3A54204D107
:1007C0002268D2180A600C4607E04A681AB123680A
:1007D0001B199A420ED362604C60616851B1226865
:1007E00013198B4206D1002303600868801820602B
:1007F00048686060C046C04631BD00000834002033
:100800001B4213D1094236D12AB18446B0FBF2F023
:1008100002FB10C2704700F0D5BCFCD300220023BD
:1008200070470B000200002100207047904271EBDE
:10083000030CF6D370B5B1FA81F4B3FA83F52C1B2F
:10084000A340C4F1200532FA05F63343A2405FF01D
:100850000046E64002E05B085FEA3202841A71EB70
:10086000030524BF204629467641F4D302000B003D
:100870003000002170BD012ACFD970B5140C20D0F2
:10088000B1FA81F4B2FA82F5C4F120046419B4F12A
:100890002006D6D3B2405FF00044F440002502E0C9
:1008A00052085FEA3303C61A71EB020E24BF3046CA
:1008B000714664416D41F3D302000B002000290012
:1008C00070BD0C46B1FBF2F102FB11452D0445EA67
:1008D0001045B5FBF2F402FB145580B240EA054521
:1008E000B5FBF2F002FB105240EA044070BD30B498
:1008F000436803F0004201211B031B0B436004BF4C
:100900000368002B08D10DE00368DD0F45EA4404BD
:1009100044605B000360491E4468E302F4D523038E
:100920001B0B436043681A434260084630BC704763
:100930004FF4001C1CEB410F94BF1CEB430F09E06C
:1009400041EA030C50EA4C0C52EA0C0C03D29942D7
:1009500008BF9042704714BF8B4282427047FEE747
:100960004FF4001C1CEB410F94BF1CEB430F09E03C
:1009700041EA030C50EA4C0C52EA0C0C03D28B42B5
:1009800008BF8242704714BF994290427047FEE709
:1009900070B504460D466068C0F30A5040F2FF711E
:1009A000884207D16068000304BF2068002817D080
:1009B000022070BD20B92046FFF799FF012866DAB2
:1009C000012D0FDB40F2FF71091A8D420AD36068D6
:1009D00000284CBF9FED2F0B9FED300B84ED000BDB
:1009E000012070BD4142A942616806DA6FF31E51D1
:1009F000401941EA0050606040E0401E63684519BC
:100A0000012205F1350062F31F53352801F0004142
:100A1000636003D361600020206070BD002015F189
:100A20001F0F04DA206823600022203562606A42CA
:100A300012D0401E25688041C2F12003C0439D4072
:100A400045EAD07025686668D54006FA03F32B4363
:100A500023606368D340636062680A43B0F1004F6B
:100A6000626003D80DD12078C0070AD52068401CE9
:100A70002060206828B96068401C60604FF0FF303B
:100A800070BD6068884204BF20680028F6D100204D
:100A900070BD00BF000000000000F0FF000000007B
:100AA0000000F07FF446400D40EAC120490006D224
:100AB00000F014F8004248BF6FF00040604700F0BB
:100AC0000DF84FF0004188428CBF08464042604715
:100AD000400D40EAC120490080F00D8040F0004008
:100AE000490DA1F58061491C05D4D1F11F0154BF06
:100AF000C840C01770474FF000007047010040F138
:100B00000980F446404200F005F851F0004160478A
:100B1000010000BF09D0B0FA80F18840C91CC1F5BE
:100B20008461090501EBD02140057047F0B44FF016
:100B3000004591EA030F44BF6B4000F045BB00BF86
:100B4000841A71EB030604D26E40001BB1411219E6
:100B500073414FF4001C1CEB410F34BF7CEB430688
:100B600084E00C0DA4EB1356362E7DDC012E43DC05
:100B700045EAC32343EA525312BFD20292025B08F2
:100B8000240545EAC12141EA5051D2EBC0209941E8
:100B900025D407D1B0FA80F610FA06F164D000200F
:100BA000203608E0B1FA81F6B140C6F1200220FA01
:100BB00002F21143B0404FEAF474B4EB465434F0FF
:100BC00001064FEA74040AD8D6F50016760D04F033
:100BD0000044F04061FA06F25040F1404840C00A3B
:100BE00040EA415021F0004128BF5FEA500550F132
:100BF000000044EBD12137E045EAC323DB0A45EA94
:100C0000C121C90AB6F120050EDD42EA0242120CEA
:100C1000C5F1200603FA06F6EB4042EA06056D42EE
:100C2000984161F100010DE062FA06F5F24055408D
:100C300063FA06FC82EA0C02F3405A406D4290418E
:100C400061EB030111F4801F05D1641E620502D01F
:100C50006D004041494121F48011430875F1004382
:100C600050F1000041EB0451F0BC70471CEB410F08
:100C700015D223F0004352EA43060BD04FEA4C0C46
:100C8000BCEB410F04D80C0D661E342EB7DDEBE72C
:100C9000801A994150EA410608BF0021E4E708BFE5
:100CA0001CEB430F28BF6FF00001DDE7B0B581EA10
:100CB000030C0CF0004C40F2FF7515EA11541DBFF7
:100CC00015EA1357AC42AF4239E0E41923EA455321
:100CD00043F48013C90241F0004141EA505EC7026B
:100CE0001100A7FB020200284FF00000EEFB0120DC
:100CF0004FF00001E3FB072118BF42F0010240184A
:100D000000214941E3FB0E01A4F580640F0302D2E8
:100D100052004041494154F101046CDD470872F131
:100D2000004250F1000051EB0451A1F580115CBF6D
:100D300041EA0C01B0BD4CEA05510020B0BD05EA06
:100D40001357AC4214BFAF4241E050EA410E1CBF02
:100D500052EA430E02E061460020B0BD24423C440A
:100D60001BD15FEA070EF6D0090302BF014600203F
:100D7000AEF1140EB1FA81F7AEEB070401FA07FEEB
:100D80000C37C7F1200100FA07F7C8404EEA000E01
:100D900023EA455343F48013A2E733F00043B3FA48
:100DA00083F704BFB2FA82FE77440B3FE41BB7F12E
:100DB000200E2FBF02FA0EF3BB40C7F1200E22FA1D
:100DC0000EFE38BF43EA0E03BA40641C82E750EAC5
:100DD000410E14BF52EA430E6FF000014FF40017AA
:100DE00017EB430F8ABF194617EB410FB5E74CEAE3
:100DF00005510020B0BDD4F10104B4F120070FDA91
:100E0000C4F12007520828BF42F0010210FA07F58A
:100E100001FA07F7E1BF2A43E0403843E1400FE021
:100E2000352C98DCC7F1200452EA400220FA07F280
:100E300018BF42F0010231FA07F0A1400A43002135
:100E400072F1004250F1000051EB0C01B0BDFEE721
:100E50002DE9F04140F2FF7581EA030C0CF0004CE3
:100E600015EA11541DBF15EA1357AC42AF42E9E031
:100E7000BC41C1F31301C3F31303801A994143F436
:100E8000801304D2641E4000494180185941C902B0
:100E900041EA5051B1FBF3F603FB1611A2FB0675B4
:100EA000D7EBC020A94102D2761E80185941C90251
:100EB00041EA5051B1FBF3FE03FB1E11A2FB0E757C
:100EC000D7EBC020A94103D2AEF1010E80185941E1
:100ED000890241EA9051760546EA8E2EB1FBF3F67F
:100EE00003FB1611A2FB0675D7EB8020A94102D2A5
:100EF000761E80185941C90241EA50514EEA060E49
:100F0000B1FBF3F603FB1611A2FB0675D7EBC0206D
:100F1000A94102D2761E80185941C90241EA5051B6
:100F2000B1FBF3F703FB1711A2FB0735D3EBC0208E
:100F3000A94167F100070CBF004247F0010766F3C3
:100F4000D5274FEA1E31B80814F5806414DDBD07BB
:100F500075F1004250EB0E5051EB045111F5801F1A
:100F60005CBF41EA0C01BDE8F0814CF07F6141F0CB
:100F7000E0410020BDE8F081BD076D0840EA0E5059
:100F800041F48011D4F10104B4F120060ADAC4F16D
:100F900020060200E04001FA06F3E1401843B240A7
:100FA00015430EE0342C14DCC6F1200445EA40055C
:100FB0006D0820FA06F2154321FA06F0A1400D4310
:100FC000002175F1004250F1000051EB0C01BDE829
:100FD000F08100205FEA0C01BDE8F081CFB99218E2
:100FE0005B41B3FA83F704BFB2FA82F6BF190B3F35
:100FF000B7F120062FBF02FA06F3BB40C7F1200667
:1010000022FA06F638BF3343BA401CB1E419641E15
:101010002FE77F4231F00041B1FA81F404BFB0FA0A
:1010200080F6A4190B3CB4F120062FBF00FA06F19C
:10103000A140C4F1200620FA06F638BF3143A04093
:101040003C1B16E7AC421ABF05EA1357AF4214E047
:1010500050EA41061CBF52EA4306BFE750EA410787
:10106000304661461CBF41EA0551BDE8F08152EAB5
:10107000430C08BFC143BDE8F08100204FF40016C7
:1010800016EB410F98BF16EB430F08BF16EB410F4D
:1010900024BFC14305E016EB430F0CBF61464CEA89
:1010A0000551BDE8F081FEE780B51348C046C04653
:1010B0000FF24C020FF244010160426241600FF2F4
:1010C0004402826381600FF24402C16001614161A8
:1010D00081618162C16201634163C26301644164F1
:1010E00001BD10B50448C046C0460446206808B992
:1010F000FFF7DAFF204610BD442200200000000068
:101100002E00000066616C736500000074727565E6
:101110000000000091FBF2F303FB1211C0E9003163
:101120007047FEE780B5DFF80C00C046C046806916
:1011300002BD0000D422002030B430B90FF24800C4
:10114000D0E90045C2E900451BE00170012030BC38
:10115000704730B431B90FF23800D0E90045C3E927
:1011600000450EE01AB930BC6FF00100704708B1BD
:101170000A7802800978481E804130BCC043C00F05
:101180007047002030BC70470000000000000000E5
:1011900000000000000000000749086808B10020B6
:1011A00070470648C008C00008600549C908C90062
:1011B000091A0160704700BF103400204F2B002037
:1011C000482D00207047FEE7841A71EB030603D216
:1011D000001BB141121973414FF4001C1CEB410F6D
:1011E00034BF7CEB430443E00C0DA4EB1356352EC7
:1011F00050DC45EAC323DB0A45EAC121C912B6F136
:1012000020050DDD63FA05F6EB4086EA0305124280
:1012100018BF45F00105C01851F100010CD213E0D0
:1012200062FA06F5F2405540F3415A40B340F340AC
:101230005A408018594107D349085FEA30005FEAF5
:10124000350528BF45F0010501F58011420875F10B
:10125000004250F1000041EB0451F0BC4FF4001C7F
:101260001CEB410F38BF70470020090D090570477E
:101270001CEB410F10D252EA43060BD0BCEB410FDE
:1012800005D80C0DAB43661E342EB5DD02E0AB4332
:1012900080185941F0BC7047F0BC70470EE016E072
:1012A000D0F80403084018BF0120C0B2704700F214
:1012B0000C5082600160704712E000BF81B00022D4
:1012C0000A5008580090009801B0704700BF0858B5
:1012D00000B10120C0B2704700F20C5002E000BF24
:1012E00000F5A16001608260704710B5202841EAD6
:1012F000420132BF4FF0A04400F01F00DFF8E44786
:1013000041EA8302029942EA0122039904EB800038
:1013100042EA0141C0F8001710BD00B583B000F0EB
:101320000CF8012106E000B583B000220192009282
:101330000B460021FFF7D9FF07BD00210191009165
:10134000002301227047202832BFDFF89C1700F0ED
:101350001F00DFF89817012202FA00F008607047BA
:1013600038B50D460446286810F1010F04D0FFF788
:10137000EAFF2868FFF7D1FF686810F1010F1CBF72
:101380000021FFF7D0FF2279DFF86417A86901EB8D
:101390004211097F00292168C1F82405687D297D53
:1013A0001CD000F039F8FFF797FF287D012832D1D3
:1013B000A86810F1010F1CBF0021FFF7B4FFE86817
:1013C00010F1010F04D0FFF7BEFFE868FFF7A5FF9B
:1013D000AA68E9682068BDE8384080E700F01CF89A
:1013E000FFF765FF287D012815D1A86810F1010FCE
:1013F0001CBF0021FFF797FFE86810F1010F04D030
:10140000FFF7A1FFE868FFF788FFAA68E96820688E
:10141000BDE8384050E731BD08432168C1F86C058C
:101420006A6829682068704738B50D4600F026F8CC
:1014300080B120684FF48871FFF73FFF00F08FF80C
:1014400020684FF49271FFF738FF00F0B6F9DFF82B
:10145000A40608E000F0E2F820684FF4A271FFF75C
:101460001DFFDFF894062168C1F8040329462068AF
:10147000BDE834400003001600F042BB0446DFF82C
:101480007006217900EB4110007F70472DE9F04193
:101490000446DFF85C86207908EB40170D46F87E9D
:1014A000164608B1082020E0687F38772046FFF70D
:1014B00057FF7E6028693860786818B1297F204618
:1014C000FFF7B2FF207908EB4010007F002814BF1F
:1014D000082004202168C1F800050020F87538763E
:1014E000B8750120F8760020B876BDE8F08138B5EF
:1014F0000D4604464FF48E71FFF7D0FEA868A98A06
:10150000085CA98A491CA982C4F81C0531BDF8B53C
:101510000446DFF8DC05217900EB411500F01FF8E7
:1015200000F0D7F92168A87DAB6801F2445200268B
:101530001360506001208860686870B920684FF4BB
:101540009071FFF7C3FE074600F0BFF950EA0701AC
:10155000F4D000B10F260020A8753046F2BD2068F7
:101560004FF49071A9E62DE9F0410446DFF880556B
:10157000207905EB40170E46387F00281EBF06F085
:101580006040B0F1005F1020904641D1204600F04D
:1015900049F808B111203BE087F81680BE60B88298
:1015A000207905EB4015287F18B12046BDE8F041B1
:1015B000ADE700F033F8206801218160002629465C
:1015C000FFF795FF686810BB0EE000F023F818B92C
:1015D000A88AB0F5807FF8D1A88AB0F5807F03D0C3
:1015E00020682946FFF783FFA88AA97D8842ECD3AB
:1015F000A88AB0F5807F08BF0F2606D000F00AF851
:101600000028FBD021680120C8600020A875304662
:10161000BDE8F08120684FF48E7140E620684FF4F9
:101620008E713BE60079DFF8C81401EB4010807D35
:1016300000B10120704710B504464FF49271206844
:10164000FFF72CFE20684FF48471FFF727FE216816
:101650000120086010BD38B50D460446E87D00281D
:101660004FF48471204604D1FFF718FED4F8180512
:1016700031BDFFF713FE687ED4F81815EA6881546F
:10168000687E401C687631BD2DE9F0410446DFF8E4
:101690006004217900EB4115A87E184304BF204661
:1016A000FFF7C9FF20686968A9BB4FF4A271FFF773
:1016B000F5FD20684FF49271FFF7F1FD06462068B2
:1016C0004FF48471FFF7EBFD804620684FF4A27160
:1016D000FFF7E5FD074647EA08003043E9D057EA3F
:1016E000060007D120682946FFF7B5FF687EE97D2F
:1016F0008842DED30020E8750EB1032010E00FB160
:101700000F200DE0A97E2068002907BF012141605C
:101710000121016003E04FF40171C0F804130020BF
:10172000BDE8F0812DE9F04104460E4620681746D9
:1017300098464FF48871FFF7C0FD00F03EF820682E
:1017400000F2345100250E60B8F1000F4F6002D155
:101750000121016005E0D0F8001241F02001C0F83D
:1017600000122179DFF8886306EB41114968E9B975
:1017700020684FF48871FFF7A9FD804620684FF478
:10178000A271FFF7A3FD074620684FF49271FFF79F
:101790009DFD47EA08010143EAD0217906EB41119A
:1017A000CD7500B103252FB10F2503E04FF404716F
:1017B000C0F804132846BDE8F08120684FF4A271F8
:1017C0007BE5F8B50379DFF8284304EB431595F87A
:1017D0001CC0BCF1000F1CBF01F06043B3F1005FFF
:1017E00001D01020F2BDD5F804E00023BEF1000FB7
:1017F0004FF401764FF4047708D0BCF1000FD0F815
:1018000000C014BFCCF80873CCF8086395F817C073
:10181000BCF1000F14D02B7E73B1696851B101790E
:10182000006804EB4111097F002914BFC0F804735C
:10183000C0F804631120F2BD012329612A7603E078
:10184000EA75E9606B762B76057904EB4514247F05
:101850001CB101B0BDE8F04064E701B0BDE8F04064
:1018600012E738B50446A24D207905EB4010017F00
:10187000002904BF807E002807D12046FFF7DBFE49
:10188000207905EB40100121817631BD00B585B08E
:10189000034601208DF808108DF80000019268467B
:1018A00019685A680EE000B585B0024600208DF830
:1018B00000008DF80810906801900020907568462F
:1018C00011685268904705B000BD20684FF4AC71B4
:1018D000FCE420684FF4AC71EFE47FB50D4604469C
:1018E0004FF40071FFF7DCFC4FF4017620B34FF4A6
:1018F000927100F07BF8F8B14FF492712046FFF737
:10190000CDFCC4F80863A87E08B9012060600220FD
:101910008DF80000D4F88004C4F880040390E87DBA
:101920008DF80800E86801900020E875287629689D
:101930006A686846904729E004212046FFF7B0FC1A
:1019400020B34FF4847100F051F8F8B129462046D5
:10195000FFF781FEE87D697E884217D1287E40B17D
:10196000EA68697EE8752869E8600020287668766C
:1019700009E0A87E08B901206060C4F8086300206F
:10198000EA68E875697E2846FFF780FF4FF48E719C
:1019900000F02CF890B1A88AA97D884204D229468B
:1019A0002046FFF7A4FD09E04FF48E712046FFF7B3
:1019B00075FCA97D11B12846FFF775FF4FF4A271A0
:1019C00000F014F888B14FF4A2712046FFF766FCCE
:1019D000A87E08B101202060E87D30B10020EA68CF
:1019E000E8752846697EFFF751FF7FBD2046FFF767
:1019F00056BC7FB50C464FF492710546FFF766FC66
:101A000005F23C56C0B14FF4927100F05EF802202E
:101A10008DF80000D5F88004C5F880040390306884
:101A20008DF80800E06801900020E07520762168BC
:101A300062686846904722E04FF488712846FFF7B5
:101A400045FCE0B14FF4887100F03FF83168E07D6B
:101A5000C9B2814213D1E268207E60B1D5F800029C
:101A600020F02000C5F80002207EE0752069E060CB
:101A70000020207600E0E0752046FFF707FF4FF4D6
:101A8000A2712846FFF722FC68B14FF4A27100F062
:101A90001CF8E07D38B10020E07520463168E2682E
:101AA000C9B2FFF7F3FE4FF490712846FFF70EFC22
:101AB00050B14FF4907100F008F8A07D20B1316969
:101AC000C9B22046FFF7EFFE7FBD2846FFF7F5BB02
:101AD00007490A480A7F002A18BFFFF78ABFFCE6B9
:101AE00000000000000300500805005008080050E6
:101AF000803300201003020080000200002000401C
:101B000010B54901020006D50A4B00F00F04E31896
:101B100003F8041C01E0084C01554109012200F0C2
:101B20001F0002FA00F0054A42F82100044A42F878
:101B3000210010BD18ED00E000E400E080E200E0CC
:101B400000E100E0012100F01F029140DFF8A42530
:101B500005E0012100F01F029140DFF89C254009BB
:101B600042F820107047012100F01F029140DFF879
:101B70008C25F4E74901002807D5DFF8842500F01B
:101B80000F00801800F8041C7047DFF87825815496
:101B900070470000002840D0DFF86C15DFF86C2596
:101BA000096800BF00BF00BF00BF00BF00BF00BF8B
:101BB00000BF91422FD000BF00BF00BF00BF00BFD9
:101BC00000BF00BF00BF00BF00BF00BF00BF00BF1D
:101BD00000BF00BF00BF00BF00BF00BF00BF00BF0D
:101BE00000BF00BF00BF00BF00BF00BF00BF00BFFD
:101BF00000BF00BF00BF00BF00BF00BF00BF00BFED
:101C000000BF00BF00BF00BF00BF00BF00BF00BFDC
:101C100000BF00BF00BF0138C3D1704710B5DFF867
:101C2000F014DFF8F0444FF4003008604FF48031D6
:101C3000DFF8E404016401600120206000F001F994
:101C4000012060600020DFF8D444206100F0F9F842
:101C50000020A07210BD70B5DFF8C0040178C26822
:101C600019E01C46DB69B3B1AB42FAD19C4202BF1A
:101C7000F569C560002D07D1DFF8A4640125356042
:101C8000002505610125C5721D68DB69E36113B19B
:101C90001C682C191C60437899421DD04368182495
:101CA00014FB0133491C8478C9B2A14208BF00214A
:101CB0001C78022C02D0032C05D0ECE7C6685D68C6
:101CC00034462346CFE7C368002B1FBF00241C7493
:101CD000DB69C360F7D1DEE7C068904214BF012022
:101CE000002070BDF0B5DFF83414CA6800E0CB60A6
:101CF00068BB0B784C78A34257D04C68182515FB6D
:101D000003445B1C8D78DBB2AB4208BF00230B7031
:101D100025786368012D04BF1D7C002DE9D1A568DD
:101D20005D60E5689D602569DD6064699C61CC7AD1
:101D30000CB100245C600C695D68DFF8E8732E1B51
:101D40003602360ABE4205D29C68A4190AE0034650
:101D5000D869F0E7641B24029D68240AAC4234BFB2
:101D60002C1B00241C6000245C609C6001241C74FB
:101D70000024DC61CC68002CB9D025681E68B5420F
:101D800003D3AD1B2560DC61B1E725462F68B74260
:101D900005D22C46ED69F61B002DF7D101E0BF1BE3
:101DA0002F601E60DD61E361A2E7C868904214BF46
:101DB00001200020F0BD2DE9F843DFF86043E06822
:101DC000002839D0D0F80080DFF85C532E682769EE
:101DD000F01B0002000A00F10309A07A90B9DFF8B5
:101DE0004C034FF48031016401601120FFF7BBFE0A
:101DF0001120FFF7A7FECE490120086000F021F86E
:101E00000120A072C14538BFC14609EB070000029E
:101E1000000AE863801B2968891B09020002090A7D
:101E2000000AC91C88420AD22868E86300F009F851
:101E3000BDE8F24311208CE6BDE8F143EEE6BDE8D3
:101E4000F1832F20A6E62DE9F047B44E737A30696E
:101E5000317AD6F80C800025994281460A460DD089
:101E6000521CD2B2022A08BF002206EB82010127CF
:101E70004C6920180002000A306101E000240027AC
:101E80003272FFF7E8FEF1688246EFB1002312E0FC
:101E9000241AC318002010600846D169D76857B1CA
:101EA00003EB090E4FEA0E2E4FEA1E2EC2F804E095
:101EB0009760D561054629B10A4610688442E7D289
:101EC000001B10604FF0010AF1602846FFF70AFF7F
:101ED00000280EBFBAF1000F4046FFF76CFF00204C
:101EE000F072BDE8F0878D494870704710B58B4996
:101EF0004A788C78531CDBB2A34208BF00230C78CD
:101F0000A34201D1002010BD03704868182111FBC5
:101F1000020010BD70B582B0044600260D468DF853
:101F20000060684600F008F90DF10100FFF7DEFFE0
:101F300008B9042605E0057044609DF80100FFF72C
:101F4000D2FF9DF8000000F012F916B91420FFF737
:101F500000FE304676BDF8B57648704C002101642D
:101F600041648164C16401604160E6689EB36E486B
:101F700000682169401A070200253F0A306887423D
:101F800016D33F1A45193046F669017C71B100211C
:101F9000017442698169E369180005D010469847C9
:101FA00020B100F0FFF801E008469047002EE5D18F
:101FB000607A217A814201BF401C6072C0B202285F
:101FC00004BF00206072607A04EB80004561142039
:101FD000BDE8F240BDE5F1BD35E72DE9F04104462D
:101FE000174617F003000E46984600D10FB9072098
:101FF0001DE0FFF713FE0020484D2880E86028818F
:10200000C5F81C80AE706F601420FFF7ACFD07218F
:102010001420FFF7AFFD1420FFF794FD424E072177
:1020200074601120FFF7A6FD306828610020BDE82C
:10203000F0813A4B5B6843B1130018BF002801D10F
:10204000072070470068037C0BB1082070470374B9
:1020500041744261002070472DE9F04106462F4847
:1020600082B04068002818BF002E0C46904605D06C
:10207000052C38BF07202CD3706908B9082028E048
:10208000707C01280CBF2546002500278DF80070C4
:10209000684600F051F80DF10100FFF727FF08B97D
:1020A00004270DE00121017046601F490968816025
:1020B000C4600561C0F814809DF80100FFF713FFAC
:1020C0009DF8000000F053F817B91420FFF741FD08
:1020D0003846BDE8F68111494968002918BF002833
:1020E00001D0416909B9082070470021017402211B
:1020F00010E7000000E100E000E200E080E200E024
:1021000018ED00E000E400E0602100200024F4006D
:1021100080E100E00410014008130140403300203A
:1021200008100140FFFF7F00041501400413014027
:10213000001001400011014030B5EFF3108172B67C
:10214000144A936873B90123134C93602568134BA9
:102150001D4015602360636853604FF0FF3262607A
:10216000002200E00122027001B962B630BD0949C7
:102170008A6862B158B9EFF3108072B6084A0B68EA
:1021800013604B68536000228A6000B962B67047E2
:1021900000000000E433002080E100E0FC06FFBC0A
:1021A00000E100E010B584B069460022002300245D
:1021B0001CC100F001F81FBD02906A46002144F2E4
:1021C000010000F001B8FEE7BFF34F8F0548064A53
:1021D000016801F4E06111430160BFF34F8F00BF5C
:1021E000FDE700BF0CED00E00400FA050870000AEE
:1021F00048700220704730B50D4683B004462888E9
:102200000930824201D20C203EBD68466DDFF0B934
:102210002988082008551B212888401C2880062270
:1022200080B201550DF1010100F082F90019FEF7AD
:102230006BFA2888801D288080B29DF800104A081B
:1022400018BF012202552888401C288000203EBD6E
:1022500070B5054682B028780C46012804BF69781D
:10226000002901D1072076BD11888E1CB3421FD3EF
:10227000012804D168780818801C834218D3581AA2
:10228000831EADF80030694610880019801C7DDF80
:1022900058BB297802290FD1BDF800009BB28342B8
:1022A00008D20820ADF80030BDF80010FF290CD38B
:1022B0000C2076BD0920F7E708200129F2D16978C2
:1022C0009BB28B42EED90B46ECE71388491C19559B
:1022D0001188491C118089B208551088401C108053
:1022E000BDF8001008181080002076BD2DE9FC47CD
:1022F0000A9E0B9C37884FF0000E05468846914693
:10230000F24607E030889DF8001050FA81F03080E6
:102310000AF1010A288882452FDA686850F82A00F5
:1023200001900022694601A865DF98BB9DF8000076
:102330004845EDD1BEF1000F14BF002002203188C6
:102340009DF8002012FA81F252FA80F084421DDBDF
:10235000BEF1000F09D1481C30804FF0010E80B251
:1023600000F803803088401C308069463088C218ED
:1023700001A865DF0028C5D00CE0BEF1000F08D031
:102380003088C01B401E80B2FF2801DD0C2001E018
:10239000F8540020BDE8F6872DE9FC41089F099C10
:1023A000019416460546984600970222FFF79EFFC5
:1023B00038B9019400974346102231462846FFF76A
:1023C00095FFBDE8F681F8B51446054620880E460F
:1023D000811D8B4201D20C20F2BD298806290EDB1B
:1023E00040F68147B9424FF6FF7301DB994206D1AF
:1023F0006A88062A03DBBA4203DB9A4205D007202B
:10240000F2BD994201D08A42F9D3052181551221AA
:102410002088401C208080B281552088401C20806C
:1024200080B281192888FFF7E1FE218851FA80F0F7
:10243000208080B281196888FFF7D8FE218851FA80
:1024400080F020800020F2BD70B5044616460D468F
:10245000A0883188801C10FA81F2921C934201D32B
:10246000FF2801D30C2070BD401C4855FF21308847
:10247000401C308080B241553088401C308080B292
:1024800041192088FFF7B2FE318851FA80F0308080
:10249000A2885AB1A16809B9072070BD80B240195D
:1024A000FEF732F93088A18808183080002070BD0E
:1024B0002DE9F04100F128060C463068154690B32E
:1024C0004FF0000809E080B20019FEF71DF92888D6
:1024D000B9880818288008F101085FFA88F830796F
:1024E000804522D230680C2111FB0807B888801C77
:1024F000FF2801D30C2019E02988401C085516211B
:1025000000F016F8015500F013F801193888FFF7AC
:102510006DFE298851FA80F02880BA88002ADAD026
:10252000B9680029CFD1072000E00020BDE8F08184
:102530002888401C288080B270472DE9F043174658
:1025400083B00546B7F80090002005F12C080E4630
:10255000388098F8011031B14A4639463046FFF7C5
:102560004AFE002835D1A978C1B13888001D8145BF
:102570002ED3684679DF00282BD13988032088556F
:10258000192100F085F880B28119BDF80000FFF72D
:102590002DFE398851FA80F038800020E97879B131
:1025A0003888C21C914549B212D3022282550122B9
:1025B0003888401C388080B2825500F069F80020CD
:1025C0006968C1B191F900003988CA1C914501D2EE
:1025D0000C2052E002228A550A223988491C39808F
:1025E00089B28A553988491C398089B2885538881A
:1025F000401C38800020298949B100F044F80622A7
:10260000022105F10800FFF7C7FE002835D1298A0D
:1026100041B100F038F80722032105F11000FFF75F
:10262000BBFE50BB298B41B100F02DF815221421BF
:1026300005F11800FFF7B0FEF8B92C6A2CB100F0D4
:102640001EF82046FFF7BFFEB8B96C6A2CB100F047
:1026500016F82046FFF7F8FE78B998F8001029B16F
:1026600000F00DF82846FFF723FF30B9297821B193
:1026700000F005F82846FFF7EBFDBDE8FE834B466A
:102680003A4631467047CDF804900097334670477C
:102690003888401C388080B281553888401C38808A
:1026A000704730B591B00C461F21ADF80210ADF85F
:1026B000001050B1C17849070DD50DF1020209A9EA
:1026C000FFF73BFFE0B909AD02E00025ADF80200DD
:1026D0005CB1E07808B1072012E06A4601A9204603
:1026E000FFF72BFF60B901AA02E00022ADF800005D
:1026F000BDF80030BDF80210DBB2C9B2284672DF67
:1027000011B030BDDFF880140858012818BF002030
:10271000704700F1804000F5C04081B000210160A9
:1027200000680090009801B0704710B5202841EA79
:10273000420132BF4FF0A04400F01F00DFF84C44CC
:1027400041EA8302029942EA0122039904EB8000E4
:1027500042EA0141C0F8001710BD202832BFDFF85F
:10276000302400F01F00DFF82C2452F8203023F42E
:10277000403342F8203052F8203043EA014142F819
:1027800020107047202832BFDFF80C1400F01F0023
:10279000DFF808140968C14001F0010070477CB5FA
:1027A0000FF20C4460CC6B4660C3034606E05DF854
:1027B0002340D4F8104542F8044B5B1C0C18A3428C
:1027C000F5D373BD012200F00703C0089A40405CB6
:1027D00010407047DFF8C813401890F930000828FF
:1027E0008041C00F7047DFF8B813401890F93000EF
:1027F0000828ACBF012000207047DFF8A413401860
:1028000090F93000C043C00F7047F0B5002A4FF078
:10281000FF3307BF08240C2500240825DFF8806358
:1028200000E0641CAC420DD256F824709F42F8D1EF
:10283000831983F8304046F8241012B9A11981F8A1
:102840005800234658B2F0BDDFF854134FF0FF3262
:1028500041F820200828A4BF401880F8582070476D
:1028600038B5DFF83C4394F8640008B1082032BD65
:10287000FF22302104F1300000F09EF900252846A7
:10288000FFF7E2FF6D1C0C2DF9DB07210620FFF797
:1028900037F94FF4BE70FFF73CFFDFF808134FF035
:1028A00000400860012084F86400002032BDDFF899
:1028B000F00290F8640000B101207047F0B583B0D9
:1028C00005460F461646FFF798FF002408B1082476
:1028D00046E0FA7831462846FFF797FF064616F19C
:1028E000010F3CD0B87880B12846202832BF4FF085
:1028F000A04100F01F00A54901EB8000D0F80017AF
:1029000021F00201C0F8001707E0019000900022BA
:102910007B7800212846FFF708FFF878A0B13978C6
:10292000A148A24B50F826201A4040F826202B023E
:10293000090450F8262003F4FE4301F44031194302
:10294000114340F826100BE095483A5731183018DB
:1029500091F8581041EA821180F8581000E00424E0
:102960002046FEBDF8B50D4607468D4CFFF73BFFF0
:102970003E19B0B196F93000001990F958000006E0
:10298000800F032804D13846FFF7FCFE10B103E0A6
:10299000012801D1022100E003213846BDE8F440BE
:1029A000DBE63846FFF716FFD0B196F930707E4867
:1029B00050F8271041F0010140F82710B80000F549
:1029C000807000B2FFF7A5FE002D1EBF96F9300003
:1029D00054F82000002803D001207249B840086054
:1029E000F1BD80B5FFF7CEFE00B10120C0B202BD3F
:1029F0002DE9F04F89B002A80021002206C0002670
:102A00004FF48079012708250FFA89F0FFF77AFE45
:102A100000281EBF63480068384204D00FFA89F0CE
:102A2000FFF777FE3E437F006D1E09F10409EBD1ED
:102A30004FF4BE70FFF766FE50B14FF4BE70FFF763
:102A400068FE02AA02210020FFF7A9FE46F0004618
:102A50003006DFF84C9115D00127534C37420DD08A
:102A600054F8250054F8251059F82520130005D0F6
:102A7000090C01F00301C0F3062090477F006D1C94
:102A8000082DEBD3002E7BD506A80021002206C01E
:102A90004FF0FF300090019006AE06E0049A0292DB
:102AA0004160069A7068009201900027002505EBAE
:102AB000090090F96000C4B210F1010F24F0C008C1
:102AC0004BD069464046FFF77DFE002845D0A0095F
:102AD00000F0030408EB090090F9300059F820A039
:102AE000BAF1000F02D1032C37D101E0032C08D139
:102AF0004FEAD8000122815D08F007039A40114394
:102B000081554046202832BF4FF0A04100F01F0001
:102B10001E4901EB800002A9D0F80007000C00F06C
:102B2000030B4046FFF74EFE18B1BBF1020F14D164
:102B300002E0BBF1030F10D1032C08D1BBF1020F4F
:102B40000CBF032102214046FFF707FE7F1CBAF1AC
:102B5000000F02D021464046D0476D1C042DA6D35D
:102B6000FFB26FB104AA02210020FFF718FE049AF9
:102B7000029B059902A89A4204BF426891428DD1F6
:102B800009B0BDE8F08F0000006000400003005075
:102B900000070050000A00501005005010080050B7
:102BA0002C3100200463004010650040FF80FCFFD2
:102BB000000000500003005062F30F2262F31F4236
:102BC00000B500BF130096469446103928BFA0E810
:102BD0000C50FAD85FEA417C28BF0CC048BF40F8CF
:102BE000042BC90728BF20F8022B48BF00F8012B8F
:102BF00000BDFEE770B50C461546002605E0305DC9
:102C000000F0C4FA0028FAD1761CAE42F7D30D20AA
:102C100000F0BCFA0028FAD10A2000F0B7FA002828
:102C2000FAD170BD007840B9DFF8A40300883B21D9
:102C300076DF002818BFFFF7B5BA7047FFF7B2BAC2
:102C400080B5002000F0F3FB08B1FFF7ABFA00F00D
:102C500098FC08B1FFF7A6FA32DF00281CBFBDE8D8
:102C60000240FFF79FBA01BD80B548B1032808D1E3
:102C7000022000F0DCFB20B1BDE80240FFF792BA71
:102C800094E001BD30B5DFF8485389B0044621888F
:102C90002888022930D010290ED0112914D01329E8
:102CA0001CD03B2924D051292AD052291BD0552988
:102CB00044D056291CD047E0072000F0B8FB08B1EB
:102CC000FFF770FAA08807E0002000F0B0FB08B121
:102CD000FFF768FA4FF6FF70288035E000230022E6
:102CE00085217FDF2DE0002300220021A9DF28E0DD
:102CF000A088132176DF24E0A088002167DF20E090
:102D00006846A11D1022FDF7FFFC9DF80000D8B118
:102D10009DF8080004281CBF0628052814D19DF83A
:102D20000000022818BF01208DF8100004A94FF4FC
:102D3000C170ADF81400A088A8DF02E0A0881721B8
:102D4000ADDF08B1FFF72EFA09B030BD10B504466B
:102D500000F002FD21469F4800F0D7FD2046FFF716
:102D600091FF204600F0B0FF2046BDE8104000F083
:102D700018BC80B596490A88042804D0072806D0D4
:102D80000A2812D112E01321104676DF05E04FF633
:102D9000FF70824209D100F0C4FF082805D0002846
:102DA0001CBFBDE80240FFF7FDB901BDBDE8014011
:102DB00046E710B5017819B102291ED01DD310BD08
:102DC000854C20780019001D00F0C7F92078421CBE
:102DD0002270D2B21119C9780A2901D0142A11DB44
:102DE000211D04F1180000F0EEFD08281CBF00288A
:102DF000FFF7D8F90020207010BDBDE810404068F2
:102E0000FFF7D0B910BD00B5A7B03C2118A800F05D
:102E1000A9FF02208DF860003C2100208DF862009F
:102E200005208DF8630009A800F09CFF0120ADF893
:102E30003400202169480E9001A800F093FF012082
:102E40008DF8070040200590B420069000200090E7
:102E500001AA634B09A918A800F0E6FD08B1FFF725
:102E6000A1F927B000BD10B55B4C96B0002304F566
:102E7000217205210020FFF7B0F808B1FFF792F9A1
:102E80000FF28411574A0FA891EC060B80EC060B49
:102E900004F184000B9004F5C2714FF480700C9023
:102EA0000D910E9007230BA90FA800F000F908B1AF
:102EB000FFF778F94C4A40F6CD41032000F0C1FA03
:102EC00008B1FFF76FF90AA9002000F0A7FB08B1CD
:102ED000FFF768F90FF258100068009000235022A5
:102EE00004F13401684600F0D2FF08B1FFF75AF947
:102EF00003AA0121002001F007F808B1FFF752F9F9
:102F00001720ADF81C0003A801F016F808B1FFF770
:102F100049F9364800F0E2FF08B1FFF743F9112004
:102F20008DF800000B220FF2D40168467CDF08B157
:102F3000FFF738F901A80021002206C01020ADF8E3
:102F40000400ADF808103C20ADF806004FF4C8703E
:102F5000ADF80A0001A87ADF08B1FFF723F90021D4
:102F6000009169462248009004F1180000F0FDFC31
:102F700008B1FFF717F9FFF746FF1C2103A800F07F
:102F8000F1FE002003904FF4203004904FF47020A5
:102F9000059003208DF818000020ADF81A008DF878
:102FA0001C00144808901448099003A800F083FB03
:102FB00008B1FFF7F7F80FF2680000F0DBFF03201D
:102FC00000F0AEFD08B1FFF7EDF83EDFFAE70000D4
:102FD00044230020602D0020482D00205C2100208B
:102FE000692C0200B32D0200732D02004D2D02004A
:102FF000F52B0200252C02003D2C02004E6F72645E
:1030000069635F554152540008000000060000004B
:1030100005000000070000000000000000E0D701EC
:103020000D0A55415254205374617274210D0A00E7
:10303000010000071CB50178664C59B3022921D064
:1030400034D240680178201D00F0D5FF616920B1BD
:1030500001228DF80020019006E0E0682269101A34
:1030600004D000208DF8000068468847E068218978
:103070002269101A814202D300F081F813BD0120A9
:10308000207013BD8DF800100122C068019000F07F
:1030900077F808E000F090F810B900F093F813BD4D
:1030A00003208DF8000068466169884713BDF0B5BC
:1030B000484D89B004460F006A611E4608BF0720CC
:1030C00049D07A68396892B2281D00F083FF002841
:1030D00041D1FA68B96892B205F1240000F07AFF94
:1030E000002838D10FF2F401684691EC080B80EC0F
:1030F000080B60690690207C00B101208DF8140057
:103100008DF81C60607C00B10E208DF815006946BA
:10311000E068314A0290A0680390206801906068DE
:10312000009005F11C00FEF7B1F9A0B928702068E5
:1031300010F1010F0ED09DF81D0018B905F11C000B
:10314000FEF78FFB012205F1190105F11C00FEF7C6
:1031500038FB00E0002009B0F0BD70B51D4C2578AB
:103160000146201D00F054FF064635B100202070B6
:1031700000F005F808B1FFF715F8304670BD0122E0
:1031800004F1190104F11C00FEF71BBB38B5114C0A
:10319000014604F1240000F02EFF05000AD104F1DD
:1031A0001C00FEF73FFA28B900F006F810B900F04D
:1031B00009F80546284632BD04F1180104F124003F
:1031C00000F026BF012204F1180104F11C00FEF7F3
:1031D000CAB900002821002035300200FFFFFFFFA0
:1031E000FFFFFFFFFFFFFFFFFFFFFFFF00000000EB
:1031F000000000000000D60107010000202832BFB7
:10320000BE4A00F01F00BE4A52F8203023F440337B
:1032100042F8203052F8203043EA014142F82010B1
:10322000704700F08BBF2DE9F8438046894600F0D7
:103230009BFF002404282FD2B24E00EB40018F19CF
:103240008519B9F1000F15D0B9F1020F1BD01BD2AF
:103250003C78787858B170690A21414306F10E0232
:1032600006F16000FEF7F8FE08B986F80E80B8781F
:10327000287409E006F16000FEF72DFFBC78287C79
:10328000A04209D100E07C7834B1F169080003D094
:103290002046BDE8F4430847BDE8F18300780221E9
:1032A000C1E700002DE9F041964D0446687B0026F9
:1032B00010B16E7300F0FBFE172C4FF4C8774FF47B
:1032C0007A685ED8DFE804F07F0C0C1B232D3E45A6
:1032D00049504950995E5E5E5E5E7F82888F999903
:1032E00000F097F830B100F091F8022C14D14FF4AF
:1032F000E1671FE000F0D1FE022C1BD119E000F0C5
:1033000088F8A0B100F082F84FF4487712E000F09E
:1033100080F818B100F07AF847460BE000F0BDFEE7
:1033200008E000F076F810B100F070F801E000F06D
:103330006AF8C82768692C736421B7FBF1F1002291
:10334000414319E0002000F0C4FE0620696928739B
:1033500008E000F058F807204DE00120687300F005
:10336000B8FE6969002207E00120687300F0B1FE31
:103370006869002200EB800105F12000FEF76CFE79
:1033800006463DE005F14000FEF7A5FED4F1110729
:10339000064614D09EB9022F0DD3C821686911FBCF
:1033A00007F16423B1FBF3F14143002205F1400032
:1033B000FEF752FE0646022000F06FFE20E00220DB
:1033C00000F070FE1CE000F072FE18E000F06FFEEE
:1033D00000F019F813200EE000F069FE012000F063
:1033E0005CFE142007E000F062FE00F00CF8012003
:1033F00000F053FE1520287302E000F061FE2C73EC
:103400003046BDE8F081002000F047BE002000F00B
:1034100049BE002000F037BE3A48017EC90744BFCC
:10342000007BFFF73FBF7047022000F052BE354AD5
:10343000127E01460020D20744BF0846FFF732BF84
:103440007047F8B504462F480D4600264561846153
:10345000C261A0071FD5002701220121384600F0D4
:1034600030F87F1C042F064601D2002EF4D036B966
:103470006A0804210FF2BC0000F0E7FE064616B908
:1034800000F015FF064636B91F4A0FF2A4000021CE
:10349000FEF7CFFD0646E00748BF00F03BFE36B919
:1034A0001A4A0FF284000021FEF7C3FD064636B922
:1034B000174A0FF278000121FEF7BBFD06463046A1
:1034C000F2BD10B50023042814D2012A04D1012929
:1034D0000CBF00F10E0200220A4C00EB4000001964
:1034E00031B1022902D005D2027004E0427002E03C
:1034F000827000E00723184610BD0000000700504E
:10350000000A0050443000209D32020019340200AD
:103510002934020080B500F037FE0321FFE7FFF7F2
:103520006DFE002002BD00006430002084300020C9
:10353000A43000200B000300273202000C0003001F
:10354000273202001800030027320200190003008E
:103550002732020080B5012200F05CF8002818BF75
:1035600007280DD100F051F8002818BF072807D10F
:103570000A22002100F04FF8002814BF072800207D
:1035800002BD80B50020FFF7C5FF002818BF062840
:1035900006D10120FFF7BEFF002814BF0628002037
:1035A00002BD10B5294C00886168102802D011288E
:1035B0001ED010BDC1B9012200F02DF8002818BF9F
:1035C00007280CD100F021F8002818BF072806D1E1
:1035D000042200F01FF8002818BF072804D018B1F3
:1035E00021680A0018BF88476068401C606010BDF1
:1035F000481E606008D1FFF7ADFF28B121680A00BE
:103600001CBFBDE81040084710BD07220221012061
:10361000FFF757BF02210020FFF753BF70B50B4ED5
:103620000C460025306054B10120FFF7FAFD08B1C7
:10363000022003E0FFF7F5FD00B10B202070706859
:1036400010B9FFF787FF0546284670BD00340020FB
:10365000614940880A88904223BF498881420120FD
:103660000020704710B55D4C82B0E08B4FF6FF71C3
:1036700088421FD0217F227B491C2177C9B28A4210
:1036800007D3554975DFA8B1A1690A0012D0884750
:1036900013BD00212177217C31B13B2176DF18B1A8
:1036A000A1690A0018BF88476169080002D000209C
:1036B00000F04EF813BD38B50446484D2846214663
:1036C0001C22FDF731F8002068772168424C002960
:1036D000204612D000F07CF820467ADF60B94FF621
:1036E000FF70E883002028770021BDE838403C4A7D
:1036F0000FF2F400FEF79DBC32BD7BDF0028EED058
:1037000032BD10B582B03748344CFFF7A1FFB0B9D5
:10371000607F20B16169080017D0002013E0207F8E
:1037200000280CBF6168A168002204F12000FEF7A8
:1037300093FC50B1A1690A0007D0884705E0616990
:10374000080002D0012000F003F80020607713BDCC
:103750008DF800006846084710B501461F4C0A88DE
:103760002048102A06D0112A0ED0122A29D0502A19
:1037700010D010BD8A88E283103100F029F80020B3
:103780002077E08918BB1FE04FF6FF70E083002030
:1037900020770BE0881DE2890188914204BF4189AE
:1037A000022914D10C3000F0A2FD68B904F1200008
:1037B000FEF791FC58B1A1690A0008D0BDE810409D
:1037C0000847083100F004F8BDE8104099E710BD43
:1037D0000822FCF799BF0000F0330020903200204F
:1037E00065360200F8330020B032002010B590B0EA
:1037F0000446032101A800F0B5FA11208DF8040059
:103800008DF805001C219DF8060000F0F90040F03D
:1038100002008DF8060008A800F0A4FA9DF8200028
:1038200040F010008DF820000321002009900B903B
:103830000C9001A80D9000200E9020788DF80A00C1
:103840000320ADF80800684600F08CFA00F04EF84E
:1038500003A800F087FA02A80390CDF810D0012049
:10386000ADF8140004F10C030020ADF8160003AA13
:103870001420ADF8180008A96088A2DF10B010BDB0
:1038800010B58EB004461C2107A800F06BFA9DF815
:103890001C0040F00C008DF81C0003210020089053
:1038A0000A900B900C900D9020788DF80600022065
:1038B000ADF80400684600F055FA00F017F802A8C9
:1038C00000F050FA01A80290CDF80CD00120ADF81C
:1038D0001000231D0020ADF8120002AA1420ADF83C
:1038E000140007A96088A2DF0EB010BD11208DF86A
:1038F00000008DF8010014219DF8020000F0E300A3
:1039000040F003008DF80200704710B5040018BFA6
:10391000002929D00888102804D0112804D0502864
:1039200006D010BD888801E04FF6FF70A08210BD60
:10393000881D228A0188914204BF4289022A06D149
:103940000C3000F0D4FC00B10120A07510BDA2889D
:10395000914209D1A369190006D0428900F10C01F6
:103960002046BDE81040184710BD70B5040086B071
:103970000D460FF2A4000FC801AE86E80F0014BF79
:10398000002D0E201DD04FF6FF70A0822146286822
:10399000A0610020A07501A863DF90B920788DF8A0
:1039A0000200A21C0120ADF800006946A0DF40B96A
:1039B00029462046FFF71AFF18B929462046FFF787
:1039C0005FFF06B070BD74B585B008B90E2020E069
:1039D000828A4FF6FF739A421ABF827D002A08201E
:1039E00017D0BDF81420152AA8BF072011DA6A469F
:1039F000002300240025002678C282890391ADF8B7
:103A0000002005A9029101218DF802106946808AE3
:103A1000A6DF06B070BD00009ECADC240EE5A9E05A
:103A200093F3A3B50000406EF8B5040018BF002A58
:103A30000D4601D10E20F2BDDFF81803DFF8186340
:103A4000012101720021C17292EC080BDFF80C1306
:103A500081EC080B0699816143614FF6FF71018289
:103A6000072100F07FF93C21304600F07BF92078F7
:103A70003070A078B070E078F07060787070D4E941
:103A80000401C6E90401D4E90201C6E90201D4E94E
:103A90000601C6E90601626ADFF8C41201F14000BE
:103AA0007AB170628160626A138803800023928811
:103AB000828004E0676ABF68DF5D5F545B1C9342ED
:103AC000F8D3A26AD2B101F12002426101F14C02A5
:103AD000B262A26A9388038212888281002206E081
:103AE000A36A9B68D35C5718521C87F82030038A5E
:103AF0009A42F5D394F82C2086F82C20226A32B111
:103B000058313162216A4A8842830988018360689A
:103B100000B1706029463046BDE8F440FEF7C1BDF3
:103B200070B58C4C86B00646207A08B90820C1E0F2
:103B3000E67204A800F0E2FB0498B8B90721204619
:103B400000F010F9854DE07A697809B1012805D0B7
:103B5000A97881B1012818BF02280CD16169080039
:103B600007D0012020730820884704E001206072FC
:103B70009FE00020207300200119497879B9401C8A
:103B80000628F9D30020761E032E17D8DFE806F0AA
:103B900002090E126978014203D001200FE00120D2
:103BA000F1E7A978014218BF022008D1E87808B1EE
:103BB000032004E0287908B1042000E00020E0722E
:103BC0006169080011D0E07A032818BF04280CD1DD
:103BD000627B287882F00102104206D00020E07358
:103BE0000120A0730720884701E00020A0736846E9
:103BF00000210022002300264EC08DF800108DF811
:103C000008105548E17A042931D8DFE801F04C0367
:103C10000D1A36000120A07201948DF80000ADF855
:103C20000C20ADF80A2024E00220A07201940120AB
:103C30008DF80000E868ADF80C00A868ADF80A003F
:103C400017E02969627BADF80A1082F00102696908
:103C5000ADF80C1029781140E27B114202D103200B
:103C6000A07206E000F028F808B90520A072E07AFA
:103C7000D0B1684673DFB8B11CE0A969627BADF8CA
:103C80000A1082F00102E969ADF80C1029781140A0
:103C9000E27B114208BF0420E2D000F00DF80028BA
:103CA000E5D10620E2E7A272616908001CBFA07A94
:103CB0008847002006B070BD02218DF8081004214D
:103CC000C1700021FEF7EDBC10B50188214C102910
:103CD00004D0112908D01B290ED010BDC17B0129A9
:103CE0001ED18088208210BD002161738088218AC6
:103CF000884215D101200AE0007A88B9E07A401C98
:103D0000052190FBF1F101EB8101401AC0B2FFF7F0
:103D100007FF28B1A1690A001CBFBDE81040084791
:103D200010BD10B574DF0B4C01206073062100201C
:103D3000E0730948C1700021FEF7B3FC40B9E07A96
:103D4000FFF7EEFE18B1A1690A0018BF88470020EE
:103D500010BD0000A0330020D032002060330020CE
:103D6000943100200022FEF72BBFFEE7012100F076
:103D70001F029140764A04E0012100F01F029140A9
:103D8000744A400942F820107047202804DA72492A
:103D9000C14001F001007047402807DA01212038B6
:103DA00011FA00F018BF0120C0B27047012070471F
:103DB00010B50446FFF7E9FF10B942F2010010BD4B
:103DC000200006D5654900F00F02511811F8041CB7
:103DD00001E0634AA15C490908290ED2002918BFF5
:103DE00001290AD0042918BF052906D05D498A682F
:103DF00032B9FFF7BBFF002010BD42F2020010BD38
:103E0000400951F82020012304F01F04A3401A4365
:103E100041F82020EFE7FEF7D7B97CB5524C207867
:103E200088B3E068002500280CBF0126002600E0CA
:103E30009DB9607838BB684648DF052808BF012572
:103E40000BD010B1FEF7AEF907E0009800F0CDFA04
:103E5000216908001CBF0098884796B9607890B91E
:103E60006088ADF8040001A9A06861DF052808BFDB
:103E7000012606D010B1FEF795F902E0A068E168CE
:103E800088473542D4D073BD37480078704770B545
:103E9000044611B111F0030001D0072070BD324D6E
:103EA0002B48A9606A806B60006810F001061CBF97
:103EB0000020FFF761FF2D49204610DF040005D0E8
:103EC00016B10020FFF752FF204670BD0120287078
:103ED00000F090FABDE87040162069E701000FBFBE
:103EE0000E202149C8600020704780B51E484068F8
:103EF000010005D0804730B1BDE80240FEF752B95D
:103F0000BDE8014089E701BD70B505460E4614467F
:103F10001C212046FFF726FF01202080267200206A
:103F2000A0616572207D00F0FE00207528001CBF96
:103F30000120A072002070BD82B00D49009100994F
:103F4000019101A960DF009902B0704700000000F4
:103F500000E100E080E100E0FC06FFBC18ED00E0BD
:103F600000E400E0E4330020D0330020173E0200DC
:103F7000282100200EB400B582B003A900910246AA
:103F80006B460121034878440A30FBF739FA06BC36
:103F90005DF810FB1D0B000010B50268C368848833
:103FA00023409954C168491CC16010BD10B5036815
:103FB0008468808814FA81F10840C05C107010BDDC
:103FC00010B50A4604460021FFF7F0FFA068401C28
:103FD000A06010BD09B90E20704712B1531E1342E4
:103FE00001D0092070470160511E8180002181604D
:103FF000C1600020704710B58268C36884889A1A2F
:10400000944203D3FFF7C8FF002010BD042010BD69
:1040100080B58268C3689A1A03D0FFF7D1FF0020E9
:1040200002BD052002BDFEE710B5202841EA42018D
:1040300032BF4FF0A04400F01F00314C41EA830230
:10404000029942EA0122039904EB800042EA01410D
:10405000C0F8001710BD10B52A4A2B4B012449B9EE
:10406000202832BF191D00F01F00111D04FA00F0B6
:10407000086010BD202834BF1A4600F01F0004FA63
:1040800000F0106010BD0FF20811405C202832BF14
:104090001E4900F01F001E495EE00FF2F402805C32
:1040A0000021D8E70FF2E802805C0121D3E710B5C8
:1040B00000242046FFF7F6FF641C042CF9D310BD42
:1040C00010B500242046FFF7E8FF641C042CF9D348
:1040D00010BD0FF2BC01405C202832BF4FF0A04160
:1040E00000F01F00064901F2045101230A6803FA97
:1040F00000F020EA02034B60104088607047000027
:104100000003005008080050080500500405005046
:104110000408005030B583B000240FF2740500206D
:10412000019000900023605D01220121FFF77CFFD8
:10413000641C042CF3D3BDE83740B8E70FF25401F8
:10414000405C202832BF024900F01F00014903E013
:1041500010050050100800500968C14001F001002E
:10416000401E8041C00F704710B54FF0FF31002254
:104170000FF22003D45C844201D1114602E0521CAC
:10418000042AF7D3084610BD0FF20801405C7047BF
:104190000D0E0F100B0C1819F8B5002601244C4D0C
:1041A00007E051407A6881F00101130018BF904781
:1041B000761C2878F6B286421ED26868296900EB20
:1041C000C60797F9000004FA00F00842F0D021EA8F
:1041D000000028613878FEF704FC01463878EA6868
:1041E00004FA00F31A4001FA00F39A42E0D17A7817
:1041F000012A18BF0022D4E7F1BDF8B50546012019
:1042000000FA05F6324C04F11400FDF764FFD8B94A
:104210002069F743304215D12846FEF7E2FBE168FA
:10422000002814BF46EA010007EA0100E06000220E
:104230002069A1683043206104F11400BDE8F84012
:10424000FDF70ABF38402061F1BDF8B51646052ECE
:1042500004460D4601D20720F2BDFEF728FB10B937
:10426000FEF7FEFA10BB1A480FF2740786600021B1
:1042700044600570C1600161164E2846451E78B144
:1042800039680091EDB204EBC500324681788DF8B3
:10429000011069460078FEF711FB0028EDD0F2BD51
:1042A0000D4A0FF238000021FDF7C3FEF2BD38B50C
:1042B0000024074D06E0686810F834000121FEF77D
:1042C00051FB641C28788442F5D3002032BD0000E5
:1042D0000C330020FB4102009941020020330020F2
:1042E000030000000178407841EA0020704780B563
:1042F000FFF7F8FFFFE700F0010002BD08B9032057
:1043000070470249496E016000207047C4300020A8
:104310004FF0804181B000224250405800900098F8
:1043200001B0704700F18040006800B10120C0B2C8
:10433000704738B5384D2878002408B1852413E03B
:10434000A86068602861E86034480068C00703D44A
:1043500007210020FDF7D4FBFFF796FD10B9304987
:104360000120086001202870204632BD00208DF811
:1043700000006846FDF7E0BE9DF80000FDF7F7BEBF
:1043800038B50400244814BF00F1100500F10805F9
:1043900004E00868286020464968884729680029A1
:1043A000F7D131BD38B54FF48070FFF7BBFF1A4C21
:1043B0001C4D48B14FF48070FFF7AAFF0120286020
:1043C00060700020FFF7DCFF4FF48270FFF7AAFF58
:1043D00050B14FF48270FFF79BFF0220286001204C
:1043E000A070BDE83240CBE731BD002808BFFFF721
:1043F000C7BF704710B582B0FFF7B8FF064C2078F2
:1044000008B9FFF796FFE068401CE0600120A0704B
:10441000FFF7B2FF13BD0000BC33002000E100E055
:10442000180500400803004010B53A480168082903
:1044300004BF4168002906D1374900220A604A605A
:104440000021364A11600168082904BF416800292B
:1044500002D1334A334911600168082904BF416819
:10446000002902D1304AFB2111600168082904BFEC
:104470004168002909D12D492D4B0A681B78120982
:1044800003F00F0343EA02120A600168082904BF1F
:104490004068002803D127494FF40070086026487F
:1044A000C16F41F47001C167BFF34F8FBFF36F8FCE
:1044B00022490A68002A5CBF4A68002A21D5204A9E
:1044C000012313601F4B1C68002CFCD012240C60CD
:1044D0001C68002CFCD012244C6019680029FCD008
:1044E0000021116019680029FCD0BFF34F8F0168CB
:1044F000154A01F4E06111430160BFF34F8F00BF23
:10450000FDE702490248086010BD0000602100205C
:104510000090D003300100100C010040380500402D
:104520008C5600404881030018F50040E40E00401E
:1045300058020010409602400CED00E000120010FE
:1045400004E5014000E401400400FA052DE9F041D2
:1045500004460D4620780321084216461F4658D0CF
:10456000204600F09AF8002853D115B1D5E9000192
:104570008619012F3DD12088C00416D5A16904F108
:104580003D02204600F0A6F8626A804602B9226920
:10459000E168204600F09EF8A6EB08010E1AA26A18
:1045A000E168204600F096F8361A46BB20884FF4A2
:1045B000405108420ED06068E0602061A0626061F6
:1045C0006068E06204F13D00A06104F12400E06154
:1045D000002060622DB1D5E9020104F13002C2E988
:1045E000000120884CF6FF61084020800020BDE8D3
:1045F000F081022F03D04FB916F1010F09D094F9C1
:1046000003003A4631464FF0FF30064616F1010FDF
:10461000CCD100F065F8232101604FF0FF30BDE8F8
:10462000F081FEE738B5C046C046044620888004C5
:104630002ED5656809E04A1B294600F057F810F1AD
:10464000010F18BF00280CD04519E16894F9030048
:104650008D42F0D30022002100F048F810F1010F44
:104660000DD16068E0606061E062208840F4007015
:1046700020802046C046C0464FF0FF3032BD6568FE
:10468000E5606561E5624DF6FF7120880840208095
:104690002046C046C046002032BDF8B5A0B9C0468D
:1046A000C04600240A4D08264FF0FF37286820B185
:1046B000FFF7B8FF002848BF3C462D1D761EF5D1F8
:1046C000C046C0462046F2BDBDE8F240AAE7000061
:1046D00024220020914234BF501A00207047FEE788
:1046E000014800F011B800004023002070B50C46CE
:1046F0001546002604E014F8010BFEF747FD761C72
:10470000AE42F8D3284670BD704710B50446E06845
:104710006169884252D3218849F202020A40022A82
:1047200008D008044CBF4FF400704FF48440084395
:1047300020803CE001F4C041B1F5C04F06D1A16832
:10474000884203D32046FFF7A8FF80BB20884FF4A0
:104750004061084202BF606804F13D01884217D100
:104760004FF40070FBF76AFF606030B904F13D0060
:104770006060E060401CA0600AE0218841F04001D8
:104780002180E060A06200F500716068A160E062D5
:1047900060682061A0686061207840070AD5022225
:1047A0000021204600F00CF810F1010F02D14FF06B
:1047B000FF3010BD208840F4C0402080002010BD94
:1047C00070B50C461546C046C04606462B462246E6
:1047D0000021FFF7BBFE04463046C046C0462046D7
:1047E00070BDFEE70178090626D51C4A1368002132
:1047F000834203D1002342F821301BE0536801219A
:1048000083421EBF022193688342F3D0D368032101
:1048100083421EBF042113698342EBD053690521F3
:1048200083421EBF0621936983421EBF0721D369BD
:104830008342DFD0FBF7A4BF002101804FF0FF319E
:10484000C17000F13D014160C1600161816241615F
:10485000C162816100F12401C161704724220020FE
:1048600038B5044603212078084202D0605600285B
:1048700009D5C046C0462046FFF7B4FFC046C04633
:104880004FF0FF3527E02046FFF707FF0546C046FB
:10489000C0462078400644BF6068FBF771FF0020E7
:1048A000606094F90300022804D90020C04608B1D2
:1048B0004FF0FF35A06B48B10020C04608B14FF063
:1048C000FF35A06BFBF75CFF0020A0632046FFF7DD
:1048D00089FFC046C046284632BDFEE710B5144CDD
:1048E000206808B1FFF7BCFF606808B1FFF7B8FFA8
:1048F000A06808B1FFF7B4FFE06808B1FFF7B0FFA8
:10490000206908B1FFF7ACFF606908B1FFF7A8FFA5
:10491000A06908B1FFF7A4FFE06908B1FFF7A0FFA5
:10492000BDE81040002200214FF0FF30FFF7DEBE4F
:104930002422002038B505460846C046C046044635
:10494000E0686169884204D32046FFF7DEFE002854
:1049500010D4E068401CE06000F8015D208801058B
:1049600004D440050CD5EDB20A2D09D12046FFF73D
:1049700094FE28B12046C046C0464FF0FF3032BDFD
:104980002046C046C046E8B232BD19E050F8041BCC
:10499000CB0744BFA9F101035918121F0023042AB1
:1049A00041F8043BF9D25FEA827C0B4604D54FF014
:1049B000000CA1F800C09B1CD10744BF0021197056
:1049C00050F8042B002AE1D1704730B501684268E5
:1049D0008468091801EB5203D20748BF4C440C30DD
:1049E000994200D130BD11F9012B11F8015B002A69
:1049F00004F8015B02D5521CF9D1F1E7521EF4D53F
:104A0000EEE7FEE710B5074979441831064C7C44BF
:104A1000163404E00A68081D511888470146A1426F
:104A2000F8D110BD2C000000480000004EF688515F
:104A3000CEF20001086840F470000860BFF34F8FA9
:104A4000BFF36F8F4FF00070E1EE100A7047000067
:104A50003BFFFFFFCC060000482D002000000000B7
:104A60006BFFFFFFB8000000280100002821002094
:104A7000FEE700000120C046002801D0FFF7C2FF7A
:104A80000020C046C046FEF7EEF900F000F800F046
:104A900001B8FEE70746FFF721FF384600F002F8AD
:104AA000FBE7FEE72021090326311820ABBEF9E71A
:104AB00038B504460D46284600F006F8A84218BF4F
:104AC0000024204632BDFEE70149FFF733BF00BF97
:104AD000A4210020014880470148004729440200E2
:104AE000E54A0200C046C046FFF7A0FFFFF7C2FF3D
:104AF000FEE7FEE7FEE7FEE7FEE7FEE7FEE7FEE78E
:104B0000FEE7FEE7FEE7FEE7FEE7FEE7FEE7FEE77D
:104B1000FEE7FEE7FEE7FEE7FEE70000E300022017
:104B20000040EC0027010002000090D003010400C7
:104B300000A1210020A2210020A1210020A121000C
:104B400020A1210020A121002088210020E0001FB9
:104B50000204010140320020903200204032002047
:104B60004032002040320020E1210020C8210020F6
:104B7000E0001F02080202F031002040320020F065
:104B8000310020F0310020F03100202122002008E7
:104B9000220020E0000B64210020A4210020E42159
:104BA0000020D000F8FFDC00FAFF8100CD00FEFFFE
:0400000500024AE5C6
:00000001FF
