:020000040000FA
:10000000E8080020D5000000EF000000F10000002B
:1000100000000000000000000000000000000000E0
:10002000000000000000000000000000F3000000DD
:100030000000000000000000F5000000F7000000D4
:1000400075010000F900000091020000F9000000B5
:10005000F900000000000000F9000000F9000000B5
:10006000F9000000F9000000F9000000F9000000AC
:10007000F9000000F9000000F9000000F90000009C
:10008000F9000000C9010000F9000000F9000000BB
:10009000E9010000F9000000F9000000F90000008B
:1000A000F9000000F900000000000000000000005E
:1000B0000000000000000000000000000000000040
:1000C0000348854600F022F8004800472D0600004E
:1000D000E80800200321094802680A430260084832
:1000E00002680A4302600748804707480047FEE766
:1000F000FEE7FEE7FEE7FEE7FEE70000240500401E
:1001000054050040F1010000C1000000064C01252B
:10011000064E05E0E36807CC2B430C3C98471034AF
:10012000B442F7D3FFF7D0FF4C0A00006C0A00007E
:100130008307FF22DB0E9A408907090E99400028A9
:100140000BDA0007000F0838830808489B001818CE
:10015000C36993430B43C3617047830804489B0002
:100160001B181868904308431860704700ED00E0C2
:1001700000E400E0F8B5FF20013000F079FA002437
:1001800001250E4E0E4F002807D00E4804600120B6
:10019000B0607D70002000F0E9F8FF20053000F02D
:1001A00067FA002808D00748001D04600220B060EC
:1001B000BD70012000F0DAF8F8BD00000003004037
:1001C000B40000200001004010B50649002008607E
:1001D00048608860C860034940390860486000F0A2
:1001E00045FB10BD4011014010B500F0D5FA10BD1F
:1001F00010B500F043F9002805D01F491D4848609C
:10020000C8131E4988611E48018CC9B201290BD14F
:10021000828C120708D1028D1206120F042A03D114
:10022000828D1206120F0AD0012921D1818C090773
:100230001ED1018D0906090F0A2904D007E0114AD1
:1002400001219160F5E7828D1206120F05D00D296C
:100250000ED1808D0006000F0AD10B4801680129DC
:1002600004D00A49016001680129FCD1C021416123
:1002700010BD0000DFFF07C000050040006C00401B
:10028000C00F00F00006004000EC0640759300002F
:1002900010B50249024800F044FB10BDC800002020
:1002A0000020004002E008C8121F08C1002AFAD14D
:1002B00070477047002001E001C1121F002AFBD1E6
:1002C00070470000BFF34F8F04490348C860BFF375
:1002D0004F8F00BFFDE700000400FA0500ED00E0CD
:1002E0000EB50021029000916A4601910148FFF786
:1002F000E9FF0EBD01400000FFB50746900700254D
:1003000081B01E461446002825D1002C23D000F0D1
:1003100003FA3046114EF0603046103005704570DB
:100320000299817044607560357001240C487570C5
:100330002405046003211420FFF7FAFE0948046035
:10034000094CA76003211120FFF7F2FE6068B0603E
:10035000002005B0F0BD0720FBE7000000000020F2
:1003600080E200E000E100E00015014070B5084CBB
:10037000050009D010342168002907D008682060E2
:10038000496828468847F6E70834F4E770BD00005E
:10039000B4000020F8B52348416800293ED00E681B
:1003A00021494C6887688078E11B0D022D0AED1CFD
:1003B000002814D101201D4A000450601B4A403A15
:1003C00050601B49400008601A4908601A49012022
:1003D00008602F2000F06EF9124901208870B542A4
:1003E00000D23546E81900020F4B000A403318606E
:1003F0000D4A5168001B091B0902090A0002000A84
:10040000C91C814209D9506818602F2000F052F9A8
:1004100001200749400480390860F8BD00F07CF9EC
:10042000F8BD00000000002000150140401301400D
:1004300080E200E000E100E00010014010B50E494C
:1004400000230A784C78A24212D0521CD2B20A7011
:10045000022A00D10B700A78074B920018339A5881
:100460000260886810180002000A8860012010BD30
:100470000360002010BD0000000000201048018C27
:10048000C9B2012917D1818C090714D1018D090640
:100490000A0F03D1828D1206120F0ED0090F012907
:1004A00003D1828D1206120F07D0032903D1808D4C
:1004B0000006000F01D000207047012070470000A7
:1004C000C00F00F0F0B5284C2146103948688B6801
:1004D000227886469C46CF78667836E018235343C8
:1004E0006168521CC918A378D2B2934200D100228D
:1004F0000B78022B02D0032B27D123E003464D6853
:10050000194603E0A94204D00B46C96900291CD052
:10051000F8E7002919D08B4208D1C069002805D11D
:10052000124F0125BD600025AC4601270D68C96941
:10053000D961002909D00B685B190B6005E00174D3
:10054000C06900E000210028F9D19642C6D10649D1
:10055000624610398A604860CF70704501D0012032
:10056000F0BD0020F0BD0000100000200010014090
:10057000F8B52C4E044670680025009041E0002C30
:1005800002D02046E46920E0264818231030017884
:1005900042684B43491CC9B2D21801708378994212
:1005A00000D105701178506801292CD1017C0029F7
:1005B00029D191684160D16881601169C160516938
:1005C0008161F178002900D045604368B268164F18
:1005D000991A0902090AB94202D28268891806E00A
:1005E000D11A09028268090A8A4202D9511A0160A5
:1005F00000E005604560012185600174C56100F07F
:1006000015F9002CBBD107481030017840788142A1
:10061000BAD171680098814201D00120F8BD002054
:10062000F8BD000000000020FFFF7F0000230E4AFD
:1006300006211846FFF760FE002801D0FFF750FEA4
:100640000A4903200860FF24F534204600F018F81A
:100650000021132000F046F8204600F011F8012197
:10066000132000F03FF8F0E7240000204C07005072
:100670000121890740180068002800D00120704738
:100680007D21C90048430FD00849094A096800BFC5
:1006900000BF00BF00BF00BF00BF00BF00BF91424E
:1006A00000D000BF0138F2D17047000020000020C8
:1006B0000024F40000280FD00849094A096800BF47
:1006C00000BF00BF00BF00BF00BF00BF00BF91421E
:1006D00000D000BF0138F2D1704700002000002098
:1006E0000024F400012282400348002901D08260E6
:1006F0007047C26070470000000500504058002855
:1007000000D0012070470322120280184068084080
:1007100000D001207047000070B501240B4960042F
:1007200008600B4940108860094940398860094DCC
:100730006C602F20FFF7BEFFAC60074D00242F2018
:10074000AC60FFF7B7FFAC7070BD000080E100E067
:1007500040130140001001400000002030B5FF228E
:100760000523CD7D002409321B02C318002D8450BF
:10077000986905D04B7ECA68D054487E401C4876A4
:1007800030BD1FB501246B461C701972019206C85A
:10079000684690471FBD0000FEB51F4C0025A768A6
:1007A000606802906846FFF749FE0190FFF78AFEF5
:1007B00006460198002822D000230098616817E0BF
:1007C0000E680A46864202D9301A086012E0801B81
:1007D000F31800261660D668D169B446002E07D0FB
:1007E000FE183602360A566066469660D561154692
:1007F0000029E5D128466160FFF7BAFE06E02846E9
:10080000FFF7B6FE002801D1002E02D00298FFF7B4
:10081000C1FD0020E070FEBD000000200120024963
:10082000000508607047000000E200E010B50E4BC4
:100830005968002906D002680C68A24204D8A21A9E
:100840000A60C161586010BD0B4604E00B46C969DF
:10085000121B002904D00C689442F7D3A41A0C6030
:100860000260C161D86110BD00000020F8B51D4DC7
:100870006C68002C34D01C4800274068A968401AD6
:100880000602360A2068B04218D8361AC71922461E
:10089000107CE46900280FD000201074EB68002B56
:1008A00007D0916950699847002805D0FFF718FDD7
:1008B00002E0516990698847002CE3D12978687873
:1008C000814206D1401CC0B26870022801D10020CC
:1008D000687004490006800D18310F50FFF79EFF25
:1008E000F8BD00000000002000150140FF221D326D
:1008F000002383508B8A8A68D25C8B8A5B1C8B8234
:10090000052109024018C26170471FB500226B46DD
:100910001A70197281680191827506C868469047FD
:100920001FBDF0B50C46012185B005464902FFF711
:10093000EAFE032109026F180026002826D0FF21B5
:1009400025312846FFF7DAFE00281FD0FF2025308A
:100950002E5081208000B860A07E002801D10120A7
:1009600068600221684601700920C00129180868E2
:1009700008600390E17D68460172E0680190E675C9
:10098000267606CC6846083C90472DE00421284690
:10099000FFF7B9FE002827D0FF2109312846FFF7CD
:1009A000ADFE002820D021462846FFF7D7FEE07D87
:1009B000617E884218D1207E002807D0617EE268DF
:1009C000E0752069E060267666760AE0A07E002861
:1009D00001D10120686081208000B860E675617EE9
:1009E000E2682046FFF7CDFEFF271D37394628462F
:1009F000FFF784FE00280FD0A08AA17D884204D290
:100A000021462846FFF772FF06E0EE51A17D00293E
:100A100002D02046FFF779FFFF27453739462846A1
:100A2000FFF76CFE00280ED0EE51A07E002801D00A
:100A300001202860E07D002805D0E675617EE2682F
:100A40002046FFF79EFE05B0F0BD00006C0A0000D6
:100A50000000002024000000A4020000900A000012
:100A600024000020C4080000B402000000000000C0
:100A70000000000000000000000000000000000076
:100A80000000000000000000000000000024F4004E
:04000005000000C136
:00000001FF
