:020000040001F9
:10B00000382A002079020200BFC601002FC80100C3
:10B010000000000000000000000000000000000030
:10B0200000000000000000000000000033CD01001F
:10B0300000000000000000009BFB01002700020050
:10B0400025FC01003F01020089DF010077020200B8
:10B050003703020000000000C1E2010047030200C4
:10B060006B030200890302008B0302008D030200C0
:10B070008F03020091030200930302009503020074
:10B080009703020013D20100990302009B03020000
:10B09000A1D201009D030200E7F701009F03020017
:10B0A000A1030200A3030200000000000000000052
:10B0B0000000000000000000000000000000000090
:10B0C000F1B5A4B00E0014001D004A487844FF30CA
:10B0D000253003C822AA03C2049600200D9001E087
:10B0E0000098241800206946C88022AB0022D24371
:10B0F000210001A8801C01F04EF90090012805DA1A
:10B100002078411E8941C943C90F00916846C08813
:10B110002528009E00D1761E012E0EDB27003978EF
:10B120000498249A90470490002800D109E10D98D2
:10B13000401C0D907F1C761EF1D16846C0882528E2
:10B1400007D100200790089009900A900B900C906E
:10B1500008E06846C0880028C2D10D98F3E00100DD
:10B1600001200843641C21782029F8D023290ED01F
:10B170002B2904D02D2907D030290BD00DE0010058
:10B180000220084380B2EDE701000420F9E7010046
:10B190000820F6E701001020F3E72A290FD12968DB
:10B1A00029600A68091D29600F92002A05D55142BD
:10B1B0000F9101000420084380B2641C12E00021BA
:10B1C0000F910AE00F9A804B9A4205D093009A188B
:10B1D0005200511830390F91641C21780A00303A1E
:10B1E0000A2AEFD321782E2906D00021C9430E91D7
:10B1F00021E000BFB0500000641C21782A2907D14B
:10B20000296829600A68091D29600E92641C12E0F1
:10B2100000210E910AE00E9A6B4B9A4205D09300E2
:10B220009A185200511830390E91641C21780A0086
:10B23000303A0A2AEFD302A9088726783100044859
:10B2400078440C3001F0B5F8002803D0641C02E00B
:10B250005C500000002602A83A30067002A83A307E
:10B260000078682804D12178682901D1622005E09E
:10B270006C2807D120786C2804D1712002A93A31BA
:10B280000870641C12A806902678641C30002538CB
:10B290002AD01C3800D1E0E0001F022800D8DCE0F2
:10B2A000133800D1FFE0093800D1D6E0801E00D16C
:10B2B00068E1401E00D140E1401E022800D8CCE0E9
:10B2C000001F00D139E1401F00D197E0401E00D19E
:10B2D000E9E0401E39D0C01E0BD0801E00D1E2E054
:10B2E000C01E00D1DFE070E1252012A90870012006
:10B2F00075E102A83A3000786C282868286016D0DA
:10B300000668001D286005960E9F002F03D53000AB
:10B3100001F059F809E03A000021300001F05BF833
:10B32000002801D0801B00E03800089058E1026836
:10B33000001D286002A9249800F032FA002800D4E9
:10B340004EE10020C04325B0F0BD286828600268A7
:10B35000001D28600020C0430021104002AA03C243
:10B3600012A80590069B3C2602A803C8002904D118
:10B37000002802D10E9A002A14D0761E00960207E9
:10B38000120F3032D2B23A2A00DB27329A55000926
:10B390000A071043090901D1002803D0059A9F1913
:10B3A000BA42EAD33C20801B0890991905910E9966
:10B3B00088420DDA081A0A9002A8008F034901405A
:10B3C00002A801870CE100BFFFFFFF7FEFFF000035
:10B3D000002900D404E102A93831097814220A4076
:10B3E000102A00D0FCE00F99079A891A0A9A891A44
:10B3F0000E1A012E00DAF3E00A96F1E002A83A30C4
:10B400000078622819D0682806D06A280CD06C28E9
:10B410001BD0712808D018E0286828600168001D3A
:10B4200028600D980880DBE0286828600268001D0D
:10B4300028600D98C11703C2D2E02868286001680F
:10B44000001D28600D980870CAE02868286001680F
:10B45000001D28600D980860C2E02A68D21D0720F0
:10B4600082432A6003CA2A6002AA03C2002902D5C5
:10B4700007982D210AE002A8008F810702D50798BE
:10B480002B2103E0C00705D50798202112AA1154EB
:10B49000401C079012A8079940180590310002A897
:10B4A00000F0AAFB9CE002A83A3000786C280BD090
:10B4B000712801D06A2807D12A68D21D072082434B
:10B4C0002A6003CA2A6005E0296829600868091D06
:10B4D0002960002102AA03C202A83A300078682835
:10B4E00003D102A803C880B20BE0622803D102A8EE
:10B4F00003C8C0B205E0742801D07A2804D102A89C
:10B5000003C8002102AA03C202A83830007800074D
:10B510002FD502A803C8002901D1002829D0202056
:10B520003043782825D10798302112AA1154401CA5
:10B53000411C079112A90E541BE0290002A83A30C1
:10B54000007800F0F8F802AA03C202A8002902DA83
:10B5500007982D2109E0008F810702D507982B213C
:10B5600003E0C00705D50798202112AA1154401CFA
:10B57000079012A8079940180590310002A800F022
:10B58000A1FA2DE002A83A3000786C2809D00120F9
:10B590000790286828600168001D286012A80170C3
:10B5A0001EE0286828600168001D28606846018048
:10B5B000002069464880C0430E906A4602A924983C
:10B5C00000F0EEF800280BD5BBE6252012A9087084
:10B5D00001200790002E03D012A846700220079089
:10B5E0000F980799401A0A99401A0899401A0B991E
:10B5F000401A0999401A0C99401A009002A8383054
:10B600000078400711D4202069460871009801286D
:10B610000BDB009E012301AA02A9249800F0A3FEDF
:10B62000002800D08DE6761EF4D1079F12AE002FC1
:10B630000DD031780498249A90470490002800D1C6
:10B640007FE60D98401C0D90761C7F1EF1D13020B6
:10B65000694608710A9E012E0ADB012301AA02A98C
:10B66000249800F080FE002800D06AE6761EF4D10F
:10B67000059E089F002F0DD031780498249A90479A
:10B680000490002800D15CE60D98401C0D90761CBB
:10B690007F1EF1D13020694608710B9E012E0ADB16
:10B6A000012301AA02A9249800F05DFE002800D021
:10B6B00047E6761EF4D1059808994618099F002F91
:10B6C0000DD031780498249A90470490002800D136
:10B6D00037E60D98401C0D90761C7F1EF1D130206E
:10B6E000694608710C9E012E0ADB012301AA02A9FA
:10B6F000249800F038FE002800D022E6761EF4D10F
:10B7000002A838300078400700D4EBE420206946D6
:10B7100008710098012800DAE4E4009E012301AAE0
:10B7200002A9249800F01FFE002800D009E6761E2A
:10B7300000D1D7E4F2E70A00622822D0682819D0A5
:10B740006A2808D06C2823D0712804D074281FD010
:10B750007A2808D01CE01368DB1D072083431360A0
:10B7600003CB13607047116811600868091D1160F0
:10B7700000217047116811600868091D116000B24E
:10B780000BE0116811600868091D116040B204E007
:10B79000116811600868091D1160C1177047000029
:10B7A000F4B59AB007000C00206B002800D50E48B5
:10B7B000039000F01CFE616B08180690094878445D
:10B7C000223003C807AA03C23820205C400702D4F5
:10B7D000069841280AD209A802904020069000202D
:10B7E000059012E0D04A0000FFFFFF7F00F004FE4A
:10B7F00002900028F3D10020C04361E11A98801C18
:10B800001A9003980199401A03900398012800DACE
:10B81000D0E007AA1A98018800A8401C00F048FE52
:10B820000190002800D5E2E01A980088002804D191
:10B830000198401E019000D5D9E0039801998842F3
:10B8400000DAB7E060690699019A8218914200D344
:10B850009FE0002161634142206A081AA169401AF1
:10B86000616A401AE169401AA16A401A04903820BE
:10B87000205C400711D420206946087004980128F4
:10B880000BDB049D01236A462100380000F06BFDAC
:10B89000002800D0ABE06D1EF4D16669029D002E39
:10B8A0000CD02978A068B847A060002800D19EE09D
:10B8B000E06A401CE0626D1C761EF2D130206946C1
:10B8C0000870256A012D0ADB01236A462100380031
:10B8D00000F049FD002800D089E06D1EF4D1E56834
:10B8E000A669002E0BD02978A068B847A060002870
:10B8F0007DD0E06A401CE0626D1C761EF3D13020E2
:10B9000069460870656A012D09DB01236A4621003A
:10B91000380000F028FD002869D16D1EF5D1E068DF
:10B92000A1694518E669002E0BD02978A068B847B0
:10B93000A06000285BD0E06A401CE0626D1C761EAF
:10B94000F3D1302069460870A56A012D09DB012377
:10B950006A462100380000F006FD002847D16D1E20
:10B96000F5D13820205C400710D5202069460870AA
:10B97000049801280ADB049D01236A46210038004F
:10B9800000F0F1FC002832D16D1EF5D100200590A9
:10B990006061019A00A9491C02986369C01800F00F
:10B9A00093FD60690199401860611A980088002829
:10B9B00000D023E7059800287BD1606B6169401AAD
:10B9C000216A401AA169401A616A401AE169401A65
:10B9D000A16A461A3820205C400711D4012E0FDBE3
:10B9E00035002021A068B847A060002803D10020BE
:10B9F000C04305905DE0E06A401CE0626D1EF0D13E
:10BA00006369029A2100380000F0ADFC0028EED1F5
:10BA1000256A012D0ADB3021A068B847A060002804
:10BA2000E5D0E06A401CE0626D1EF4D1A369E268D3
:10BA30002100380000F097FC0028D8D1656A012D5C
:10BA40000ADB3021A068B847A0600028CFD0E06AA8
:10BA5000401CE0626D1EF4D1E369E068A169421800
:10BA60002100380000F07FFC0028C0D1A56A012D1C
:10BA70000ADB3021A068B847A0600028B7D0E06A90
:10BA8000401CE0626D1EF4D13820205C40070DD5CB
:10BA9000012E0BDB35002021A068B847A0600028EC
:10BAA000A5D0E06A401CE0626D1EF4D10020606108
:10BAB0006063029809A9884201D000F033FD05981F
:10BAC0001BB0F0BDF3B583B0006900906846027CFE
:10BAD0006F2A01D1082406E020211143782901D0E2
:10BAE0000A2400E010243C25039803C806000F0038
:10BAF000642A01D0692A07D1002905DA0020002133
:10BB0000801BB94106000F00002F12D1002E10D16A
:10BB10000398006B00280CD1082C3CD103983830D6
:10BB20000078000737D53B25302000993B3108705D
:10BB300031E06D1E0195300039002200E31700F05E
:10BB400035FD3032D2B23A2A03DB6846007C5138E8
:10BB5000121800984255300039002200E31700F017
:10BB600025FD06000F0001D1002E05D00398C06806
:10BB7000009949198842DCD3082C0CD1039838303D
:10BB80000078000707D50098405D302803D06D1E6F
:10BB90003020009948553C20401B0399886100994A
:10BBA0004919039AD1600399096B884209DA081A86
:10BBB000039908620398008F0E490140039801879A
:10BBC00015E0002913D503993831097814220A4069
:10BBD000102A0CD10399496B039A5269891A039A66
:10BBE000126A891A0D1A012D01DB0398056205B04E
:10BBF000F0BD0000EFFF0000F3B591B006AD03C843
:10BC000002AA03C212A800782021014300916129F1
:10BC10000BD01198006B002801D5062003E004D159
:10BC2000672902D1012011990863119841684800E1
:10BC3000400DAB4A904225D1080310D111980068FD
:10BC400000280CD103201199886112A8007861386E
:10BC50001A2842D3234878448A3000900BE003200E
:10BC60001199886112A8007861381A2831D31E48CA
:10BC7000784474300090032200991198C06800F055
:10BC800023FCF9E1012817DA119800F0C4FC01281F
:10BC900012DB002700260098612832D11198C06875
:10BCA00030210170401C411C119AD16012A9097801
:10BCB00061291FD178211EE011994968894A0A40FB
:10BCC00089491143119A51608849461A0027FF4358
:10BCD000E1E7064878441430CCE705487844103052
:10BCE000BBE700BFE4450000D8450000D045000098
:10BCF000D44500005821017011984069801C1199A9
:10BD00004861002F03D1002468468780AAE100988B
:10BD1000612800D0A1E01198046B002C01D52124EA
:10BD200000E0641C24B2601C0090119803C804AAAF
:10BD300003C202A803C80022002300F08EFC04A85E
:10BD400003C802D280221206514002AA03C2301F49
:10BD50006946888000270F7606AE761C0098012879
:10BD600034DB02A803C80022002300F08FFC2DD290
:10BD70001C2102A800F0A4FC02A803C800F02EFDBC
:10BD800005000098C01F009001280ADB280000F081
:10BD90004FFD02000B0002A803C800F0C0FD02AA7C
:10BDA00003C2F61D072004E0761E2907090F317033
:10BDB0002D11012D01DB401EF6D5401E02D4761E4A
:10BDC0003770FAE7F61D00980128CADA06A8401C69
:10BDD000311A06AD6D1CA14200DA0C0024B220001D
:10BDE00032D4884205DA06A909184978082900DB07
:10BDF0000F2706A9091801E0641E491E401E0A7893
:10BE0000BA42F9D00F2F04D106A909184A78521C5A
:10BE10004A70002806D506AD641C019800B2001DCA
:10BE20006946888024B2601E0ED429180A78303200
:10BE3000D2B23A2A03DB12AB1B783A3BD2180A7013
:10BE4000401E491E0028F1D51198006B002800D42F
:10BE500008E1601E1199086304E102A803C80022EA
:10BE6000002300F0FAFB06D202A803C880221206C3
:10BE7000514002AA03C236B280487043804900F0A4
:10BE8000DBFD694688800720019909B2421A00202B
:10BE90007C49012A20DB049202AA30CA00260F0046
:10BEA0000498C00707D532003B002000290000F0AD
:10BEB0001DFE04000D00049840100490300039006D
:10BEC00032003B0000F012FE06000F00049800282C
:10BED000E6D102A830C028E0544200266A4F18E09C
:10BEE000FF070000FFFF0F800000E03FFE0300009F
:10BEF000E00707D504A803C832003B0000F0F6FDB8
:10BF000006000F00641004A803C804AA0CCA00F0BD
:10BF1000EDFD04AA03C2002CEAD102A803C8320036
:10BF20003B0000F0A5FE02AA03C20098662803D1D8
:10BF3000019800B20A3000E006201199096B081838
:10BF40000490142801DB1320049030206946087601
:10BF500006AC641C0498012840DB02A803C800F06A
:10BF60004FFC050008340594042428000A2100F041
:10BF700066FD0F0028000A2100F061FD0500303742
:10BF80000598401E077028000A2100F058FD0F0098
:10BF900028000A2100F053FD05000598801E059039
:10BFA00030370770641EE0D1059C083404980838C7
:10BFB00004900128CEDB02A803C800F021FC00F0A9
:10BFC00041FC02000B0002A803C800F0A8FC0022FC
:10BFD0002E4B00F08BFD02AA03C2BEE706A8401C50
:10BFE000201A06AD6D1C6A4605E0401E019909B293
:10BFF000491E91806D1C29783029F6D00099662958
:10C0000003D1019909B2491C04E0652901D101213C
:10C0100000E00021119A126B541824B2A04200DAF9
:10C02000040024B221001DD4814204DA685C352862
:10C0300001DB392000E030206A1800E0641E521E47
:10C04000491E13788342F9D0392802D1685C401C1C
:10C050006854002906D56D1E641C019800B2401C6E
:10C0600069468880019800B2009023B22A0012A885
:10C070000178119800F00CF813B0F0BD977500002E
:10C08000A0860100000024400000F03F84D79741C3
:10C09000F3B589B014001D0000F065FE0090406A01
:10C0A0000078694608720998076B012D01DA0125AD
:10C0B000ACA40AA8017820200843109E662801D16C
:10C0C000761C17E0672800D09EE00321C9438E420A
:10C0D00000DA9DE0BE4200DB9AE0761C0998383019
:10C0E0000078000702D4BD4200DA2F0036B2BF1B31
:10C0F00000D500270998C0680190099880690199C6
:10C100000918009136B2012E2CDA401C3021009A19
:10C110001170012F04DA099938310978090704D51B
:10C120006946097A019A1154401C09998861704244
:10C13000874200DA7E4236B2704209994862BF19DE
:10C14000AF4200DA3D002DB20998C5612A002100F6
:10C150000198099B9B69C01800F0B6F9781B0999F2
:10C160008862E0E0B54220DA2A002100009800F061
:10C17000ABF9099989694919099A9161701B099A62
:10C180005062012F04DA099838300078000709D589
:10C190006846007A099AD26850540998C069401CD0
:10C1A0000999C86109988762BDE0320021000098B2
:10C1B00000F08AF9099880698019AD1B012F04DA13
:10C1C000099938310978090705D56946097A099A24
:10C1D000D2681154401C099988612DB2AF4200DA2F
:10C1E0003D002DB22A00A1190998C068099B9B69DE
:10C1F000C01800F069F909988069401909998861A7
:10C20000781B099948628EE0612914D1702015E0ED
:10C21000BD4205DA099938310978090700D42F00A1
:10C220007F1E00D500270AA80078672801D1652065
:10C2300004E0452002E0412902D150200AA90870FB
:10C2400009988069411C099A9161099AD268019202
:10C250002278019B1A54641C0094012F04DA099877
:10C260003830007800071CD5481C099A90616A464E
:10C27000127A019B5A54012F13DB6D1E2DB2AF426F
:10C2800000DA3D002DB22A000099019B181800F039
:10C290001BF909988069401909998861781B0999E7
:10C2A00048620998C0680999896944180AA8007801
:10C2B0002070300003D42B206070A41C03E02D21DB
:10C2C0006170A41C4642002505AF08E00A2203A8BD
:10C2D00000F064FD04983870039E6D1C7F1C31B221
:10C2E0000129F3DA022D08DA0AA800782021014397
:10C2F000652902D130202070641C002D09D1302026
:10C300002070641C07E06D1E05A8405D3030207071
:10C31000641C012DF7DA0998C068099989694018E9
:10C32000201A0999C8610998383000781421014011
:10C33000102914D109984069099989694018099907
:10C34000496A40180999C96940180999896A4018C9
:10C350000999496B884202DA081A099908620BB0F8
:10C36000F0BD00003000F1B50E0014000027002BD6
:10C370000FD01D002178B068009A9047B060002867
:10C3800006D0F06A401CF062641C6D1E01D0F1E71B
:10C39000FF433800F2BDF8B504000F0015001E0081
:10C3A00000F00CFD33002A003900200000F01AFDD7
:10C3B000F2BDC9B200E0401C02788A4202D0002AD5
:10C3C000F9D100207047010000E0491C0A78002ADA
:10C3D000FBD1081A7047C9B201E0401C521E002A66
:10C3E00003D003788B42F8D170470020704780B5A6
:10C3F00000F0E4FC012002BD70B505002C000F34F4
:10C4000007208443C046C046A54233D2082C04D23C
:10C41000082402E0083000F085F824480268110082
:10C420000CD1011D0A68002A20D01368A34212D241
:10C43000111DF7E71D68A5420DD2191D0B68002BD1
:10C44000F8D11268011D00E0191D0B6893420DD050
:10C450001D68A542F8D300290CD00D682A68130086
:10C46000083BA3420AD26A680A600FE000F0D8FCD9
:10C470000028CFD1C046C046002070BD2B190B60EC
:10C480006E685E60121B0B681A602C6009680029D8
:10C4900004D04A68002A01D0091D00E00021016093
:10C4A000C046C0460835280070BD0000A4330020F7
:10C4B00070B504000D00160000F080FC3200290069
:10C4C000200000F085FC70BD124207D08B0706D01B
:10C4D0000B78491C0370401C521EF7D87047830725
:10C4E00006D00B78491C0370401C521EF9D17047CE
:10C4F00070B4103A03D378C9103A78C0FBD253070E
:10C5000001D318C918C001D508C908C0D20704D37F
:10C510000B880380891C801C002A01D50B780370CE
:10C5200070BC7047002800D1704738B50838040047
:10C530002068082836D3400734D1C046C0461A4880
:10C540004168002901D08C4203D26160446019E047
:10C5500019004B68002B01D0A342F9D30B68CD180A
:10C56000AC421DD3A54204D122689A180A600C007F
:10C5700008E04A68002A03D02368E3189A420FD3E0
:10C5800062604C60616800290AD02268A3188B425F
:10C5900006D10023036008681018206048686060B6
:10C5A000C046C04631BD0000A4330020124224D052
:10C5B000994228D970B500251B4202D00C000021F9
:10C5C00009E00024012649186441944200D3A41ACA
:10C5D0007641F8D33100012601E0764109D20018F6
:10C5E00064416D41A41A9D41F7D2A4185D41B6196A
:10C5F000F5D3300022002B0070BD1B42D8D108B506
:10C60000C046C04608BD01D19042D3D202000B0003
:10C6100000210020704730B401004B6880221206D0
:10C620001A4001201B031B0B4B600BD10B68002B26
:10C6300008D10DE00B686400DD0F25434D605B0001
:10C640000B60401E4C68E302F4D523031B0B4B60C8
:10C650004B681A434A6030BC704730B4012464050B
:10C660004D00EC420BD85D00EC4208D80C001C4396
:10C6700064000443144304D2994200D1904230BC78
:10C680007047FCD08B42FAD18242F8E730B40124E3
:10C6900064054D00EC420BD85D00EC4208D80C005C
:10C6A0001C4364000443144304D28B4200D18242F1
:10C6B00030BC7047FCD09942FAD19042F8E7FEE7CF
:10C6C00070B504000D0060684000400D3F4EB04260
:10C6D00007D16068000302D12068002816D002202C
:10C6E00070BD002804D12000FFF795FF01286BDA08
:10C6F000012D0DDB311A8D420AD36068002802D566
:10C700000020334901E00020310503C4012070BD41
:10C710004142A942616806DA2E4A0A4028180005FB
:10C720001043606047E080221206114062681203E5
:10C73000120B80235B0313436360401E2D180020FF
:10C740002A003532352A02D36160206070BD002294
:10C750001E23DB439D4204DA203522686368236090
:10C760006060684211D0521E9241D243D20F202302
:10C770001B1A25689D402A432568C54066689E406F
:10C780002E4326606368C34063606068084360604E
:10C790001148824206D28020000682420ED12078C3
:10C7A000C0070BD52068401C20602068002805D1F8
:10C7B0006068401C60600020C04370BD60688842B3
:10C7C000F9D120680028F6D1002070BDFF070000D5
:10C7D0000000F0FFFFFF0F8001000080F4464A18C0
:10C7E00005D200F00FF801D580174008604700F02F
:10C7F00009F80121C907884200D908004042604772
:10C800004A1812D2400DC90208430121C907084342
:10C81000520D40210901521A521C06D452421F32B5
:10C8200001D4D0407047C017704700207047FEE722
:10C83000010009D5F446404200F006F80122D20773
:10C8400011436047010000BF42221201D21E004284
:10C8500007D002D4521E0018FCD5C10A40051205AB
:10C86000891870478B4200D1824205D98446100056
:10C8700062468C4619006346DF184C18640D7F0D24
:10C880003AD0661C760537D0E61B352E34DCDB0249
:10C890002B43DB0A0C0DC9022943C912202E0DDBE4
:10C8A0001700203E06D01F00F741F3405F400026EE
:10C8B000012A7741C01871410DD217E01700F741E6
:10C8C000F2405740F3415A40B340F3405A400026EB
:10C8D000801859410AD3A21C52050FD0C207012F5C
:10C8E000724117004008CB0718434908641C24050F
:10C8F0004208AF4170416141F0BC7047641C2105A2
:10C900000020F9E76B4010E06B40ABE7F742F3D152
:10C91000E943F1E72442EFD100200021ECE7F0B435
:10C920000125ED070F005F40EED40C00871A9C41F3
:10C9300005D2C01BA141D219634169406B40AE0AC8
:10C94000DF184C18F442E1D2640D7F0DE2D0E61BF3
:10C95000362ED1DCDB022B43DB0AA4460C0DC902C8
:10C960002943C90A012E28DC04D1D6075208DF0763
:10C970003A435B08EF0A76429041994114D039421C
:10C980003BD1B61940414941761C394204D1761C4D
:10C99000001849413942FAD0B9436746B74208D92D
:10C9A000A41B24052143A7E70042EAD13642E8D17F
:10C9B000A2E7E40AE10700209EE7202E0BDD203EDF
:10C9C0001F00F340F7415F40012A002257417E4299
:10C9D000984191410BE01700F741F2405740F34175
:10C9E0005A40B340F3405A407E42904199410A0375
:10C9F00003D2641EB619404149410027641E240534
:10CA00004208AE4178416141F0BC7047F4460028CD
:10CA100004D4494200F013F84042604740420029E4
:10CA200005D45FD000F00BF84042494260474942CC
:10CA300000F005F84942604703460B43E6D4002264
:10CA4000030A8B420BD203098B4219D243088B4253
:10CA50002ED2411A00D20146524110467047FF22A1
:10CA600009023FD012068B4205D3121209028B42F3
:10CA700001D31212090203098B4219D300E0090AFB
:10CA8000C3098B4201D3CB01C01A524183098B42A7
:10CA900001D38B01C01A524143098B4201D34B0190
:10CAA000C01A524103098B4201D30B01C01A5241F3
:10CAB000C3088B4201D3CB00C01A524183088B427A
:10CAC00001D38B00C01A524143088B4201D34B0063
:10CAD000C01A5241884200D3401A5241CFD2014677
:10CAE0001046704708B5C046C04608BDF0B50E00F8
:10CAF0005E400125ED072E40B446AE0ADF184C1803
:10CB0000F44208D2F7420ED2640D01D07F0D12D14B
:10CB100000206146F0BD05D1F74201D87F0D05D157
:10CB20000020C143F0BDFBD1640DF9D00020C1430A
:10CB3000490549088FE0E419C902DB0229432B4368
:10CB4000DB0A460DC00231438E4630B487B295B23F
:10CB50007D432E0CADB2140C7C43A419260C240486
:10CB600025439CB27C43A419190C7943270CC9199D
:10CB7000A4B20F043C43090C000C97B247432E0C9F
:10CB8000BE193543ADB2170C4743360CBF19A6B2D8
:10CB9000BF193E043543240C3E0C36199FB247435F
:10CBA000BF19BCB23E0C89191F0C47437F183E04C5
:10CBB0003443390C704680B297B247432E0CBE19ED
:10CBC0003543ADB2170C4743360CBF19A6B2BF1997
:10CBD0003E043543240C3E0C36199FB24743BF191F
:10CBE000BCB23E0C89191F0C47437F183E043443E6
:10CBF000390C77463F0C90B278432E0C801906040E
:10CC0000ADB22E43050CA0B22D18120C7A43501968
:10CC1000020C80B2240CA4189AB27A43121914049C
:10CC20002043120C89181B0C7B43C91830BCEF0A37
:10CC3000394203D1B61940414941641E6F12BF0DFC
:10CC4000E41B0BDBFF19BC4211DA24050027420864
:10CC5000AE417841614166463143F0BD641C05D167
:10CC6000401C6141CF0201D34908F4E750E75DE77A
:10CC7000F0B40E005E400125ED072E40B446AE0A2A
:10CC8000DF184C18F4423BD2F74241D2640D43D036
:10CC90007F0D38D0E41BC902DB0229432B43CF0AA6
:10CCA000DB0A0600B61A9F4104D2641EB6197F4102
:10CCB000B6185F416812800D24180018844222DAE9
:10CCC000E80C0021B6197F41B61A9F4102D2B6186E
:10CCD0005F413F1C40414941F4D3241C21DD240520
:10CCE000B6197F41B61A9F4105D33743C60737436C
:10CCF0000026012F7041614166463143F0BC704708
:10CD0000FCD1F74205D20020C14349054908F3E7A9
:10CD100004D00020C143F1E77F0DFAD00020614626
:10CD2000ECE72442FAD1401C61410F03F6D3002006
:10CD3000E2E7FEE780B51248C046C04611A1016097
:10CD400041608160C1600161416181610EA2426206
:10CD50008162C162016341630CA282630DA2C2635E
:10CD60000164416401BD10B50548C046C0460400D9
:10CD70002068002801D1FFF7DDFF200010BD000072
:10CD800030210020000000002E00000066616C735E
:10CD90006500000074727565000000007CB5040039
:10CDA0000E00150030002900FFF746FE00904543B5
:10CDB000701B0190684603C803C476BD80B5034864
:10CDC000C046C046806902BD00000000C0210020AE
:10CDD000002804D10EA003C803C2002070470170D0
:10CDE00001207047002904D10BA003C803C3002011
:10CDF0007047002A02D10120C0437047002801D0AB
:10CE00000A7802800978481E8041C043C00F7047ED
:10CE10000000000000000000000000000000000012
:10CE200007490868002801D00020704705480722FC
:10CE30009043086004499143091A0160704700BF9C
:10CE4000AC3300203F2A0020382C002010B5820788
:10CE5000D30EFF249C40E2438907090E994003004A
:10CE600004D599481B071B0F083B00E097489B0817
:10CE70009B00C01803681A401143016010BD0000F8
:10CE800000280FD092490968BF4A00BF00BF00BF09
:10CE900000BF00BF00BF00BF00BF914200D000BF75
:10CEA0000138F2D1704738B5802080028949086086
:10CEB00089488021490201640160B44C0125256044
:10CEC0002F20FFF7DDFF6560BD4C002525612F2079
:10CED000FFF7D6FFA57231BDF8B5B94A1378D0680F
:10CEE0000090002117E02500E469002C13D0B44223
:10CEF000F9D1A54207D1FE69D660002E03D1B14E0B
:10CF000030601161D0722068E469EC61002C02D0BD
:10CF100025682818206001205478A3421BD054684B
:10CF200018255D4364195B1C9578DBB2AB4200D1D8
:10CF300000232578022D02D0032D05D0EBE766688B
:10CF4000D7683D002C00D0E7D0680028E3D00174FA
:10CF5000C069D060F8E7D268009B9A4200D10020F7
:10CF6000F2BDFCB5964BD9680191002100E0DC6070
:10CF7000012200282DD11C785D78AC4256D05D6826
:10CF800018266643AD19641C9E78E4B2B44200D101
:10CF900000241C706C682E78012EECD1267C002EAB
:10CFA000E9D1AE686660EE68A6602E69E6606D69DC
:10CFB000A561DD7A002D00D061601D69666800966C
:10CFC000761B3602360AB54FBE4205D2A5687519E2
:10CFD0000AE00400E069F0E7009EAD1B2D022D0A77
:10CFE000A668B54202D2751B256000E02160616031
:10CFF000A1602274E161DA68002AB8D01668256859
:10D00000AE4203D3751B1560E261B0E716003768C6
:10D01000AF4205D2ED1B3200F669002E02D0F6E7D2
:10D020007F1B37602560E661D461A1E7D868019B6A
:10D03000984201D00120F6BD0020F6BDFEB5604843
:10D04000C06800283DD000680290AC4C2068009079
:10D050005B4800690190B54D00980199461A2E4031
:10D06000F61C8027BF025648807A002810D1B048AD
:10D07000790801640160AF480760AF48076001208C
:10D08000AE4908602F20FFF7FBFE01204C49887253
:10D090000298864200D20600019880192840E06379
:10D0A0002168009A801A2840891A0D40ED1CA84278
:10D0B00009D22068E0632F20FFF7E2FEC148076035
:10D0C000F7BDFFF7F0FEF7BD1CED00E000E400E067
:10D0D0004C20002080E100E008130140F0B585B04D
:10D0E0000024374D28690390E96802912A7A1100DB
:10D0F0006B7A9A420FD0491CC9B2022900D1002193
:10D100008A00AA185269019280180002000A286158
:10D110000120009001E0019400942972FFF7DCFEE9
:10D120000600E868009900291FD00199009413E0D7
:10D13000C91A009EF3180093002313600190D06970
:10D14000D368002B08D0039E009FF6193602360ADA
:10D1500056609360D461019C002805D002001368DA
:10D160009942E5D2591A11600126E8602000FFF7C4
:10D17000F8FE002801D1002E02D00298FFF75EFFD2
:10D180000020E87205B0F0BD0024F4000410014056
:10D1900096494870704710B594494A78531C8C786A
:10D1A000DBB2A34200D100230C78A34201D10020BE
:10D1B00010BD0370486818214A43801810BD000054
:10D1C000C03200200810014070B582B005000C008C
:10D1D0000020002669460870684600F00DF900A896
:10D1E000401CFFF7D8FF002801D1042605E0047099
:10D1F000456068464078FFF7CBFF6846007800F04E
:10D2000011F9002E03D1802040036E4908603000E0
:10D2100076BDF8B576480026066446648664C66422
:10D2200006604660714CE568002D36D000963348A4
:10D2300000682169401A07023F0A2868874219D30B
:10D240003F1A0099081800902800ED69017C002918
:10D250000ED0067442698169E369180006D0100097
:10D260009847002804D000F0F9F801E00800904742
:10D27000002DE2D1607A217A814205D1401C607292
:10D28000C0B2022800D16672607A8000201800992E
:10D290004161802040034B490860F1BDFFFF7F00E2
:10D2A00080B5FFF71BFF01BDF2B5070014001E009B
:10D2B000A00701D1002C01D10720F2BDFFF7F3FD3B
:10D2C0004A4DEE610020288069460978A9706C609B
:10D2D000E860288180246403164804600321142038
:10D2E000FFF7B4FD14480460424C6760032111202D
:10D2F000FFF7ACFD206828610020F2BD0415014055
:10D300003A4B5B68002B09D0130001D0002801D1F3
:10D31000072070470068037C002B01D0082070476D
:10D32000037441744261002070470000FFFFFF005A
:10D330000413014080E200E000E100E00010014041
:10D34000F4B582B005000C0028484068002808D0D9
:10D35000002D06D0052C01D20720FEBD68690028EB
:10D3600001D10820FEBD0020697C012901D12700E0
:10D3700000E00027002669460870684600F03CF887
:10D3800000A8401CFFF707FF002801D104260DE08C
:10D39000012101704560174909688160C460076117
:10D3A0000299416168464078FFF7F2FE68460078CE
:10D3B00000F038F8002E03D18020400301490860B6
:10D3C0003000FEBD00E200E080B508494968002950
:10D3D00004D0002802D04169002901D1082002BDF3
:10D3E000002101740221FFF7EFFE02BDC0320020D0
:10D3F000001101400415014030B5EFF3108172B601
:10D400000122124B5C68002C07D15A60104A114C63
:10D41000256815401D60226000220270002900D19D
:10D4200062B630BD09494A68002A0CD000280AD1EA
:10D43000EFF3108072B60A68074B1A6000224A6048
:10D44000002800D162B6704700000000843300203D
:10D45000FC06FFBC80E100E000E100E010B584B014
:10D46000040068460C2100F027F802946A46002167
:10D47000014800F023F81FBD014000001206130A06
:10D480001A43130C1A4300BF130030B414001500E4
:10D49000103902D310393CC0FCD2490700D30CC06C
:10D4A00000D504C0890002D30280801C002900D569
:10D4B000027030BC704700000022E5E7BFF34F8FD9
:10D4C000034804490860BFF34F8F00BFFDE700BF6A
:10D4D0000400FA050CED00E00870000A4870022014
:10D4E00070477CB504000D0028880930824201D2C3
:10D4F0000C2076BD684671DF00281FD108202988DE
:10D5000060542888401C28801B2180B22154288820
:10D51000401C28806E460622711C80B22018FEF73F
:10D52000D3FF2888801D28803278002A00D001226D
:10D5300080B222542888401C2880002076BD39B54E
:10D5400081B00C000178012904D14078002801D174
:10D5500007203EBD1588A81C834222D3012905D18E
:10D56000019840782818801C83421AD3581B831EC8
:10D5700068460380694610882018801C7DDF0028DB
:10D580002ED101980178082002290ED16946098818
:10D590009BB28B4207D269460B8069460988FF29F6
:10D5A0000CD30C203EBD0920F7E70129F3D10199E6
:10D5B00049789BB28B42EED90B00ECE769460988AB
:10D5C000491C1388E1541188491C118089B26054A8
:10D5D0001088401C1080694609884018108000207F
:10D5E0003EBDF7B584B000240C9D2888029000262B
:10D5F00004E02888097840182880761C0498008860
:10D60000864234DA01A804994968B20089180A8868
:10D6100002804A8842800022694665DF002833D1B3
:10D6200068460078097E8842E7D1002C01D00020AE
:10D6300000E0022029886A46928E6F463F78CF1913
:10D64000381882421CDB002C09D1491C298068460D
:10D65000007D89B258542888401C288001242888DD
:10D660001A18694601A865DF0028C2D00CE0002C1A
:10D6700009D028880299401A401E80B2FF2801DD97
:10D680000C2001E05854002007B0F0BDFEB50600A4
:10D690001700089D099C019400950222FFF7A1FF45
:10D6A000002807D101940095029B10223900300018
:10D6B000FFF797FFFEBD7CB582B005000C00118816
:10D6C000881D834201D20C2014E028886A4610800D
:10D6D00068460288062A0CDB1D4B1E4EB24201DB57
:10D6E0009A4206D16888062803DBB04204DB9842E0
:10D6F00008D0072004B070BD9A4203D06A46128851
:10D700009042F6D30520605402980088401C02998C
:10D710000880122180B2215402980088401C02998E
:10D72000088080B221182888FFF7D6FE0299098860
:10D7300008180299088080B221186888FFF7CCFE8B
:10D74000029909880818029908800020D2E7000091
:10D75000FFFF0000810C000070B504000E001500F2
:10D76000A088801C29880A18921C934201D3FF28A4
:10D7700001D30C2070BD401C70542888401C2880A8
:10D78000FF2180B231542888401C288080B2311893
:10D790002088FFF7A1FE298808182880A288002A7F
:10D7A0000CD0A168002901D1072070BD80B23018CB
:10D7B000FEF78AFE2888A18840182880002070BDC6
:10D7C000F2B507001600B86A002838D0002409E036
:10D7D000009B80B21818FEF777FE3088A9884018A1
:10D7E0003080641C380028300079E4B2844228D2AA
:10D7F000B86A0C2161434518A888801CFF2801D312
:10D800000C20F2BD401C0099328888543088401C9E
:10D8100030801621009A80B211543088401C30802C
:10D82000009980B209182888FFF756FE3188081839
:10D830003080AA88002AD4D0A9680029C8D107203E
:10D84000F2BD0020F2BDFEB505000E001400002759
:10D85000002021886A461181278029002C314978CF
:10D86000002907D06846028921003000FFF739FE01
:10D87000002849D1A97800291FD06846008921884D
:10D88000091D88423FD3684679DF00283CD1032038
:10D89000218870542088401C2080192180B2315486
:10D8A0002088401C208080B2311868460088FFF72D
:10D8B00013FE2188081820800020E978002917D05D
:10D8C00049B2228868460389D01C83421BD30220B8
:10D8D000B0542088401C2080012280B2325420881D
:10D8E000401C208080B231542088401C20800020C1
:10D8F000696800291AD000200956228868460389E1
:10D90000D01C834201D20C20FEBD0220B0542088DE
:10D91000401C20800A2280B232542088401C208083
:10D9200080B231542088401C2080002029890029A1
:10D930000CD0684600890190009433000622022131
:10D9400028000830FFF7A2FE00284ED1298A0029BE
:10D950000CD068460089019000943300072203210F
:10D9600028001030FFF792FE00283ED1298B0029B5
:10D970000CD06846008901900094330015221421D0
:10D9800028001830FFF782FE00282ED12F6A002FC2
:10D9900008D068460389220031003800FFF78BFE6B
:10D9A000002822D16F6A002F08D068460389220020
:10D9B00031003800FFF7D0FE002816D12C21695C19
:10D9C000002908D068460389220031002800FFF7AB
:10D9D000F7FE002809D12978002906D06846038976
:10D9E000220031002800FFF7AAFDFEBD70B592B0FD
:10D9F0000D001F216A4651801180002400280AD0A2
:10DA0000C17849070FD5921C09A9FFF71CFF002810
:10DA10001ED109AE02E0002669464C80002D0DD0D3
:10DA2000E878002801D0072012E06A4601A9280002
:10DA3000FFF709FF00280BD101AA02E00022684687
:10DA4000048068460388DBB24188C9B2300072DFC7
:10DA500012B070BD4058002804E0C12292008058E6
:10DA60000140080000D00120C0B27047894BC018A7
:10DA7000826001607047A123DB00C01801608260F2
:10DA8000704752000A4399001143009A12020A4358
:10DA9000019909041143804A80001150704700B574
:10DAA00083B0002101910091002301220121FFF7A1
:10DAB000E8FF07BD00B583B00022019200920B0081
:10DAC0000021FFF7DEFF07BDF1B50C00206801253E
:10DAD000724F0026F643B04205D0012181403960E3
:10DAE0002068FFF7DCFF6068B04202D00021FFF73A
:10DAF000E1FF009800686A494118A2690A60627DE6
:10DB0000237D13438B6462682168FFF7AFFF207D9C
:10DB1000012813D1A068B04202D00021FFF7CAFF4C
:10DB2000E068B04204D085403D60E068FFF7B7FF91
:10DB3000A268E16800980068FFF79DFFF1BD80B51D
:10DB400000688E2252008218002313609362904A6C
:10DB5000C1239B00C2500003001600F021FA01BD52
:10DB6000F8B506000C001700AC4831791C2251436F
:10DB70004518E87E002801D00820F2BD21003000C1
:10DB8000FFF7A2FF6F60206928606868002803D053
:10DB9000217F3000FFF7D3FF04203168A022D2009C
:10DBA00088500020E8752876A8750121E976A876C6
:10DBB000F2BD00228E235B00C2508A688B8AD25C41
:10DBC0008B8A5B1C8B82A44942507047F8B50700D2
:10DBD000924839791C22514344180020009038683B
:10DBE00000218E2252008150012181602100FFF727
:10DBF000E0FF6068002829D180256D008E26760020
:10DC00000FE031003868FFF725FF002802D1A08A15
:10DC1000A842F6D1A08AA84203D021003868FFF7B5
:10DC2000C8FFA08AA17D8842EBD3A08AA84202D176
:10DC30000F20009008E031003868FFF70BFF002844
:10DC4000F9D001203968C8600020A0750098F2BDA5
:10DC5000F8B504000F001500704821791C225143CB
:10DC60004618200000F00BF8002801D01120F2BD6A
:10DC7000B575B760B0822000FFF7A8FFF2BD674915
:10DC800000791C2250430818807D002800D0012014
:10DC9000704700000C050000000700500805005008
:10DCA0002405000000688421490041180022CA614F
:10DCB0000A6001210160704710B5A322D2008218CA
:10DCC00084235B00C0180023CC7D002C036001D1AD
:10DCD000106810BD487E1268CB681A54487E401CFC
:10DCE000487610BDF1B5AC48009909791C22514322
:10DCF0004718B87E034302D10098FFF7D3FF00987E
:10DD00000068796800293BD1A222520081509221FB
:10DD1000490000980068FFF79DFE06008421490035
:10DD200000980068FFF796FE0400A22149000098C1
:10DD30000068FFF78FFE0500204331000143E6D065
:10DD40002900314308D1390000980068FFF7B4FF7B
:10DD5000787EF97D8842DAD30020F875002E01D054
:10DD60000320F2BD002D01D00F20F2BD0098006805
:10DD70000121BA7E002A01D0016006E0416004E082
:10DD800081218900C122920081500020F2BD000053
:10DD900080000200F2B5804903791C246343C9184E
:10DDA000002400238125AD004E68002E04D00668B3
:10DDB000C127BF00F6197560CE7D002E10D00B7EF6
:10DDC000002B08D04968002903D00068C1218900D0
:10DDD00045501120F2BD0123009C0C610A7604E03D
:10DDE000CA75009DCD604C760C760099FFF77AFFDE
:10DDF000F2BD000038B50400674D20791C2148436E
:10DE00002818807E002808D12000FFF74BFF2079DA
:10DE10001C21484328180121817631BD4033002060
:10DE20001FB503006846012404700172019219684D
:10DE30005A6890471FBD00B585B0020000206B46B0
:10DE4000187019729168019190751168684652684E
:10DE5000904705B000BD00001C050000F0B585B07E
:10DE600006000C008125AD00002780218900FFF706
:10DE7000F4FD002826D0922149003000FFF7EAFD8A
:10DE800000281FD08E20400030188760C2208000FC
:10DE90003550A07E002801D1012070606846022123
:10DEA00001709021C90071180A680A600392E17D2F
:10DEB0000172E0680190E77527762168684662681C
:10DEC00090472DE004213000FFF7C7FD002827D040
:10DED000842149003000FFF7BDFD002820D021003B
:10DEE0003000FFF7E9FEE07D617E884218D1207E98
:10DEF000002807D0E268617EE0752069E06027763F
:10DF000067760AE0A07E002801D101207060C2205F
:10DF100080003550E775E268617E2000FFF780FFE2
:10DF20008E2149003000FFF795FD002811D0A08A0E
:10DF3000A17D884204D221003000FFF73AFE08E0BC
:10DF40008E2040003750A17D002902D02000FFF72D
:10DF500072FFA22149003000FFF77CFD002811D09C
:10DF60008E20400030188762A07E002801D001205A
:10DF70003060E07D002805D0E775E268617E200012
:10DF8000FFF74EFF05B0F0BD80B503490348FFF72A
:10DF900065FF01BD0000000040330020002000406C
:10DFA00010B58207D30EFF249C40E2438907090E77
:10DFB0009940030005D50B4C03071B0F083B9B083A
:10DFC00001E0094C83089B00E3181C6822401143C0
:10DFD00019600121C006C00E814004480160044858
:10DFE000016010BD1CED00E000E400E080E200E014
:10DFF00000E100E05A494058012800D00020704755
:10E0000052000A4399001143009A12020A430199EF
:10E0100009041143534A800011507047A022D205D1
:10E0200080001018E022D200801802684E4B134086
:10E0300003600268090411430160704738B56B46FC
:10E0400008A425681D60030008E06C469D00645923
:10E05000A225ED0064591460121D5B1C4418A342F4
:10E06000F3D331BD00000050012243075B0F9A40FB
:10E07000C008085C104070473C49081820214056F1
:10E0800004288041C00F70473849081820214056A5
:10E09000042801DB0120704700207047334908182D
:10E0A00020214056C043C00F704771B581B0002099
:10E0B000C0430425002A02D10424082500E00024DE
:10E0C0002A4B00E0641CAC4212D2A6009E190096B6
:10E0D00036688642F6D1019D5D1920352C70009876
:10E0E0000160002A03D1019819193C310870200001
:10E0F00040B276BD1D490022D2438300CA50042895
:10E1000002DB08183C300270704770B5174C442091
:10E11000205C002801D0082070BDFF2220212000B3
:10E120002030FFF7ABF9002500263000FFF7E2FFB3
:10E13000761C082EF9DB03210620FFF731FF354856
:10E1400005608020000634490860012044342070B6
:10E15000002070BD52480078002800D00120704790
:10E160000060004000070050FFFFFCFFC8310020A6
:10E17000F0B583B007000E0015000024FFF78EFFF6
:10E18000002801D0082443E0F27829003800FFF786
:10E190008CFF05000020C043854238D0B0780028AD
:10E1A0000BD0A020C005B9004018E021C9004018DC
:10E1B000016802229143016007E0019000907378AA
:10E1C000002200213800FFF71BFF3078F17800298A
:10E1D00013D03449AA0089180A68384B13400B60E1
:10E1E0000A683B02F8256D011D400004C0239B0214
:10E1F00003402B4313430B600AE08B494A193C321E
:10E2000012788001104349193C31087000E0042461
:10E210002000FEBD7C61004004630040F2B50700B1
:10E22000814CE5190126FFF72FFF002815D020208B
:10E23000285620183C2140560006800F0221032852
:10E2400004D17A480068F840064000E0012800D078
:10E2500003213800FFF7E2FEF1BD3800FFF70CFFA5
:10E2600000281BD0202028560E49820089180A68F1
:10E2700032430A60002182003302D21812B20E4BE0
:10E28000D15069460978002908D0202169568900B3
:10E290006158002902D0864065480660F1BD000043
:10E2A0000C3200201065004060490968C140C80771
:10E2B000C00F70470000000000600040FFE0FCFF5E
:10E2C000F0B587B0002602A806608024640001250E
:10E2D000042720B2FFF78EFE002808D054480068BB
:10E2E000284004D0002024B2544960502E436D00D1
:10E2F000241D7F1EEDD180273F06BE204000FFF782
:10E3000079FE002807D000204B4908603E4302AA4E
:10E310000121FFF793FE300715D001250024354277
:10E320000DD0A10043484218106813683E4A525865
:10E33000110004D09903890FC004C00E90476D00EE
:10E34000641C042CEBD337406CD005A8002101607D
:10E350000020C04301E002900598049000260024AC
:10E360003148001940214056C5B22900C0229143CE
:10E3700000910021C943884246D004A90098FFF7C4
:10E3800073FE002840D02806800F01902648009A8E
:10E39000811820228956890047583800019802D1F7
:10E3A000032831D101E003280BD10098C00805A94A
:10E3B000081801780122009B5B075B0F9A400A4313
:10E3C00002701F480099890040588003850F02A9F8
:10E3D0000098FFF749FE002802D0022D14D101E079
:10E3E000032D11D10198032808D1022D01D1032159
:10E3F00000E002210098FFF711FE761C380003D0E0
:10E400000199C9B20098B847641C042CA8D33606F9
:10E4100008D003AA01210020FFF710FE03980299FB
:10E42000884298D107B0F0BDC831002010050050D7
:10E4300004630040106500407C61004000600040C3
:10E440000007005070B50C001500002605E0A05D27
:10E4500000F0D4FA0028FAD1761CAE42F7D30D2092
:10E4600000F0CCFA0028FAD10A2000F0C7FA002800
:10E47000FAD170BD0078002800D0704780B53B21EC
:10E480008948008876DF12E080B5FEF7E7FF01BD1E
:10E4900080B5002000F011FC002801D0FEF7DEFF5F
:10E4A00000F0C0FC002801D0FEF7D8FF3CDF0028B8
:10E4B00001D0FEF7D3FF01BD80B5002809D00328A5
:10E4C00009D1022000F0F9FB002804D0FEF7C6FFB6
:10E4D00001BDFFF7DDFF01BD30B589B00400724D0D
:10E4E0002888218802292FD010290CD0112913D077
:10E4F00013291BD03A2923D0512929D052291AD0C7
:10E5000055291DD046E0072000F0D7FB002801D098
:10E51000FEF7A4FFA08807E0002000F0CEFB002853
:10E5200001D0FEF79BFFBB48288033E00023002288
:10E5300085217FDF2AE0002300220021A9DF25E0DA
:10E540001321A08876DF21E00021A08867DF1DE08D
:10E550006846A11D1022FDF7B7FF68460078002825
:10E5600018D06846007A042803D0062801D0052870
:10E5700010D104A869460978022900D00121017050
:10E58000C1214900818004A9A088A8DF002801D00A
:10E59000FEF764FF09B030BD10B5040000F038FD8F
:10E5A00021009D4800F002FE2000FFF795FF2000AB
:10E5B00001F020F8200000F046FC10BD80B53A497B
:10E5C0000A88042806D0072808D00A2811D1FFF7A6
:10E5D0005FFF01BD1321100076DF04E08D48824209
:10E5E00007D101F035F8082803D0002801D0FEF744
:10E5F00035FF01BD10B50178002903D002291FD0D5
:10E600001ED310BD854C20782018001D00F0DDF9C8
:10E610002278521C2270D2B2A118C9780A2901D0DE
:10E62000142A10DB211D2000183000F021FE0828DC
:10E6300003D0002801D0FEF711FF0020207010BD8C
:10E640004068FEF70BFF10BD10B5A8B03C2118A81C
:10E65000FEF732FF18A80221017000218170052108
:10E66000C1703C2109A8FEF727FF012409A80482F4
:10E670006B480E90202101A8FEF71EFF01A8C47070
:10E6800040200590B420069000200090654B01AA20
:10E6900009A918A800F027FE002801D0FEF7DEFE29
:10E6A00028B010BD000000003022002030B59BB023
:10E6B0005A4C00239F208000221805210020FEF7DD
:10E6C000F3FD002801D0FEF7C9FE14A860A11822AE
:10E6D000FDF70EFF20007C30049080204000059064
:10E6E000BE21490061180691079003234E4A04A9F0
:10E6F00014A800F015F9002801D0FEF7AFFE4B4A30
:10E700004B49032000F0E4FA002801D0FEF7A6FEF2
:10E7100003A9002000F0D2FB002801D0FEF79EFEE6
:10E7200055A000680090002348222100343168463B
:10E7300001F02EF8002801D0FEF790FE0FAA01216B
:10E74000002001F05EF8002801D0FEF787FE0FA838
:10E7500001F06EF8002801D0FEF780FE354801F088
:10E760003AF8002801D0FEF779FE112069460870BA
:10E770000B2200BF33A168467CDF002801D0FEF7E2
:10E780006DFE01A80021002206C001A81021018011
:10E790003C21418000258580C8214900C1807ADF65
:10E7A000002801D0FEF75AFE684605602248009016
:10E7B00069461834200000F029FD002801D0FEF73A
:10E7C0004DFEFFF741FF1C2108A8FEF775FE0895D6
:10E7D000A02080020990F02000030A9008A80321DD
:10E7E0000173C581057415480D9015480E9008A851
:10E7F00000F0BCFB002801D0FEF730FE1AA001F0AB
:10E8000039F8032000F00EFE002801D0FEF726FEA6
:10E8100048DFF9E7FFFF0000502C0020382C0020D3
:10E8200048200020B9E40100F5E50100BDE5010044
:10E83000CD0C000099E5010045E4010075E40100FC
:10E8400089E401004E6F726469635F554152540060
:10E850000B00000009000000080000000A00000092
:10E860000000000000E0D7010D0A5541525420532A
:10E8700074617274210D0A000100000730B583B085
:10E880006F4C0178002934D0022926D047D2406845
:10E890000178201D01F032F861690125002803D0BC
:10E8A0006A461570019006E0E0682269101A04D0EB
:10E8B00000206A46107068468847E068218922690E
:10E8C000101A814207D30122210019311C34200083
:10E8D000FFF760FA37BD257037BD6A461170C06812
:10E8E000019001222100193120001C30FFF752FA5B
:10E8F00012E0210018312000243001F00CF800282B
:10E9000007D10122210018311C342000FFF7A0F9A3
:10E9100037BD03206946087068466169884737BD7E
:10E92000F0B589B006000D001F00454C6261002D56
:10E9300001D1072047E06A6892B22968201D00F0E3
:10E94000C8FF00283FD1EA6892B2A96820002430AD
:10E9500000F0BFFF002836D1684600BF3AA1202250
:10E96000FDF7C6FD70690690307C002800D00120BC
:10E97000694608750F770025707C002800D00E20AE
:10E980004875F0680290B068039030680190706834
:10E9900000902C4A20001C30FFF7E2F8002812D12A
:10E9A000257030680021C94388420BD020001C30FC
:10E9B000FFF720FA0122210019311C342000FFF753
:10E9C000E9F900E0002009B0F0BD70B51C4C2578D5
:10E9D0000100201D00F09FFF0600002D0CD000203C
:10E9E00020700122210019311C342000FFF7D2F9D8
:10E9F000002801D0FEF732FD300070BD38B5104C54
:10EA000001002000243000F079FF050015D120001E
:10EA10001C30FFF734F900280FD1210018312000F5
:10EA2000243000F078FF002807D10122210018319E
:10EA30001C342000FFF70CF90500280032BD00004F
:10EA4000E81F00207DE80100FFFFFFFFFFFFFFFF41
:10EA5000FFFFFFFFFFFFFFFF0000000000000000BE
:10EA600000E0D70103000000A022D20580001018AA
:10EA7000E022D20080180268B64B1340036002689F
:10EA8000090411430160704780B500F0AFFF02BD7B
:10EA9000F3B581B000256846007900F0B7FF04287F
:10EAA00031D2AD4C41000918661827186846007A23
:10EAB000002817D002281ED01ED235787078002882
:10EAC0000DD022000E3261690A20414320006030DF
:10EAD000FEF736FC002802D168460079A073B078B2
:10EAE000387409E020006030FEF76EFCB578387CA1
:10EAF000A84208D100E07578002D04D0E169080033
:10EB000001D028008847F7BD80B502210078FFF7C3
:10EB1000BFFF01BD70B50500002000268E4C617B53
:10EB2000002902D0607300F028FF01202900172976
:10EB300000D9B1E001A2525C520097448E0B0B1D2C
:10EB400028384E54595F595FAA6C6C6C6C6C8E916E
:10EB5000989FAAAA002000F001FF002807D00020FB
:10EB600000F004FF022D1AD1E120C0002CE000F0DB
:10EB7000F9FE022D18D126E0002000F0EFFE00285B
:10EB80001ED0002000F0F2FEC82080001CE0002013
:10EB900000F0E4FE002805D0002000F0E7FEFA2097
:10EBA000000111E000F0DEFEC82040000CE0002073
:10EBB00000F0D4FE002803D0002000F0D7FE02E0D1
:10EBC000002000F0CFFEC820257366696421FDF7A0
:10EBD00036FF46433100002217E0002000F0E0FE3F
:10EBE0000620207307E0002000F0BCFE07204EE066
:10EBF000607300F0D5FE0022616906E0607300F0EA
:10EC0000CFFE002260698100091820342000FEF741
:10EC100097FB060040E020004030FEF7D5FB0600E1
:10EC20001120401B15D0002E13D102280DD3656989
:10EC3000C82148436421FDF702FF29004143002217
:10EC400040342000FEF77CFB0600022000F08AFE24
:10EC500022E0022000F08AFE1EE000F08EFE1AE0A4
:10EC600000F08BFE002000F07DFE13200FE000F08E
:10EC700084FE012000F076FE142008E000F07DFE06
:10EC8000002000F06FFE012000F06CFE15202073C4
:10EC900002E000F07BFE2573300070BD2E48017E3F
:10ECA000C90700D4704780B5007BFFF733FF01BD73
:10ECB00080B5022000F074FE01BD80B50021264A17
:10ECC000127ED20702D5FFF725FF0100080002BD22
:10ECD000F8B505000F00002400261F484761856134
:10ECE000C261A80720D501220121200000F036F8DA
:10ECF0000600641C042C01D2002EF4D0002E05D195
:10ED00007A08042130A000F0EFFE0600002E02D1A8
:10ED100000F01EFF0600002E06D11F4A002100BF92
:10ED200028A0FEF7EDFA0600E80701D500F04AFE3C
:10ED3000002E05D1194A002120A0FEF7E1FA0600B5
:10ED4000002E05D1164A01211DA0FEF7D9FA0600B2
:10ED50003000F2BDFFFFFCFF4030002030B5030063
:10ED60000020042B16D2012A05D1012902D11A0054
:10ED70000E3200E000220B4C5D00EB18E318002976
:10ED800006D0022902D005D21A7030BD5A7030BDAB
:10ED90009A7030BD072030BD09EB01009DEC0100E9
:10EDA000B1EC01004030002080B500F03FFE0321AF
:10EDB000FFE7FFF759FE002002BD00006030002091
:10EDC00080300020A03000201100030091EA0100F3
:10EDD0001200030091EA01001300030091EA010010
:10EDE0001400030091EA010080B5012202210020F5
:10EDF000FFF7B4FF002801D0072812D10722022113
:10EE00000120FFF7ABFF002801D0072809D10A2213
:10EE100000210020FFF7A2FF002801D0072800D121
:10EE2000002002BD80B50020FFF7BEFF002801D002
:10EE3000062807D10120FFF7B7FF002801D00628D8
:10EE400000D1002002BD10B52C4C6168008810284C
:10EE500002D0112826D010BD00291FD10122002088
:10EE6000FFF77CFF002801D0072811D107220221DB
:10EE70000120FFF773FF002801D0072808D10422E2
:10EE800002210020FFF76AFF002807D0072805D0DD
:10EE9000002803D021680A0000D088476068401C21
:10EEA000606010BD491E616007D1FFF79DFF00281B
:10EEB00003D021680A0000D0884710BDF8B50F00C4
:10EEC000002400250D4E3060002F0ED00120FFF7EA
:10EED000DBFD002801D0022004E0FFF7D5FD00286B
:10EEE00002D00B20387000E03C707068002802D11E
:10EEF000FFF77AFF05002800F2BD00009C330020D8
:10EF0000408862490A88904204D34988814201D3EB
:10EF1000012070470020704738B55D4CE08B5D499B
:10EF2000884222D0217F491C2177227BC9B28A42A4
:10EF300008D3564975DF002817D0A1690A0014D0FC
:10EF4000884731BD00252577217C002907D03B214A
:10EF500076DF002803D0A1690A0000D088476169E4
:10EF6000080002D068460570884731BD70B50600BC
:10EF7000474C200031001C22FDF7BAFA00256577C6
:10EF80003168424E002911D030000822FDF79CFA6A
:10EF900030007ADF002808D13E48E08325773E4ADA
:10EFA000002100BF3EA0FEF7ABF970BD30007BDF53
:10EFB0000028F1D070BD38B50025354C3748FFF733
:10EFC0009FFF00281AD1607F002805D061690800E2
:10EFD0001CD06A46157017E0207F002801D16168B7
:10EFE00000E0A168002220002030FEF7A9F90028E7
:10EFF0000CD0A1690A0009D0884707E061690800C0
:10F0000004D001206A46107068468847657731BD94
:10F0100038B5010000251E4C20480A88102A06D069
:10F02000112A0FD0122A2AD0502A0FD031BD8A8837
:10F03000E28318310822FDF747FA2577E089002896
:10F0400023D120E01348E08325770DE0891D08884F
:10F05000E289904219D14889022816D10C31080062
:10F0600000F095FD00280ED120002030FEF7ACF90D
:10F0700000280AD0A1690A0007D0884731BD0831AD
:10F080000822FDF721FAFFF796FF31BD8C330020EF
:10F0900010320020FFFF000019EF01009433002020
:10F0A00030320020F0B58FB00400032101A8FEF734
:10F0B00003FA112501A8057045708178F9220A40EC
:10F0C0000221114381701C2108A8FEF7F5F908A858
:10F0D00000781021014308A80170002609960B96BC
:10F0E0000C9601A80D900E9602A821788170032736
:10F0F000032101806846FEF7DFF968460570457018
:10F100008178E3220A4017438770142103A8FEF791
:10F11000D3F902A803906846049003A80121018155
:10F1200046811421818123000C3303AA08A9608839
:10F13000A2DF0FB0F0BD30B58FB004001C2107A8CE
:10F14000FEF7BAF96846007F0C2101436846017753
:10F15000002508950A950B950C950D9501A8217829
:10F1600081700221018003216846FEF7A5F9112074
:10F170006946087048708878E322024003201043F3
:10F180008870142102A8FEF797F901A8029068463A
:10F19000039002A801210181458114218181231D51
:10F1A00002AA07A96088A2DF0FB030BD10B5040025
:10F1B0000800002C29D0002827D00188102904D06D
:10F1C000112904D0502905D010BD808800E03C48AA
:10F1D000A08210BD801D0188228A91420AD14289F5
:10F1E000022A07D10C3000F0D2FC002800D0012008
:10F1F000A07510BDA288914207D1A369190004D05F
:10F2000042890C3001002000984710BD30B585B010
:10F2100004000D0001A800BF2AA11022FDF768F923
:10F22000002C01D0002D01D10E201FE02448A08227
:10F230002868A0610020A075210001A863DF0028D4
:10F2400014D168462178817001210180A21C694691
:10F250000120A0DF002809D129002000FFF722FFAC
:10F26000002803D129002000FFF765FF05B030BD5D
:10F2700074B585B0002801D10E201FE0828A104BA2
:10F280009A4202D0827D002A01D1082016E06A4607
:10F29000928A152A01DB072010E06A460023002429
:10F2A0000025002678C26A4683891380039105A948
:10F2B0000291012191706946808AA6DF06B070BD77
:10F2C000FFFF00009ECADC240EE5A9E093F3A3B57E
:10F2D0000000406E51480179002902D1007B0028CE
:10F2E00000D001207047F2B5040011001E00002C70
:10F2F00001D0002901D10E20F2BD0120474A10762D
:10F300000025D57646482022FDF7F2F843484662AC
:10F31000069842498862B34808840721B248FEF73C
:10F32000CBF8B24E3C213000FEF7C6F820783070A2
:10F33000A078B070E078F0706078707020001030C5
:10F3400003C83200103203C22000083003C8320064
:10F35000083203C22000183003C83200183203C23A
:10F36000A34801004031626A002A0FD071628860B0
:10F37000626A13880B8092888A80002304E0676A9F
:10F38000BF68FF5CC7545B1C9342F8D3A26A002A93
:10F390001AD0020020324A6102004C32B262A26AE4
:10F3A00093880B8212888A81002206E0A36A9B68F8
:10F3B0009B5C871820373B70521C0B8A9A42F5D30E
:10F3C0002C22A25C2C23F254226A002A07D00200CD
:10F3D00058323262226A53884B8312880A836168EA
:10F3E000002900D071600021CA00521A82185C32D4
:10F3F0000A4B1B688C001A51491C0829F4DB2901AF
:10F4000041189431054A9268AB00D1506D1C082D0B
:10F41000F5DB00993000FEF7E9FAF2BD1C20002070
:10F42000E0320020F0B587B00600874C207E00282F
:10F4300001D10820D3E0E676684600F0AFFB012555
:10F440000098002819D1072120001030FEF734F869
:10F45000E07E7E4F7978002901D0012806D0B97866
:10F4600000290ED0012801D002280AD1616A0800C3
:10F4700005D025770820884703E06576AEE00020B8
:10F48000207700202118497C002911D1401C062832
:10F49000F8D30020012E06D01BD3032E0FD009D3A2
:10F4A000042E11D015E07978014203D0012011E03B
:10F4B0000120EFE7B978014201D002200AE0F87894
:10F4C000002801D0032005E03879002801D004206D
:10F4D00000E00020E076616A08000ED0E07E03289C
:10F4E00001D0042809D13878627F012353401842A3
:10F4F00003D0A5770720884701E00020A0771821D6
:10F5000001A8FDF7D9FF01AE002030703072E07E17
:10F5100000285DD002280CD003D3042839D012D3A0
:10F520002FE0A57620001030029035700020306169
:10F530002AE0A0762000103002903570F8687082C2
:10F54000B868308220E03869308278697082387813
:10F55000617F01224A40104201D1032024E0FFF7DD
:10F56000B9FE0028F9D004940220307204201F490B
:10F57000C87000211D48FEF739FA002801D1052086
:10F58000A076E07E002824D001A873DF002820D0D8
:10F5900025E0B8693082F86970823878617F01228D
:10F5A0004A40104202D10420A076EDE7FFF792FE18
:10F5B0000028F8D004940220307204200B49C8704F
:10F5C00000210A48FEF712FA0028DAD10620D7E710
:10F5D000A076616A080001D0A07E8847002007B0AD
:10F5E000F0BD0000FFFF00002C2000205032002062
:10F5F0002C2F002010B5224C0188102904D011298D
:10F6000008D01B290ED010BD817D01291BD1808817
:10F61000208410BD002161778088218C884212D11E
:10F62000012008E0007A00280DD1E07E401C052171
:10F63000FDF702FAC8B2FFF7F5FE002803D0A16A71
:10F640000A0000D0884710BD1C200020E0320020B6
:10F6500010B574DF0A4C012060770A480621C1709A
:10F660000021FEF7C3F9002809D1E07EFFF7DAFE9A
:10F67000002803D0A16A0A0000D08847002010BDEE
:10F680001C20002050320020202804DA6E49C1409E
:10F69000C807C00F70470120704738B50400FFF756
:10F6A000F3FF002801D1694832BD03210320204027
:10F6B000C200200005D5664B05072D0F083DAD089B
:10F6C00001E0644B8508AD005B59D3409A091140B5
:10F6D00004290FD200290DD002290BD0E206D20E48
:10F6E00001215D4B5C68002C06D191405B480160B4
:10F6F000002032BD5A4832BD400980001818036806
:10F7000091401943F3E780B5FDF7D8FE01BDBCB5C4
:10F71000544C2078002837D000250027E0680028C6
:10F7200003D1012501E0002F15D1607800282BD1ED
:10F73000684652DF052801D101270CE0002802D0DD
:10F74000FDF78CFE07E0009800F08CFA21690800B4
:10F7500001D000988847002D14D16078002813D17B
:10F7600060886946888001A9A06861DF052801D109
:10F77000012507E0002802D0FDF770FE02E0A06836
:10F78000E16888472F42CED0B3BD36480078704735
:10F7900038B5002901D08C0701D0072032BD314C8B
:10F7A000A160628063602D4A1168CB07DB0F0125E1
:10F7B000002B01D02C490D602C4910DF002803D00C
:10F7C000002B07D0156032BD257000F052FA1620CC
:10F7D000FFF763FF32BD010001D10E2070472149C0
:10F7E000C8600020704780B51E484068010005D001
:10F7F0008047002804D0FDF731FE01BDFFF787FFE9
:10F8000001BD70B504000D00160014213000FDF795
:10F8100053FE0120308000213161317BFE220A40FD
:10F82000327335727472002C00D0B072002070BD3B
:10F8300082B00F4900910099019101A960DF009900
:10F8400002B0704700000000FC06FFBC0120000071
:10F850001CED00E000E400E08433002000E100E063
:10F86000022000007033002080E100E007F7010073
:10F87000E81F00200EB400B582B003A900916B46CA
:10F8800002000121034878440A30FBF719FC029971
:10F8900006B00847C10A000010B50268C368848832
:10F8A0002340D154C168491CC16010BD10B5036824
:10F8B0008468611880880140585C107010BD10B5D4
:10F8C00004000A000021FFF7F1FFA068401CA060BF
:10F8D00010BD10B5002901D10E2010BD002A03D0A3
:10F8E000531E14001C4001D0092010BD0160511EA0
:10F8F000818000218160C160002010BD10B5826848
:10F90000C36884889A1A944203D3FFF7C5FF002086
:10F9100010BD042010BD80B58268C3689A1A03D058
:10F92000FFF7CDFF002002BD052002BD52000A43B3
:10F9300099001143009A12020A43019909041143E4
:10F940001D4A800011507047012282401B48002947
:10F9500001D1426070470260704700001849096891
:10F9600034A24AE080B5002102E0000080B5012108
:10F9700030A2105CFFF7E8FF01BD10B500242000A5
:10F98000FFF7F4FF641C042CF9D310BD10B500245C
:10F990002000FFF7E7FF641C042CF9D310BD000022
:10F9A00024A1085C06490A6801238340180090439B
:10F9B000486013408B6070470007005008050050F6
:10F9C0000405005030B583B0002400BF19A5002005
:10F9D00001900090002301220121285DFFF7A6FF7E
:10F9E000641C042CF3D3FFF7C8FF37BD004901E0C6
:10F9F00010050050096800BF0FA2105CC140C80785
:10FA0000C00F401E8041C00F7047000010B50100BC
:10FA10000020C043002200BF07A39C5C8C4201D1A0
:10FA2000100010BD521C042AF7D310BD02A1085CBF
:10FA3000704700001516171811121314D0B50024C2
:10FA40004B4F09E0002048400121414073681800F5
:10FA500001D010009847641C3878E4B284421BD26D
:10FA60007868E100461831780120884039690842F9
:10FA7000F1D0814339613078FEF716FC010032780D
:10FA8000F868012393400340080090408342E2D18C
:10FA900070780128D6D1D6E7D0BDF8B5070001258A
:10FAA000BD40334C20001430FDF78EFC00281AD1E5
:10FAB0002069EE43284214D13800FEF7F5FBE168D7
:10FAC000002801D0294301E00E403100E1602069A7
:10FAD000054325610022A16814342000FDF730FCA5
:10FAE000F1BD06402661F1BDF8B506000C00150019
:10FAF000052D01D20720F2BDFEF72CFB002803D113
:10FB0000FEF703FB002822D1194846600470856087
:10FB10000021C1600161174D19A72000441E002873
:10FB20000FD0E4B2E00030183968009181786A465D
:10FB300051702A0069460078FEF71AFB0028ECD0C5
:10FB4000F2BD0D4A002100BF0CA0FDF7D9FBF2BDAC
:10FB500038B50024064D06E001216868E200805CAB
:10FB6000FEF75CFB641C28788442F5D3002032BD8C
:10FB70008C3200209BFA01003DFA0100A0320020E7
:10FB8000030000000178407800020843704780B508
:10FB9000FFF7F8FFC007C00F02BDFEE7002801D144
:10FBA000032070470249496E016000207047000041
:10FBB000C03000208021C9050858002800D001204D
:10FBC000C0B2704770B500200024364D2978002956
:10FBD00001D0852413E0A86068602861E86032489D
:10FBE0000068C00703D403210020FEF7D9F90126DD
:10FBF000FFF7CBFD002801D12C4806602E702000B5
:10FC000070BD38B50400274D01D1083506E0103528
:10FC100004E00868286020004968884729680029AE
:10FC2000F7D131BDF8B501241E4F224D0026200228
:10FC3000FFF7C0FF002806D02E601D4804607C70CE
:10FC40000020FFF7DEFF82204000FFF7B3FF00280F
:10FC500007D06E60022016490860BC700120FFF7D3
:10FC6000D0FFF1BD002800D0704780B5FFF7C9FF75
:10FC700001BD10B582B00020694608706846FDF7E6
:10FC8000BBFB084C2078002801D1FFF79BFFE06800
:10FC9000401CE0600120A07068460078FDF7C2FBC0
:10FCA00013BD00005C33002000E100E018050040B7
:10FCB0000803004000010040F8B504000E001500E4
:10FCC000207880075CD0200000F09EF8002857D1F3
:10FCD000002E02D003CE083E2D18009801283CD1FA
:10FCE0002088C00416D522003D32A169200000F012
:10FCF000ABF80700626A002A00D12269E16820009F
:10FD000000F0A2F8E91B0D1AA26AE168200000F0D9
:10FD10009BF82D1A002D28D12088C0218901084286
:10FD20000ED06068E0602061A06260616068E0629F
:10FD300020003D30A06120002430E061002060629E
:10FD4000002E04D0083603CE2200303203C22088B1
:10FD50000F49014021800020F2BD022805D0002873
:10FD60000AD10020C04385420AD0009A290003200E
:10FD700020560020C04305000020C0438542CBD15F
:10FD800000F068F8232101600020C043F2BD00BFED
:10FD9000FFCE000070B5C046C04604002088800435
:10FDA0002DD565680026F64308E04A1B290000F0BF
:10FDB00059F8B0420DD000280BD02D180320205642
:10FDC000E1688D42F1D30022002100F04BF8B042EF
:10FDD0000DD16068E0606061E06220888021890068
:10FDE000014321802000C046C046300070BD6568D8
:10FDF000E5606561E56220881149014021802000AD
:10FE0000C046C046002070BDF8B5002815D1C046D8
:10FE1000C04600240B4D08260027FF432868002811
:10FE200004D0FFF7B7FF002800D53C002D1D761E3B
:10FE3000F4D1C046C0462000F2BDFFF7ABFFF2BDD3
:10FE4000FFDF000010210020914201D2501A7047BC
:10FE50000020704780B50248C046C04602BD000081
:10FE60002C22002070B50C001500002604E020783C
:10FE7000FEF7C4FD641C761CAE42F8D3280070BDAA
:10FE800010B5F0200F2228490B78012B1BD14B68AD
:10FE9000134018D18B68034202D1CC6804400CD0C7
:10FEA000F0241C40102C02D1CC68044005D0034043
:10FEB000302B08D1CB68034005D11C4B1C4C236070
:10FEC000E30B1C4C23600B78012B0CD14B681340C7
:10FED00009D18B680340402B05D1CB68034002D188
:10FEE0000123154C23600B78012B1BD14B681A4062
:10FEF00018D18A68F0231340A02B02D1CB680340AD
:10FF000005D00240D02A0DD1C96808400AD10B485B
:10FF10000168012904D00A49016001680129FCD166
:10FF2000C021416110BD0000E00F00F0DFFF07C0FD
:10FF300004050040186C00400806004000EC064034
:10FF40007593000038B50400E0686169884254D3B5
:10FF500021882B4A0A40022A09D0080402D58020B1
:10FF6000800001E08420C001084320803FE0C025DC
:10FF7000ED012940A94207D1A168884204D320009D
:10FF8000FFF742FF002832D12088E90808421ED13D
:10FF9000616820003D30814219D180208000FCF74B
:10FFA0002BFA6060002806D120003D306060E060E0
:10FFB000401CA0600BE0218840220A432280E060C0
:10FFC000802189004118A160A0626068E0626068D9
:10FFD0002061A0686061207840070BD502220021D3
:10FFE000200000F00FF80021C943884202D1002010
:10FFF000C04332BD208805432580002032BD00BFAC
:020000040002F8
:100000000290000070B50D001600C046C046040006
:1000100033002A000021FFF74FFE05002000C046F4
:10002000C046280070BDFEE710B500210278120618
:1000300026D50023214A1468844202D19B00D15066
:100040001BE0012354688442F8D002239468844260
:10005000F4D00323D4688442F0D00423146984428A
:10006000ECD0052354698442E8D006239469844285
:10007000E4D00723D4698442E0D0FCF753FA10BDE2
:100080000180C943C17001003D31416001003D3133
:10009000C16001003D31016101003D31816201001B
:1000A0003D31416101003D31C16201003D3181615D
:1000B00001002431C16110BD0000000010210020AA
:1000C00070B504002078800703D003202056002854
:1000D00009D5C046C0462000FFF7A6FFC046C0466F
:1000E0000026F64329E02000FFF78EFE0600C046FA
:1000F000C0462078400602D56068FCF713FA002558
:10010000656003202056022805D90020C04600283B
:1001100001D00026F643A06B002809D00020C0467D
:10012000002801D00026F643A06BFCF7FBF9A5637D
:100130002000FFF779FFC046C046300070BDFEE7E3
:1001400010B5184C2068002801D0FFF7B9FF60688F
:10015000002801D0FFF7B4FFA068002801D0FFF706
:10016000AFFFE068002801D0FFF7AAFF2069002850
:1001700001D0FFF7A5FF6069002801D0FFF7A0FFBD
:10018000A069002801D0FFF79BFFE069002801D09B
:10019000FFF796FF002200210020C043FFF762FE18
:1001A00010BD00BF1021002038B504000800C04673
:1001B000C0460500E8686969884204D32800FFF753
:1001C000C1FE002810D4E868411CE960047028884A
:1001D000010504D440050DD5E4B20A2C0AD128004B
:1001E000FFF712FE002805D02800C046C0460020B8
:1001F000C04332BD2800C046C046E0B232BD70B434
:100200000121002313E00468001D0C4202D04D467A
:100210006D1E64192360241D121F042AFAD22500C2
:10022000960701D52380AD1C0A4000D02B700268D0
:10023000001D002AE7D170BC704730B50168411835
:10024000446862088A188368E40701D54C461B1984
:100250000C30914200D130BD0C7864B2491C0D784D
:10026000491C1D705B1C002C02D5641CF9D1F0E701
:10027000641EF4D5EDE7FEE70321064802680A4351
:100280000260054802680A43026004488047044847
:1002900000470000240500405405004081FE010095
:1002A0007D0302000000000000000000686A6C741A
:1002B0007A4C000000000000000000006E616E003B
:1002C0004E414E00696E6600494E460010B5074922
:1002D00079441831064C7C44163404E0081D0A6841
:1002E000891888470100A142F8D110BD080000001C
:1002F000240000000BFFFFFF78070000382C0020CF
:100300000000000037FFFFFF9C00000042010000DA
:10031000E81F00200120C046002801D0FFF7D6FFCB
:100320000020C046C046FEF7C1F900F000F880B5D5
:1003300000F002F801BDFEE70746FFF701FF38466F
:1003400000F002F8FBE7FEE7202109032631182020
:10035000ABBEF9E738B505000C00200000F006F848
:10036000A04200D00025280032BDFEE780B502493A
:10037000FFF71AFF02BD00BF90200020C046C04614
:10038000C046C046FFF7C6FFFEE7FEE7FEE7FEE712
:10039000FEE7FEE7FEE7FEE7FEE7FEE7FEE7FEE735
:1003A000FEE7FEE7E30002200040EB0002330020FE
:1003B000FC000320330020E000270100020000249D
:1003C000F400010400008D2000208E2000208D20EC
:1003D00000208D2000208D2000208D200020742002
:1003E0000020E0001F0204010178310020C8310024
:1003F00020783100207831002078310020CD200095
:1004000020B4200020E0001F020802022831002052
:1004100078310020283100202831002028310020A8
:100420000D210020F4200020E0000B50200020903F
:10043000200020D0200020D000F8FFDC00FAFF814F
:0504400000CD00FEFFED
:040000050002037D75
:00000001FF
