:1000000038080020411B0000B7080000F70D000071
:1000100000000000000000000000000000000000E0
:10002000000000000000000000000000B30D000010
:100030000000000000000000B50D0000D71B00000C
:100040005F130000E31B000055180000FD1B0000BB
:10005000FF1B00000000000011150000011C000043
:10006000031C0000051C0000071C0000091C000008
:100070000B1C00000D1C00000F1C0000111C0000D8
:10008000131C0000A90B0000151C0000171C000029
:10009000191C00001B1C00001D1C00001F1C000080
:1000A000211C0000231C00000000000000000000D4
:1000B0000000000000000000000000000000000040
:1000C000F5B581B00E001D000A99104600F0B7FA90
:1000D000070072D0386B6946098989004418241FCB
:1000E0006846008900900B9B089A3100380000F0A8
:1000F0005FFA2A00019907208443200000F03EFBAC
:1001000038600998002800D0076000F072FB374C77
:10011000A069401CA061364D6869002825D16F6137
:10012000A06901282AD1002614207043281818300D
:1001300000F07AFB761C032EF6D328008430009062
:1001400000F072FB2E009836300000F06DFB2800A6
:1001500000F06AFB200000F067FB2800603000F030
:1001600063FB00986865AE6508E0E069002805D18A
:1001700008986969C96A884200D36F61A06A401C07
:10018000A062F86AA96F814200D2A867391DF86A97
:10019000142250432818183000F055FB012600F0B7
:1001A0002EFBE069002806D06869C06A0899884279
:1001B00001D200F014FB3000FEBD0026F643FAE742
:1001C00038B504000ED000F039F80A48456F406990
:1001D000001D00F05EFB281900F019FA00F041F84C
:1001E000002801D100F0FBFA31BD0000040000201E
:1001F00040180020401800201FB5464C00200390F6
:1002000002902000143001900020009000233C2236
:1002100008A19348FFF754FF012801D100F04CFBDF
:10022000012806D172B6E06100207F49486700F0DE
:10023000C0FA1FBD49444C4500000000A1480168B8
:10024000491C01607047002077494A69D26A002A38
:1002500006D18A69022A03D28248C06A496F401ACD
:100260007047F8B5002700F0C4FA6F4C20008030CA
:100270000168491E0160006800283DD17948806905
:1002800000281CD138E0E068C5682800183000F06C
:1002900000FB281D00F0FDFAE86AA16F814200D240
:1002A000A067291DE86A142250432018183000F076
:1002B000CAFAE86A6169C96A884200D3E66701261A
:1002C00020680028DFD16748006A00280AD10DE0C5
:1002D00000F022F8002800D0E6676248006A401E5D
:1002E000604908625F48006A0028F1D1E06F012888
:1002F00002D1012700F073FA00F081FA3800F2BD54
:100300004948406F704748494A6F1018486770471E
:100310000000000004000020F8B50027514E424CB8
:1003200080202058002841D1606F401C6067606FBA
:100330000090002808D1606DA16D6165A065706AAC
:10034000401C706200F099F90098F16A884230D33D
:100350001CE0281D00F09DFAA86A002803D02800A0
:10036000183000F096FAE86AA16F814200D2A067C7
:10037000291DE86A142250432018183000F063FA4F
:10038000E86A6169C96A884200D30127606D006824
:10039000002802D10020C04306E0606DC068C56837
:1003A000686800998142D4D2F06202E0306A401C51
:1003B0003062E06F002800D001273800F2BD1A49F2
:1003C00080200858002802D00120C8677047C867FD
:1003D000142201E0401E8867886F50430818806926
:1003E0000028886FF6D050430A18183250684368C6
:1003F000536010000830834201D158685060506843
:10040000C0684861704738B50C00074D69691831FC
:1004100000F025FA6869001D00F03BFA0020C04397
:10042000844200D107E001E040180020686F001905
:1004300000F0EDF831BD6969091D6035280000F054
:1004400002FA31BD38B50C00934D6969183100F0DE
:10045000FAF96869001D00F01CFAE7E700000000E7
:10046000290500000400002038B5C068C4682000D9
:10047000183000F00EFA884D8020285800280ED140
:10048000201D00F006FAE06AA96F814200D2A86739
:10049000211DE06A142250432818183002E0210080
:1004A0001831280000F0CFF96869C06AE16A884213
:1004B00002D20124EC6700E0002400F0DEF8200006
:1004C00032BD0000C0180020A449496A0160724989
:1004D000496F41607047F2B5050000F08AF96E4837
:1004E000416F0098026800240020C043824213D06C
:1004F0006B689A4E766A2F68BE4201D099420AD242
:10050000CE1A964207D2501AC018009908602800E7
:10051000FFF7DAFF00E0012400F071F92000F2BDDE
:1005200001205D49C867704770B58C4C5A4D1EE07C
:10053000FFF784FE2068461EB641F60FFFF791FED6
:10054000002E14D100F055F9E068C668301D00F0A7
:10055000A0F9A069401EA061E86D401EE86500F0AA
:100560004EF9306BC046C0463000C046C046E86D0C
:100570000028DDD1A869022801D300F030F9FFF787
:1005800062FE0228F3D3FFF759FEFFF75CFE022854
:1005900001D300F046FBFFF764FEE8E701203E4A86
:1005A0001368002B02D1D26F002A00D000207047C0
:1005B000F8B504001500002600200A181378271843
:1005C00034373B701278002A02D0401C0428F4D340
:1005D00037216654032D00D3022520001030C56159
:1005E000270038373D607E60201D0021016120001A
:1005F00018300021016124610320401B21001031CB
:100600008860200010304461BE603E73F1BD10B5BB
:100610000400214841694C60416F8C42416904D219
:10062000091D806D00F01BF910BD091D406D00F023
:1006300016F94A48C16A8C4200D2C46210BD70B536
:100640000E008500002E03D1280000F039FB0600C3
:10065000002E0FD0482000F033FB040006D02663A4
:10066000A5222900304600F063FB04E03000C046BC
:10067000C04600E00024200070BD384806494A6D9D
:100680001268002A02D10021C94303E0496DC968FC
:10069000C9684968C1627047401800202F48C06986
:1006A000002801D10120704732480068002801D19C
:1006B000022070470020704738B5040028D02E4D26
:1006C000E06A6969C96A884222D2A069002804D414
:1006D00003206969C96A401AA0616069E16A14224D
:1006E00051436918183188420FD1201D00F0D1F80C
:1006F0006869C06AE062A96F814200D2A867211DC3
:10070000142250432818183099E66869C06AE062DC
:1007100031BD10B504000020002C1ED0E16B491E35
:10072000E163E26AA36B9A4217D0002915D1201D1C
:1007300000F0AFF8A06BE0620321081AA061E06A44
:100740000D4A916F814200D29067211D14235843B6
:100750001018183000F077F8012010BD04000020B8
:1007600005484169002903D04169CA6B521CCA631C
:1007700040697047C01800204018002070B582B052
:1007800004000E00150004220021684600F0F0FA73
:1007900024A00068009020000C3800998160466019
:1007A0001B490160203C20000560203876BD72B6F0
:1007B000FEE710B5174C206917490140C02000041E
:1007C0000843206100F013FA0020144908602068F3
:1007D00010210143216000F0D5FA72B6FEE78020B7
:1007E00040050F49086040BFBFF34F8FBFF36F8FC5
:1007F000704772B609480168491C01607047074894
:100800000168491E016000D162B670470000000017
:10081000AF07000010ED00E0FFFF00FFBC19002053
:1008200004ED00E0000000010100083141600021FA
:10083000C943816001000831C160010008310161D4
:1008400000210160704742684A6093688B6093683A
:100850005960916008610168491C0160704730B5BA
:100860000A680023DB439A4201D1036907E00300D1
:10087000083300E023005C682568AA42FAD25A686F
:100880004A6091608B60596008610168491C016091
:1008900030BD0169826843689A60426883685A6023
:1008A0004A68824201D182684A6000220261086877
:1008B000401E08607047FEE71FB5002400F048F9AD
:1008C000B548816800290CD0039402940C30019043
:1008D000022000900023502203A1B048FFF7F0FB54
:1008E0000400200004B010BD546D722053766300E4
:1008F000F2B5040017001D00002901D1002610E008
:10090000282000F0DDF906000BD000F021F934605A
:100910000098B061F761356206987062301D002161
:1009200001613000F2BDF0B585B005001F00002068
:10093000994CA668002E18D00091019202950629C4
:100940000DDAFFF7ABFE022802D100230A9A01E07C
:10095000002300226946A06800F0B3FA05E00023F6
:100960003A006946300000F021FB05B0F0BDF0B55B
:1009700083B0894F03E0FFF774FC00F093F8386808
:1009800000260168002901D1012402E00024C0688A
:100990000668FFF753FC01A800F033F80500019842
:1009A0000028E8D1002C21D1B5421FD3FFF759FC14
:1009B0003868C068C468201DFFF76BFFE069012834
:1009C00010D133002A00A0693118200000F050F83F
:1009D000012807D1002000900023320000212000D0
:1009E000FFF7A1FF2000616A8847C6E7711BB8685E
:1009F00000F02CFCFFF735FC0028BED1FFF7EFFE1E
:100A0000BBE7F1B582B0FFF77BFC0700624E3069AF
:100A100087420BD300200299086037613800FEBD81
:100A200060602461211D3068FFF719FF306801689C
:100A3000002918D0C0680568C468201DFFF729FF89
:100A40002000616A8847E0690128EFD1A069281871
:100A50008542E5D30020009000232A0000212000D9
:100A6000FFF761FFE2E77168316070600120D2E753
:100A700038B5002441600061474D8A4206D3D11A3F
:100A80008269914206D2011D686807E09A4203D24A
:100A9000994201D3012403E0011D2868FFF7DFFE1E
:100AA000200032BD10B586B006E00298A0611300A8
:100AB00011182000FFF7DCFF0023002201A93648AF
:100AC000806800F0A6FA00283FD00198002803D5DE
:100AD00004990398029A904701980028ECD4039C4B
:100AE0006069002802D0201DFFF7D3FE05A8FFF79C
:100AF00088FF02000198022809D9001FD5D0401EA6
:100B00001FD0401E012802D9C01ECED0D4E70298C3
:100B10000300A16941182000FFF7AAFF0128CBD1EB
:100B20002000616A8847E0690128C5D10020009053
:100B300000230298A169421800212000FFF7F3FE6C
:100B4000BAE72000C046C046B6E706B010BD0000B8
:100B500010B5FFF74EFE104CA068002819D12000F8
:100B60001430FFF761FE20002830FFF75DFE200003
:100B700014302060200028306060002210212020E6
:100B800000F082F9A060002803D000BF04A100F0AB
:100B90004BFBFFF734FE10BD341900206F09000035
:100BA000546D72510000000000B583B03848002138
:100BB0000160016441A000680090EFF310800028FC
:100BC00001D172B602E0012069460870FFF7A4FB6C
:100BD000002804D0802040052E49086040BF0098BE
:100BE000019068460079002800D162B607BD80B543
:100BF000002000F078FB20202749086001202749C9
:100C0000086027498860086026480168264A0A402B
:100C1000C02109021143016080208002234908603D
:100C200001BDF8B504002248844200D3441E72B6C8
:100C300020480568FFF7B2FC002826D0174801219C
:100C400041602A191202120A1A4BDA63104A002371
:100C500013640E040660BFF34F8F002C04D020BF36
:100C6000154F3F68002FFAD04660124E3668136069
:100C70000160AE4201D208063618701B844200D9CA
:100C80000400200001D0FFF73EFB62B6F1BD00007A
:100C90000011014004ED00E008150140041301407B
:100CA0000010014010E400E0FF00FFFF00E100E061
:100CB000FEFFFF000415014000E200E0000000001C
:100CC00038B5040000250720044203D02100083174
:100CD00020400C1AFFF7B2FA0B484168002904D1F2
:100CE0000100103107229143416001680A19074B46
:100CF0009A4204D2914202D243685D180260FFF723
:100D0000B0FA280032BD000038080020F80F0000BB
:100D10001206130A1A43130C1A4300BF094205D0E6
:100D200083070BD00270401C491EF9D170470000A8
:100D30001206130A1A43130C1A4300BF130030B4EF
:100D400014001500103902D310393CC0FCD24907F9
:100D500000D30CC000D504C0890002D30280801CDF
:100D6000002900D5027030BC704700000022E5E782
:100D700010B5040010000A0001002000FFF7C8FFB2
:100D8000200010BD0848006880F30888074B1968E8
:100D90000868203080F30988022080F314883FBC63
:100DA000AE4662B600BD00BF00000000541800202F
:100DB00070477047EFF309800D4B1A6820381060B8
:100DC000F0C044464D4656465F46F0C008B5FFF7B2
:100DD000F6FA0CBC116808681030F0C8A046A946A5
:100DE000B246BB4680F309882038F0C8184700BFD8
:100DF000541800207047FEE781B000BF07A00068CC
:100E00000090EFF31080002801D172B602E00120BB
:100E100069460870009801B07047000000000000AB
:100E200038B505000C00FFF7E4FC2868E96B2A6C74
:100E30005143401868600020A8632868A8602868AB
:100E4000E96B491E2A6C51434018E8600020C043FA
:100E50006864A864002C0BD12869002810D01035D4
:100E60002800FFF701FB01280AD1FFF7B8FC07E0D3
:100E700028001030FFF7D8FC24352800FFF7D4FCF9
:100E8000FFF7BDFC012032BDF8B504000F000026BD
:100E9000002F01D14C2001E078434D30FFF710FFC7
:100EA00005000CD0002F01D12D6001E04C302860EE
:100EB000EC632F6401212800FFF7B2FF2E00300001
:100EC000F2BDFEB584B0040000250095012704E0C2
:100ED000200000F076F9FFF7C4F9FFF78AFCA06B59
:100EE000E16B884202D30698022816D1069A04992B
:100EF000200000F018F9616A002906D0243420008F
:100F0000FFF7B2FA012804D101E0002801D0FFF771
:100F100066FCFFF774FC012046E00598002802D12A
:100F2000FFF76DFC3FE00098002803D101A8FFF710
:100F3000CBFA0097FFF763FCFFF780F9FFF759FC46
:100F4000606C0021C943884200D16564A06C88426E
:100F500000D1A564FFF753FC05A901A8FFF7BBFA70
:100F600000281BD1FFF745FCA06BE16B884201D143
:100F7000012600E00026FFF742FC002EA8D00599CC
:100F800020001030FFF73FFA200000F01AF9FFF7B9
:100F900068F90028A1D1FFF722FC9EE7200000F0AD
:100FA00010F9FFF75EF9002007B0F0BDF2B582B08E
:100FB000040017001E00FFF71FFF0500A06BE16B88
:100FC000884201D3022E1CD132000299200000F089
:100FD000AAF80126A06C0021C94388420CD1606A9E
:100FE00000280CD024342000FFF73EFA002806D059
:100FF000002F04D03E6002E0A06C401CA0640120E1
:1010000000E00020009569460978002900D162B609
:10101000FEBDFEB582B004000027002504E02000DC
:1010200000F0CFF8FFF71DF9FFF7E3FBA06B0028F6
:101030002AD0E5680299200000F0B0F80498002852
:1010400012D1A06B401EA0632068002802D1FFF7D8
:1010500087FB60602069002812D010342000FFF761
:1010600003FA01280CD109E0E560606A002807D086
:1010700024342000FFF7F8F9002801D0FFF7AFFB78
:10108000FFF7BDFB01204CE00398002802D1FFF7D9
:10109000B6FB45E0002D03D16846FFF715FA0125A0
:1010A000FFF7ADFBFFF7CAF8FFF7A3FB606C002169
:1010B000C943884200D16764A06C884200D1A7640C
:1010C000FFF79DFB03A96846FFF705FA002822D128
:1010D000FFF78FFBA06B461EB641F60FFFF78FFBA5
:1010E000002E9CD02068002806D1FFF782FB6068A4
:1010F000FFF7E2FAFFF783FB039920002430FFF7A4
:1011000082F9200000F05DF8FFF7ABF800288BD1E2
:10111000FFF765FB88E7200000F053F8FFF7A1F820
:10112000002005B0F0BDF8B504001600002500272A
:10113000226C002A08D1206800282AD16068FFF7B5
:10114000E8FA0700656024E0002E0CD1A06800F0EA
:1011500037F9A068216C4018A0606168884218D3F4
:101160002068A06015E0E06800F02AF9216C484290
:10117000E1680918E1602268914202D261680818AA
:10118000E060022E05D1A06B002802D0A06B401EAB
:10119000A063A06B401CA0633800F2BD03000800F0
:1011A0001A6C002A00D1704710B5D9688918D96027
:1011B0005C68A14201D31968D960D96800F000F9D0
:1011C00010BD38B50400FFF714FB0AE020002430FE
:1011D000FFF74AF9002801D0FFF7A2F9A06C401EE2
:1011E000A064A06C012802DB606A0028EED1002513
:1011F000ED43A564FFF703FBFFF7FBFA0AE02000CD
:101200001030FFF731F9002801D0FFF789F9606C41
:10121000401E6064606C012802DB20690028EED16A
:101220006564FFF7ECFA31BD10B50022064B1C686F
:10123000002C04D1D2009A181160506010BD012218
:101240009C68002CF6D010BDA019002038B5050010
:101250000C00FFF7CEFA00200021C9436A6C8A42D5
:1012600000D16864AA6C8A4200D1A864FFF7C7FA6B
:10127000A86B002804D1210028002430FFF7E2F8F1
:101280002800FFF79EFF31BD8021C90508580028BE
:1012900000D00120C0B2704738B500200025404C76
:1012A0002178002901D085250FE0A06060602061D1
:1012B000E0603C480068C00703D40321002000F030
:1012C000ADF80120384908602070280032BD02685E
:1012D000130000E01B68002B02D08B42FAD170474C
:1012E0000A600160704738B504002D4DA8780028C9
:1012F00008D0002C02D0012061688847002000F04F
:10130000C7F813E000F0C4F8002C04D02100280036
:101310001030FFF7DCFFE868002807D12449086097
:10132000022024490860012023490860E868401C25
:10133000E860FFE7002000F0AFF831BD38B50400E9
:10134000174D01D1083506E0103504E00868286023
:1013500020004968884729680029F7D131BDF8B5D0
:1013600001240F4F154D00262002FFF78DFF0028A6
:1013700006D02E600D4804607C700020FFF7DEFF71
:1013800082204000FFF780FF002807D06E60022017
:1013900006490860BC700120FFF7D0FFF1BD0000D6
:1013A0008C19002000E100E018050040080300400F
:1013B0000401004004030040080000400001004018
:1013C000124207D08B0706D00B78491C0370401CD3
:1013D000521EF7D87047830706D00B78491C03705C
:1013E000401C521EF9D1704770B4103A03D378C92B
:1013F000103A78C0FBD2530701D318C918C001D5E1
:1014000008C908C0D20704D30B880380891C801C3C
:10141000002A01D50B78037070BC704710B58207A5
:10142000D30EFF249C40E2438907090E9940030034
:1014300005D50B4C03071B0F083B9B0801E0094C2B
:1014400083089B00E3181C682240114319600121A6
:10145000C006C00E8140044801600448016010BD10
:101460001CED00E000E400E080E200E000E100E0CC
:1014700072B606480168491C01607047034801685C
:10148000491E016000D162B670470000B819002003
:1014900080B5FFF7EDFF01BD80B5FFF7EFFF01BDA0
:1014A00019494058012800D000207047A022D205D9
:1014B00080001018E022D20080180268134B1340FD
:1014C00003600268090411430160704738B56B4638
:1014D00008A425681D60030008E06C469D0064595F
:1014E000A225ED0064591460121D5B1C4418A34230
:1014F000F3D331BD00000050012243075B0F9A4037
:10150000C008085C1040704700600040FFFFFCFF0F
:10151000F0B587B0002602A806608024640001258B
:10152000042720B2FFF7BCFF002808D0534800680A
:10153000284004D0002024B2534960502E436D004F
:10154000241D7F1EEDD180273F06BE204000FFF7FF
:10155000A7FF002807D000204A4908603E4302AA9E
:101560000121FFF7B3FF300715D0012500243542D4
:101570000DD0A10042484218106813683E4A5258E4
:10158000110004D09903890FC004C00E90476D006C
:10159000641C042CEBD337406CD005A800210160FB
:1015A0000020C04301E0029005980490002600242A
:1015B0003148001940214056C5B22900C02291434C
:1015C00000910021C943884246D004A90098FFF742
:1015D00093FF002840D02806800F01902648009AEB
:1015E000811820228956890047583800019802D175
:1015F000032831D101E003280BD10098C00805A9C8
:10160000081801780122009B5B075B0F9A400A4390
:1016100002701E480099890040588003850F02A976
:101620000098FFF769FF002802D0022D14D101E0D5
:10163000032D11D10198032808D1022D01D10321D6
:1016400000E002210098FFF731FF761C380003D03C
:101650000199C9B20098B847641C042CA8D3360677
:1016600008D003AA01210020FFF730FF0398029958
:10167000884298D107B0F0BDEC1800200463004008
:10168000106500407C610040006000400007005091
:101690004058002804E0C122920080580140080010
:1016A00000D00120C0B2704700228E235B00C250E0
:1016B0008A688B8AD25C8B8A5B1C8B821949425068
:1016C000704710B5A322D200821884235B00C01893
:1016D0000023CC7D002C036001D1106810BD487E32
:1016E0001268CB681A54487E401C487610BD1FB55E
:1016F00003006846012404700172019219685A6857
:1017000090471FBD00B585B0020000206B461870E1
:1017100019729168019190751168684652689047F6
:1017200005B000BD1C050000F0B585B006000C003A
:101730008125AD00002780218900FFF7ACFF00283C
:1017400026D0922149003000FFF7A2FF00281FD0C9
:101750008E20400030188760C22080003550A07E67
:10176000002801D10120706068460221017090219B
:10177000C90071180A680A600392E17D0172E0688D
:101780000190E775277621686846626890472DE0EA
:1017900004213000FFF77FFF002827D08421490073
:1017A0003000FFF775FF002820D021003000FFF740
:1017B00088FFE07D617E884218D1207E002807D016
:1017C000E268617EE0752069E060277667760AE06E
:1017D000A07E002801D101207060C2208000355019
:1017E000E775E268617E2000FFF781FF8E214900E6
:1017F0003000FFF74DFF002811D0A08AA17D88425C
:1018000004D221003000FFF74FFF08E08E20400097
:101810003750A17D002902D02000FFF773FFA221DD
:1018200049003000FFF734FF002811D08E2040001F
:1018300030188762A07E002801D001203060E07D52
:10184000002805D0E775E268617E2000FFF74FFFB2
:1018500005B0F0BD80B503490348FFF765FF01BD42
:1018600000000000701900200020004010B5F0209A
:101870000F2228490B78012B1BD14B68134018D13C
:101880008B68034202D1CC6804400CD0F0241C4089
:10189000102C02D1CC68044005D00340302B08D175
:1018A000CB68034005D11C4B1C4C2360E30B1C4C44
:1018B00023600B78012B0CD14B68134009D18B6846
:1018C0000340402B05D1CB68034002D10123154CC6
:1018D00023600B78012B1BD14B681A4018D18A6802
:1018E000F0231340A02B02D1CB68034005D0024067
:1018F000D02A0DD1C96808400AD10B4801680129D6
:1019000004D00A49016001680129FCD1C02141616C
:1019100010BD0000E00F00F0DFFF07C0040500402D
:10192000186C00400806004000EC0640759300006B
:1019300070B5FA246400234D01262E602000FEF7C6
:101940003FFC6E602000FEF73BFCF6E780B501200F
:1019500000F072F801BD00001FB5FFF79DFC0028E4
:1019600001D000F093F800F079F800F05CF8164C24
:10197000002003900290201D01900220009000237F
:101980008222520014A11148FEF79AFB10480090E1
:1019900000230122FA21890011A0FEF7A9FF20608F
:1019A000FEF7AEFC02000020009000230121206819
:1019B000FEF7B9FF0748016804220A430260FEF7F8
:1019C0001BFCFEE708050050B0190020311900008B
:1019D0004D19000010ED00E04C45443000000000BF
:1019E0004C4544310000000052000A439900114365
:1019F000009A12020A43019909041143144A800013
:101A000011507047012282401248002901D14260E2
:101A1000704702607047000080B5012119A2105C78
:101A2000FFF7F0FF01BD10B500242000FFF7F4FF21
:101A3000641C052CF9D310BD12A1085C06490A6884
:101A40000123834018009043486013408B60704727
:101A500000070050080500500405005030B583B061
:101A6000002400BF07A50020019000900023012260
:101A70000121285DFFF7B8FF641C052CF3D3FFF7A5
:101A8000D2FF37BD121314151600000010B584B034
:101A9000040068460C21FFF769F902946A460021A8
:101AA000014800F003F81FBD01400000BFF34F8F55
:101AB000034804490860BFF34F8F00BFFDE700BF34
:101AC0000400FA050CED00E070B40121002313E0DE
:101AD0000468001D0C4202D04D466D1E641923603F
:101AE000241D121F042AFAD22500960701D523804F
:101AF000AD1C0A4000D02B700268001D002AE7D1FF
:101B000070BC704730B501684118446862088A1893
:101B10008368E40701D54C461B190C30914200D173
:101B200030BD0C7864B2491C0D78491C1D705B1CDB
:101B3000002C02D5641CF9D1F0E7641EF4D5EDE762
:101B40000321064802680A430260054802680A4306
:101B50000260044880470448004700002405004014
:101B6000540500406D180000F11B000010B5074936
:101B700079441831064C7C44163404E0081D0A6888
:101B8000891888470100A142F8D110BD0800000063
:101B90002400000035FFFFFF8811000038080020F6
:101BA0000000000061FFFFFF7C000000100000004B
:101BB000000000200120C046002801D0FFF7D6FF1A
:101BC0000020C046C046FFF7C7FE00F000F880B511
:101BD00000F002F801BDFEE70746384600F002F8C3
:101BE000FBE7FEE72021090326311820ABBEF9E709
:101BF000C046C046C046C046FFF7DCFFFEE7FEE732
:101C0000FEE7FEE7FEE7FEE7FEE7FEE7FEE7FEE7AC
:101C1000FEE7FEE7FEE7FEE7FEE7FEE7FEE7FEE79C
:0C1C2000FEE7FEE7020024F4D300FCFF06
:0400000500001BF1EB
:00000001FF
